{
  "contractName": "Lottery",
  "abi": [
    {
      "inputs": [],
      "stateMutability": "nonpayable",
      "type": "constructor"
    },
    {
      "anonymous": false,
      "inputs": [
        {
          "indexed": false,
          "internalType": "address",
          "name": "winner",
          "type": "address"
        },
        {
          "indexed": false,
          "internalType": "uint256",
          "name": "prize",
          "type": "uint256"
        }
      ],
      "name": "LotteryWinner",
      "type": "event"
    },
    {
      "anonymous": false,
      "inputs": [
        {
          "indexed": true,
          "internalType": "address",
          "name": "playerAddress",
          "type": "address"
        },
        {
          "indexed": false,
          "internalType": "string",
          "name": "name",
          "type": "string"
        },
        {
          "indexed": false,
          "internalType": "uint256",
          "name": "numberOfTicketsBought",
          "type": "uint256"
        }
      ],
      "name": "PlayerAdded",
      "type": "event"
    },
    {
      "anonymous": false,
      "inputs": [
        {
          "indexed": false,
          "internalType": "uint256",
          "name": "ticketPrice",
          "type": "uint256"
        }
      ],
      "name": "PoolOpened",
      "type": "event"
    },
    {
      "inputs": [],
      "name": "isPoolOpen",
      "outputs": [
        {
          "internalType": "bool",
          "name": "",
          "type": "bool"
        }
      ],
      "stateMutability": "view",
      "type": "function",
      "constant": true
    },
    {
      "inputs": [],
      "name": "isWinnerDrawn",
      "outputs": [
        {
          "internalType": "bool",
          "name": "",
          "type": "bool"
        }
      ],
      "stateMutability": "view",
      "type": "function",
      "constant": true
    },
    {
      "inputs": [],
      "name": "lotteryID",
      "outputs": [
        {
          "internalType": "uint256",
          "name": "",
          "type": "uint256"
        }
      ],
      "stateMutability": "view",
      "type": "function",
      "constant": true
    },
    {
      "inputs": [
        {
          "internalType": "address",
          "name": "",
          "type": "address"
        }
      ],
      "name": "playerTickets",
      "outputs": [
        {
          "internalType": "uint256",
          "name": "",
          "type": "uint256"
        }
      ],
      "stateMutability": "view",
      "type": "function",
      "constant": true
    },
    {
      "inputs": [
        {
          "internalType": "uint256",
          "name": "",
          "type": "uint256"
        }
      ],
      "name": "players",
      "outputs": [
        {
          "internalType": "string",
          "name": "name",
          "type": "string"
        },
        {
          "internalType": "address payable",
          "name": "addr",
          "type": "address"
        },
        {
          "internalType": "uint256",
          "name": "numOfTickets",
          "type": "uint256"
        }
      ],
      "stateMutability": "view",
      "type": "function",
      "constant": true
    },
    {
      "inputs": [],
      "name": "poolBalance",
      "outputs": [
        {
          "internalType": "uint256",
          "name": "",
          "type": "uint256"
        }
      ],
      "stateMutability": "view",
      "type": "function",
      "constant": true
    },
    {
      "inputs": [],
      "name": "ticketNumber",
      "outputs": [
        {
          "internalType": "uint256",
          "name": "",
          "type": "uint256"
        }
      ],
      "stateMutability": "view",
      "type": "function",
      "constant": true
    },
    {
      "inputs": [],
      "name": "ticketPrice",
      "outputs": [
        {
          "internalType": "uint256",
          "name": "",
          "type": "uint256"
        }
      ],
      "stateMutability": "view",
      "type": "function",
      "constant": true
    },
    {
      "inputs": [
        {
          "internalType": "uint256",
          "name": "",
          "type": "uint256"
        }
      ],
      "name": "ticketToPlayer",
      "outputs": [
        {
          "internalType": "address",
          "name": "",
          "type": "address"
        }
      ],
      "stateMutability": "view",
      "type": "function",
      "constant": true
    },
    {
      "inputs": [],
      "name": "totalTickets",
      "outputs": [
        {
          "internalType": "uint256",
          "name": "",
          "type": "uint256"
        }
      ],
      "stateMutability": "view",
      "type": "function",
      "constant": true
    },
    {
      "inputs": [
        {
          "internalType": "uint256",
          "name": "",
          "type": "uint256"
        }
      ],
      "name": "winners",
      "outputs": [
        {
          "internalType": "address",
          "name": "",
          "type": "address"
        }
      ],
      "stateMutability": "view",
      "type": "function",
      "constant": true
    },
    {
      "inputs": [],
      "name": "IsPoolOpen",
      "outputs": [
        {
          "internalType": "bool",
          "name": "",
          "type": "bool"
        }
      ],
      "stateMutability": "view",
      "type": "function",
      "constant": true
    },
    {
      "inputs": [],
      "name": "IsUserOwner",
      "outputs": [
        {
          "internalType": "bool",
          "name": "",
          "type": "bool"
        }
      ],
      "stateMutability": "view",
      "type": "function",
      "constant": true
    },
    {
      "inputs": [],
      "name": "IsUserPlayer",
      "outputs": [
        {
          "internalType": "bool",
          "name": "",
          "type": "bool"
        }
      ],
      "stateMutability": "view",
      "type": "function",
      "constant": true
    },
    {
      "inputs": [],
      "name": "getTotalTicketsBought",
      "outputs": [
        {
          "internalType": "uint256",
          "name": "",
          "type": "uint256"
        }
      ],
      "stateMutability": "view",
      "type": "function",
      "constant": true
    },
    {
      "inputs": [],
      "name": "getPoolBalance",
      "outputs": [
        {
          "internalType": "uint256",
          "name": "",
          "type": "uint256"
        }
      ],
      "stateMutability": "view",
      "type": "function",
      "constant": true
    },
    {
      "inputs": [],
      "name": "getTicketPrice",
      "outputs": [
        {
          "internalType": "uint256",
          "name": "",
          "type": "uint256"
        }
      ],
      "stateMutability": "view",
      "type": "function",
      "constant": true
    },
    {
      "inputs": [],
      "name": "getPlayers",
      "outputs": [
        {
          "components": [
            {
              "internalType": "string",
              "name": "name",
              "type": "string"
            },
            {
              "internalType": "address payable",
              "name": "addr",
              "type": "address"
            },
            {
              "internalType": "uint256",
              "name": "numOfTickets",
              "type": "uint256"
            }
          ],
          "internalType": "struct Lottery.Player[]",
          "name": "",
          "type": "tuple[]"
        }
      ],
      "stateMutability": "view",
      "type": "function",
      "constant": true
    },
    {
      "inputs": [],
      "name": "getLotteryID",
      "outputs": [
        {
          "internalType": "uint256",
          "name": "",
          "type": "uint256"
        }
      ],
      "stateMutability": "view",
      "type": "function",
      "constant": true
    },
    {
      "inputs": [],
      "name": "getWinners",
      "outputs": [
        {
          "internalType": "address[]",
          "name": "",
          "type": "address[]"
        }
      ],
      "stateMutability": "view",
      "type": "function",
      "constant": true
    },
    {
      "inputs": [
        {
          "internalType": "uint256",
          "name": "_ticketPrice",
          "type": "uint256"
        }
      ],
      "name": "openPool",
      "outputs": [],
      "stateMutability": "nonpayable",
      "type": "function"
    },
    {
      "inputs": [
        {
          "internalType": "string",
          "name": "_name",
          "type": "string"
        },
        {
          "internalType": "uint256",
          "name": "_numberOfTicketsBought",
          "type": "uint256"
        }
      ],
      "name": "enterPool",
      "outputs": [],
      "stateMutability": "payable",
      "type": "function",
      "payable": true
    },
    {
      "inputs": [],
      "name": "drawWinner",
      "outputs": [],
      "stateMutability": "nonpayable",
      "type": "function"
    }
  ],
  "bytecode": "0x60a060405234801561001057600080fd5b50730aa92c26c95bc8971ba0de285862d9bc7fcd5ec973ffffffffffffffffffffffffffffffffffffffff1660808173ffffffffffffffffffffffffffffffffffffffff16815250506001808190555060006003819055506000808190555060006004819055506080516124b06100ae6000396000818161073c0152818161098401528181610c0701528181610e49015261121f01526124b06000f3fe6080604052600436106101405760003560e01c8063b2185bb1116100b6578063eaa8108f1161006f578063eaa8108f1461041c578063f3bfc1c414610459578063f71d96cb14610484578063f98e6b91146104c3578063fac8f19a14610500578063fb8fed371461051c57610140565b8063b2185bb114610330578063c54c7da614610347578063d7513c1f14610372578063dd11247e1461039d578063ddac4d01146103c8578063df15c37e146103f157610140565b80638b5b9ccc116101085780638b5b9ccc1461021c57806396365d44146102475780639be064c114610272578063a2fb11751461029d578063abd70aa2146102da578063ad1907341461030557610140565b80631209b1f6146101455780631d54656f146101705780633a582d971461019b57806356c43f8e146101c657806387bb7ae0146101f1575b600080fd5b34801561015157600080fd5b5061015a610547565b6040516101679190611442565b60405180910390f35b34801561017c57600080fd5b5061018561054d565b6040516101929190611442565b60405180910390f35b3480156101a757600080fd5b506101b0610557565b6040516101bd9190611478565b60405180910390f35b3480156101d257600080fd5b506101db61056e565b6040516101e89190611442565b60405180910390f35b3480156101fd57600080fd5b50610206610578565b6040516102139190611442565b60405180910390f35b34801561022857600080fd5b50610231610581565b60405161023e9190611685565b60405180910390f35b34801561025357600080fd5b5061025c6106d2565b6040516102699190611442565b60405180910390f35b34801561027e57600080fd5b506102876106d8565b6040516102949190611442565b60405180910390f35b3480156102a957600080fd5b506102c460048036038101906102bf91906116e7565b6106de565b6040516102d19190611735565b60405180910390f35b3480156102e657600080fd5b506102ef61071d565b6040516102fc9190611442565b60405180910390f35b34801561031157600080fd5b5061031a610727565b6040516103279190611478565b60405180910390f35b34801561033c57600080fd5b5061034561073a565b005b34801561035357600080fd5b5061035c610b46565b6040516103699190611442565b60405180910390f35b34801561037e57600080fd5b50610387610b4c565b6040516103949190611478565b60405180910390f35b3480156103a957600080fd5b506103b2610bff565b6040516103bf9190611442565b60405180910390f35b3480156103d457600080fd5b506103ef60048036038101906103ea91906116e7565b610c05565b005b3480156103fd57600080fd5b50610406610d9f565b604051610413919061180e565b60405180910390f35b34801561042857600080fd5b50610443600480360381019061043e919061185c565b610e2d565b6040516104509190611442565b60405180910390f35b34801561046557600080fd5b5061046e610e45565b60405161047b9190611478565b60405180910390f35b34801561049057600080fd5b506104ab60048036038101906104a691906116e7565b610e9b565b6040516104ba939291906118e2565b60405180910390f35b3480156104cf57600080fd5b506104ea60048036038101906104e591906116e7565b610f7d565b6040516104f79190611735565b60405180910390f35b61051a60048036038101906105159190611a55565b610fb0565b005b34801561052857600080fd5b5061053161133f565b60405161053e9190611478565b60405180910390f35b60005481565b6000600154905090565b6000600260009054906101000a900460ff16905090565b6000600354905090565b60008054905090565b60606007805480602002602001604051908101604052809291908181526020016000905b828210156106c957838290600052602060002090600302016040518060600160405290816000820180546105d890611ae0565b80601f016020809104026020016040519081016040528092919081815260200182805461060490611ae0565b80156106515780601f1061062657610100808354040283529160200191610651565b820191906000526020600020905b81548152906001019060200180831161063457829003601f168201915b505050505081526020016001820160009054906101000a900473ffffffffffffffffffffffffffffffffffffffff1673ffffffffffffffffffffffffffffffffffffffff1673ffffffffffffffffffffffffffffffffffffffff168152602001600282015481525050815260200190600101906105a5565b50505050905090565b60045481565b60015481565b600681815481106106ee57600080fd5b906000526020600020016000915054906101000a900473ffffffffffffffffffffffffffffffffffffffff1681565b6000600454905090565b600260009054906101000a900460ff1681565b7f000000000000000000000000000000000000000000000000000000000000000073ffffffffffffffffffffffffffffffffffffffff163373ffffffffffffffffffffffffffffffffffffffff16146107c8576040517f08c379a00000000000000000000000000000000000000000000000000000000081526004016107bf90611b83565b60405180910390fd5b6002600354101561080e576040517f08c379a000000000000000000000000000000000000000000000000000000000815260040161080590611c15565b60405180910390fd5b600260019054906101000a900460ff161561085e576040517f08c379a000000000000000000000000000000000000000000000000000000000815260040161085590611c81565b60405180910390fd5b6001600260016101000a81548160ff02191690831515021790555060006003544244604051602001610891929190611cc2565b6040516020818303038152906040528051906020012060001c6108b49190611d1d565b905060006009600083815260200190815260200160002060009054906101000a900473ffffffffffffffffffffffffffffffffffffffff1690506006819080600181540180825580915050600190039060005260206000200160009091909190916101000a81548173ffffffffffffffffffffffffffffffffffffffff021916908373ffffffffffffffffffffffffffffffffffffffff16021790555060006064605f6004546109649190611d7d565b61096e9190611dbf565b90506000816004546109809190611df0565b90507f0000000000000000000000000000000000000000000000000000000000000000506000600260006101000a81548160ff0219169083151502179055506000600381905550600060048190555060008081905550600160008154809291906109e990611e24565b919050555060005b600554811015610a44576009600082815260200190815260200160002060006101000a81549073ffffffffffffffffffffffffffffffffffffffff02191690558080610a3c90611e24565b9150506109f1565b50600060058190555060005b600780549050811015610af8576008600060078381548110610a7557610a74611e6c565b5b906000526020600020906003020160010160009054906101000a900473ffffffffffffffffffffffffffffffffffffffff1673ffffffffffffffffffffffffffffffffffffffff1673ffffffffffffffffffffffffffffffffffffffff168152602001908152602001600020600090558080610af090611e24565b915050610a50565b5060076000610b079190611352565b7f275eaacf9e506f9c68b251c2f97cf723c4fb9a3b94e42a1dfb581543c135f0c08383604051610b38929190611e9b565b60405180910390a150505050565b60055481565b600080600090505b600780549050811015610bf6573373ffffffffffffffffffffffffffffffffffffffff1660078281548110610b8c57610b8b611e6c565b5b906000526020600020906003020160010160009054906101000a900473ffffffffffffffffffffffffffffffffffffffff1673ffffffffffffffffffffffffffffffffffffffff1603610be3576001915050610bfc565b8080610bee90611e24565b915050610b54565b50600090505b90565b60035481565b7f000000000000000000000000000000000000000000000000000000000000000073ffffffffffffffffffffffffffffffffffffffff163373ffffffffffffffffffffffffffffffffffffffff1614610c93576040517f08c379a0000000000000000000000000000000000000000000000000000000008152600401610c8a90611b83565b60405180910390fd5b600260009054906101000a900460ff1615610ce3576040517f08c379a0000000000000000000000000000000000000000000000000000000008152600401610cda90611f10565b60405180910390fd5b60008111610d26576040517f08c379a0000000000000000000000000000000000000000000000000000000008152600401610d1d90611fa2565b60405180910390fd5b6000600260016101000a81548160ff0219169083151502179055506001600260006101000a81548160ff021916908315150217905550806000819055507fdf5eab7aafa65f032281e56b9400db3c1d50c6a02c1c56cf936eb79e5748a9ab600054604051610d949190611442565b60405180910390a150565b60606006805480602002602001604051908101604052809291908181526020018280548015610e2357602002820191906000526020600020905b8160009054906101000a900473ffffffffffffffffffffffffffffffffffffffff1673ffffffffffffffffffffffffffffffffffffffff1681526020019060010190808311610dd9575b5050505050905090565b60086020528060005260406000206000915090505481565b60007f000000000000000000000000000000000000000000000000000000000000000073ffffffffffffffffffffffffffffffffffffffff163373ffffffffffffffffffffffffffffffffffffffff1614905090565b60078181548110610eab57600080fd5b9060005260206000209060030201600091509050806000018054610ece90611ae0565b80601f0160208091040260200160405190810160405280929190818152602001828054610efa90611ae0565b8015610f475780601f10610f1c57610100808354040283529160200191610f47565b820191906000526020600020905b815481529060010190602001808311610f2a57829003601f168201915b5050505050908060010160009054906101000a900473ffffffffffffffffffffffffffffffffffffffff16908060020154905083565b60096020528060005260406000206000915054906101000a900473ffffffffffffffffffffffffffffffffffffffff1681565b600260009054906101000a900460ff16610fff576040517f08c379a0000000000000000000000000000000000000000000000000000000008152600401610ff69061200e565b60405180910390fd5b60008111611042576040517f08c379a0000000000000000000000000000000000000000000000000000000008152600401611039906120a0565b60405180910390fd5b600060405180606001604052808481526020013373ffffffffffffffffffffffffffffffffffffffff168152602001838152509050600781908060018154018082558091505060019003906000526020600020906003020160009091909190915060008201518160000190816110b8919061226c565b5060208201518160010160006101000a81548173ffffffffffffffffffffffffffffffffffffffff021916908373ffffffffffffffffffffffffffffffffffffffff16021790555060408201518160020155505081600860003373ffffffffffffffffffffffffffffffffffffffff1673ffffffffffffffffffffffffffffffffffffffff1681526020019081526020016000208190555060005b828110156111da573360096000600554815260200190815260200160002060006101000a81548173ffffffffffffffffffffffffffffffffffffffff021916908373ffffffffffffffffffffffffffffffffffffffff160217905550600560008154809291906111c290611e24565b919050555080806111d290611e24565b915050611153565b5081600360008282546111ed919061233e565b92505081905550600054826112029190611d7d565b60046000828254611213919061233e565b925050819055506000807f000000000000000000000000000000000000000000000000000000000000000073ffffffffffffffffffffffffffffffffffffffff1634604051611261906123a3565b60006040518083038185875af1925050503d806000811461129e576040519150601f19603f3d011682016040523d82523d6000602084013e6112a3565b606091505b5091509150816112e8576040517f08c379a00000000000000000000000000000000000000000000000000000000081526004016112df9061242a565b60405180910390fd5b3373ffffffffffffffffffffffffffffffffffffffff167f7ff7c851576b0a6ac24d00f3be32aa3aeb04c2c9e69084f75a7b241ed80aaecc868660405161133092919061244a565b60405180910390a25050505050565b600260019054906101000a900460ff1681565b50805460008255600302906000526020600020908101906113739190611376565b50565b5b808211156113c8576000808201600061139091906113cc565b6001820160006101000a81549073ffffffffffffffffffffffffffffffffffffffff0219169055600282016000905550600301611377565b5090565b5080546113d890611ae0565b6000825580601f106113ea5750611409565b601f016020900490600052602060002090810190611408919061140c565b5b50565b5b8082111561142557600081600090555060010161140d565b5090565b6000819050919050565b61143c81611429565b82525050565b60006020820190506114576000830184611433565b92915050565b60008115159050919050565b6114728161145d565b82525050565b600060208201905061148d6000830184611469565b92915050565b600081519050919050565b600082825260208201905092915050565b6000819050602082019050919050565b600081519050919050565b600082825260208201905092915050565b60005b838110156114f95780820151818401526020810190506114de565b60008484015250505050565b6000601f19601f8301169050919050565b6000611521826114bf565b61152b81856114ca565b935061153b8185602086016114db565b61154481611505565b840191505092915050565b600073ffffffffffffffffffffffffffffffffffffffff82169050919050565b600061157a8261154f565b9050919050565b61158a8161156f565b82525050565b61159981611429565b82525050565b600060608301600083015184820360008601526115bc8282611516565b91505060208301516115d16020860182611581565b5060408301516115e46040860182611590565b508091505092915050565b60006115fb838361159f565b905092915050565b6000602082019050919050565b600061161b82611493565b611625818561149e565b935083602082028501611637856114af565b8060005b85811015611673578484038952815161165485826115ef565b945061165f83611603565b925060208a0199505060018101905061163b565b50829750879550505050505092915050565b6000602082019050818103600083015261169f8184611610565b905092915050565b6000604051905090565b600080fd5b600080fd5b6116c481611429565b81146116cf57600080fd5b50565b6000813590506116e1816116bb565b92915050565b6000602082840312156116fd576116fc6116b1565b5b600061170b848285016116d2565b91505092915050565b600061171f8261154f565b9050919050565b61172f81611714565b82525050565b600060208201905061174a6000830184611726565b92915050565b600081519050919050565b600082825260208201905092915050565b6000819050602082019050919050565b61178581611714565b82525050565b6000611797838361177c565b60208301905092915050565b6000602082019050919050565b60006117bb82611750565b6117c5818561175b565b93506117d08361176c565b8060005b838110156118015781516117e8888261178b565b97506117f3836117a3565b9250506001810190506117d4565b5085935050505092915050565b6000602082019050818103600083015261182881846117b0565b905092915050565b61183981611714565b811461184457600080fd5b50565b60008135905061185681611830565b92915050565b600060208284031215611872576118716116b1565b5b600061188084828501611847565b91505092915050565b600082825260208201905092915050565b60006118a5826114bf565b6118af8185611889565b93506118bf8185602086016114db565b6118c881611505565b840191505092915050565b6118dc8161156f565b82525050565b600060608201905081810360008301526118fc818661189a565b905061190b60208301856118d3565b6119186040830184611433565b949350505050565b600080fd5b600080fd5b7f4e487b7100000000000000000000000000000000000000000000000000000000600052604160045260246000fd5b61196282611505565b810181811067ffffffffffffffff821117156119815761198061192a565b5b80604052505050565b60006119946116a7565b90506119a08282611959565b919050565b600067ffffffffffffffff8211156119c0576119bf61192a565b5b6119c982611505565b9050602081019050919050565b82818337600083830152505050565b60006119f86119f3846119a5565b61198a565b905082815260208101848484011115611a1457611a13611925565b5b611a1f8482856119d6565b509392505050565b600082601f830112611a3c57611a3b611920565b5b8135611a4c8482602086016119e5565b91505092915050565b60008060408385031215611a6c57611a6b6116b1565b5b600083013567ffffffffffffffff811115611a8a57611a896116b6565b5b611a9685828601611a27565b9250506020611aa7858286016116d2565b9150509250929050565b7f4e487b7100000000000000000000000000000000000000000000000000000000600052602260045260246000fd5b60006002820490506001821680611af857607f821691505b602082108103611b0b57611b0a611ab1565b5b50919050565b7f4f6e6c792074686520636f6e7472616374206f776e65722063616e2063616c6c60008201527f20746869732066756e6374696f6e2e0000000000000000000000000000000000602082015250565b6000611b6d602f83611889565b9150611b7882611b11565b604082019050919050565b60006020820190508181036000830152611b9c81611b60565b9050919050565b7f43616e6e6f74206472617720612077696e6e65722077697468206c657373207460008201527f68616e203220706c61796572732e000000000000000000000000000000000000602082015250565b6000611bff602e83611889565b9150611c0a82611ba3565b604082019050919050565b60006020820190508181036000830152611c2e81611bf2565b9050919050565b7f57696e6e657220616c726561647920647261776e000000000000000000000000600082015250565b6000611c6b601483611889565b9150611c7682611c35565b602082019050919050565b60006020820190508181036000830152611c9a81611c5e565b9050919050565b6000819050919050565b611cbc611cb782611429565b611ca1565b82525050565b6000611cce8285611cab565b602082019150611cde8284611cab565b6020820191508190509392505050565b7f4e487b7100000000000000000000000000000000000000000000000000000000600052601260045260246000fd5b6000611d2882611429565b9150611d3383611429565b925082611d4357611d42611cee565b5b828206905092915050565b7f4e487b7100000000000000000000000000000000000000000000000000000000600052601160045260246000fd5b6000611d8882611429565b9150611d9383611429565b9250828202611da181611429565b91508282048414831517611db857611db7611d4e565b5b5092915050565b6000611dca82611429565b9150611dd583611429565b925082611de557611de4611cee565b5b828204905092915050565b6000611dfb82611429565b9150611e0683611429565b9250828203905081811115611e1e57611e1d611d4e565b5b92915050565b6000611e2f82611429565b91507fffffffffffffffffffffffffffffffffffffffffffffffffffffffffffffffff8203611e6157611e60611d4e565b5b600182019050919050565b7f4e487b7100000000000000000000000000000000000000000000000000000000600052603260045260246000fd5b6000604082019050611eb06000830185611726565b611ebd6020830184611433565b9392505050565b7f4c6f747465727920706f6f6c20697320616c7265616479206f70656e2e000000600082015250565b6000611efa601d83611889565b9150611f0582611ec4565b602082019050919050565b60006020820190508181036000830152611f2981611eed565b9050919050565b7f5469636b6574207072696365206d75737420626520677265617465722074686160008201527f6e20302e00000000000000000000000000000000000000000000000000000000602082015250565b6000611f8c602483611889565b9150611f9782611f30565b604082019050919050565b60006020820190508181036000830152611fbb81611f7f565b9050919050565b7f4c6f747465727920706f6f6c206973206e6f7420796574206f70656e2e000000600082015250565b6000611ff8601d83611889565b915061200382611fc2565b602082019050919050565b6000602082019050818103600083015261202781611feb565b9050919050565b7f4e756d626572206f66207469636b65747320626f756768742073686f756c642060008201527f62652067726561746572207468616e2030000000000000000000000000000000602082015250565b600061208a603183611889565b91506120958261202e565b604082019050919050565b600060208201905081810360008301526120b98161207d565b9050919050565b60008190508160005260206000209050919050565b60006020601f8301049050919050565b600082821b905092915050565b6000600883026121227fffffffffffffffffffffffffffffffffffffffffffffffffffffffffffffffff826120e5565b61212c86836120e5565b95508019841693508086168417925050509392505050565b6000819050919050565b600061216961216461215f84611429565b612144565b611429565b9050919050565b6000819050919050565b6121838361214e565b61219761218f82612170565b8484546120f2565b825550505050565b600090565b6121ac61219f565b6121b781848461217a565b505050565b5b818110156121db576121d06000826121a4565b6001810190506121bd565b5050565b601f821115612220576121f1816120c0565b6121fa846120d5565b81016020851015612209578190505b61221d612215856120d5565b8301826121bc565b50505b505050565b600082821c905092915050565b600061224360001984600802612225565b1980831691505092915050565b600061225c8383612232565b9150826002028217905092915050565b612275826114bf565b67ffffffffffffffff81111561228e5761228d61192a565b5b6122988254611ae0565b6122a38282856121df565b600060209050601f8311600181146122d657600084156122c4578287015190505b6122ce8582612250565b865550612336565b601f1984166122e4866120c0565b60005b8281101561230c578489015182556001820191506020850194506020810190506122e7565b868310156123295784890151612325601f891682612232565b8355505b6001600288020188555050505b505050505050565b600061234982611429565b915061235483611429565b925082820190508082111561236c5761236b611d4e565b5b92915050565b600081905092915050565b50565b600061238d600083612372565b91506123988261237d565b600082019050919050565b60006123ae82612380565b9150819050919050565b7f4661696c656420746f2073656e6420457468657220746f20636f6e747261637460008201527f206f776e65720000000000000000000000000000000000000000000000000000602082015250565b6000612414602683611889565b915061241f826123b8565b604082019050919050565b6000602082019050818103600083015261244381612407565b9050919050565b60006040820190508181036000830152612464818561189a565b90506124736020830184611433565b939250505056fea26469706673582212202703869397c87337dba1899adb756a2b7e2478bb357e2399957678a89407144064736f6c63430008130033",
  "immutableReferences": {
    "3": [
      {
        "length": 32,
        "start": 1852
      },
      {
        "length": 32,
        "start": 2436
      },
      {
        "length": 32,
        "start": 3079
      },
      {
        "length": 32,
        "start": 3657
      },
      {
        "length": 32,
        "start": 4639
      }
    ]
  },
  "source": "// SPDX-License-Identifier: MIT\r\npragma solidity ^0.8.18;\r\n\r\n//import \"@/SafeMath.sol\";\r\n\r\ncontract Lottery {\r\n    //using SafeMath for uint256;\r\n\r\n    // State variables\r\n    address immutable CONTRACT_OWNER;\r\n    uint256 public ticketPrice;\r\n    uint public lotteryID;\r\n    bool public isPoolOpen;\r\n    bool public isWinnerDrawn;\r\n    uint256 public totalTickets;\r\n    uint256 public poolBalance;\r\n    uint256 public ticketNumber;\r\n\r\n    address[] public winners;\r\n    Player[] public players;\r\n    mapping(address => uint256) public playerTickets;\r\n    mapping(uint256 => address) public ticketToPlayer;\r\n\r\n    struct Player {\r\n        string name;\r\n        address payable addr;\r\n        uint256 numOfTickets;\r\n    }\r\n\r\n    // Events\r\n    event PoolOpened(uint256 ticketPrice);\r\n    event PlayerAdded(address indexed playerAddress, string name, uint256 numberOfTicketsBought);\r\n    event LotteryWinner(address winner, uint256 prize);\r\n\r\n    // Constructor\r\n    constructor(){\r\n        CONTRACT_OWNER = 0x0Aa92C26C95Bc8971ba0dE285862D9Bc7FCd5EC9;\r\n        lotteryID = 1;\r\n        totalTickets = 0;\r\n        ticketPrice = 0;\r\n        poolBalance = 0;\r\n    }\r\n\r\n    // Modifier to allow only owner to call certain functions\r\n    modifier onlyOwner{\r\n        require(msg.sender == CONTRACT_OWNER, \"Only the contract owner can call this function.\");\r\n        _;\r\n    }\r\n\r\n    //========== GETTERS ==========//\r\n    function IsPoolOpen() public view returns (bool) {\r\n        return isPoolOpen;\r\n    }\r\n\r\n    function IsUserOwner() public view returns (bool) {\r\n        return msg.sender == CONTRACT_OWNER;\r\n    }\r\n\r\n    function IsUserPlayer() public view returns (bool) {\r\n        for (uint i = 0; i < players.length; i++) {\r\n            if (players[i].addr == msg.sender) {\r\n                return true;\r\n            }\r\n        }\r\n        return false;\r\n    }\r\n\r\n    // Get the total number of tickets bought by players\r\n    function getTotalTicketsBought() public view returns (uint256) {\r\n        return totalTickets;\r\n    }\r\n\r\n    // Get the current balance of the lottery pool\r\n    function getPoolBalance() public view returns (uint256) {\r\n        return poolBalance;\r\n    }\r\n\r\n    function getTicketPrice() public view returns (uint256) {\r\n        return ticketPrice;\r\n    }\r\n\r\n    function getPlayers() public view returns (Player[] memory) {\r\n        return players;\r\n    }\r\n\r\n    function getLotteryID() public view returns(uint) {\r\n        return lotteryID;\r\n    }\r\n\r\n      function getWinners() public view returns (address[] memory){\r\n        return winners;\r\n    }\r\n\r\n    //========== METHODS ==========//\r\n\r\n    // Open the lottery pool\r\n    function openPool(uint256 _ticketPrice) public onlyOwner {\r\n        require(!isPoolOpen, \"Lottery pool is already open.\");\r\n        require(_ticketPrice > 0, \"Ticket price must be greater than 0.\");\r\n        isWinnerDrawn = false;\r\n        isPoolOpen = true;\r\n        ticketPrice = _ticketPrice;\r\n        emit PoolOpened(ticketPrice);\r\n    }\r\n\r\n    // Add a player to the lottery pool\r\n    function enterPool(string memory _name, uint256 _numberOfTicketsBought) public payable {\r\n        require(isPoolOpen, \"Lottery pool is not yet open.\");\r\n        require(_numberOfTicketsBought > 0, \"Number of tickets bought should be greater than 0\");\r\n\r\n        // Create new Player instance\r\n        Player memory newPlayer = Player(_name, payable(msg.sender), _numberOfTicketsBought);\r\n\r\n        // Add new player to players array\r\n        players.push(newPlayer);\r\n\r\n        playerTickets[msg.sender] = _numberOfTicketsBought;\r\n        for (uint256 i = 0; i < _numberOfTicketsBought; i++) {\r\n            ticketToPlayer[ticketNumber] = msg.sender;\r\n            ticketNumber++;\r\n        }\r\n\r\n        totalTickets += _numberOfTicketsBought;\r\n        poolBalance += _numberOfTicketsBought * (ticketPrice);\r\n\r\n        (bool sent, bytes memory data2) = CONTRACT_OWNER.call{value: msg.value}(\"\");\r\n        require(sent, \"Failed to send Ether to contract owner\");\r\n\r\n        emit PlayerAdded(msg.sender, _name, _numberOfTicketsBought);\r\n    }\r\n\r\n    function drawWinner() public onlyOwner {\r\n        require(totalTickets >= 2, \"Cannot draw a winner with less than 2 players.\");\r\n        require(!isWinnerDrawn, \"Winner already drawn\");\r\n        isWinnerDrawn = true;\r\n        \r\n        // Calculate the winning amount and transfer it to the winner and the owner\r\n        uint256 winningTicket = uint256(keccak256(abi.encodePacked(block.timestamp, block.prevrandao))) % totalTickets;\r\n        address winner = payable(ticketToPlayer[winningTicket]);\r\n        winners.push(winner);\r\n        uint256 amountWon = poolBalance * 95 / 100;\r\n        uint256 ownerFee = poolBalance - amountWon;\r\n        \r\n        winner.call{value: amountWon};\r\n        CONTRACT_OWNER.call{value: ownerFee};\r\n\r\n\r\n        // Reset the lottery pool for the next round\r\n        isPoolOpen = false;\r\n        totalTickets = 0;\r\n        poolBalance = 0;\r\n        ticketPrice = 0;\r\n        lotteryID++;\r\n\r\n        // Reset mappings for player's tickets and ticket numbers\r\n        for (uint256 i = 0; i < ticketNumber; i++) {\r\n            delete ticketToPlayer[i];\r\n        }\r\n        ticketNumber = 0;\r\n\r\n        for (uint256 i = 0; i < players.length; i++) {\r\n            delete playerTickets[players[i].addr];\r\n        }\r\n\r\n        // Reset players array\r\n        delete players;\r\n\r\n        // Emit an event with the winner and the winning amount\r\n        emit LotteryWinner(winner, amountWon);\r\n    }\r\n}",
  "sourcePath": "c:\\Users\\henri\\Documents\\COLE\\BACC INFO\\H2023\\Aspects pratiques de la chanes de blocs\\TP3\\IFT4100_TP3\\ift-4100-lottery-dapp\\backend\\contracts\\Lottery.sol",
  "compiler": {
    "name": "solc",
    "version": "0.8.19+commit.7dd6d404.Emscripten.clang"
  },
  "schemaVersion": "3.4.13",
  "updatedAt": "2023-04-07T20:54:08.055Z",
  "networkType": "ethereum",
  "devdoc": {
    "kind": "dev",
    "methods": {},
    "version": 1
  },
  "userdoc": {
    "kind": "user",
    "methods": {},
    "version": 1
  }
}