{
  "contractName": "Lottery",
  "abi": [
    {
      "inputs": [],
      "stateMutability": "nonpayable",
      "type": "constructor"
    },
    {
      "anonymous": false,
      "inputs": [
        {
          "indexed": false,
          "internalType": "address",
          "name": "loser",
          "type": "address"
        }
      ],
      "name": "LotteryLoser",
      "type": "event"
    },
    {
      "anonymous": false,
      "inputs": [
        {
          "indexed": false,
          "internalType": "address",
          "name": "winner",
          "type": "address"
        },
        {
          "indexed": false,
          "internalType": "uint256",
          "name": "prize",
          "type": "uint256"
        }
      ],
      "name": "LotteryWinner",
      "type": "event"
    },
    {
      "anonymous": false,
      "inputs": [
        {
          "indexed": true,
          "internalType": "address",
          "name": "playerAddress",
          "type": "address"
        },
        {
          "indexed": false,
          "internalType": "string",
          "name": "name",
          "type": "string"
        },
        {
          "indexed": false,
          "internalType": "uint256",
          "name": "numberOfTicketsBought",
          "type": "uint256"
        }
      ],
      "name": "PlayerAdded",
      "type": "event"
    },
    {
      "anonymous": false,
      "inputs": [
        {
          "indexed": false,
          "internalType": "uint256",
          "name": "ticketPrice",
          "type": "uint256"
        }
      ],
      "name": "PoolOpened",
      "type": "event"
    },
    {
      "inputs": [],
      "name": "isPoolOpen",
      "outputs": [
        {
          "internalType": "bool",
          "name": "",
          "type": "bool"
        }
      ],
      "stateMutability": "view",
      "type": "function",
      "constant": true
    },
    {
      "inputs": [],
      "name": "isWinnerDrawn",
      "outputs": [
        {
          "internalType": "bool",
          "name": "",
          "type": "bool"
        }
      ],
      "stateMutability": "view",
      "type": "function",
      "constant": true
    },
    {
      "inputs": [],
      "name": "lotteryID",
      "outputs": [
        {
          "internalType": "uint256",
          "name": "",
          "type": "uint256"
        }
      ],
      "stateMutability": "view",
      "type": "function",
      "constant": true
    },
    {
      "inputs": [],
      "name": "owner",
      "outputs": [
        {
          "internalType": "address",
          "name": "",
          "type": "address"
        }
      ],
      "stateMutability": "view",
      "type": "function",
      "constant": true
    },
    {
      "inputs": [
        {
          "internalType": "address",
          "name": "",
          "type": "address"
        }
      ],
      "name": "playerName",
      "outputs": [
        {
          "internalType": "string",
          "name": "",
          "type": "string"
        }
      ],
      "stateMutability": "view",
      "type": "function",
      "constant": true
    },
    {
      "inputs": [
        {
          "internalType": "address",
          "name": "",
          "type": "address"
        }
      ],
      "name": "playerTickets",
      "outputs": [
        {
          "internalType": "uint256",
          "name": "",
          "type": "uint256"
        }
      ],
      "stateMutability": "view",
      "type": "function",
      "constant": true
    },
    {
      "inputs": [
        {
          "internalType": "uint256",
          "name": "",
          "type": "uint256"
        }
      ],
      "name": "players",
      "outputs": [
        {
          "internalType": "address payable",
          "name": "",
          "type": "address"
        }
      ],
      "stateMutability": "view",
      "type": "function",
      "constant": true
    },
    {
      "inputs": [],
      "name": "poolBalance",
      "outputs": [
        {
          "internalType": "uint256",
          "name": "",
          "type": "uint256"
        }
      ],
      "stateMutability": "view",
      "type": "function",
      "constant": true
    },
    {
      "inputs": [],
      "name": "ticketNumber",
      "outputs": [
        {
          "internalType": "uint256",
          "name": "",
          "type": "uint256"
        }
      ],
      "stateMutability": "view",
      "type": "function",
      "constant": true
    },
    {
      "inputs": [],
      "name": "ticketPrice",
      "outputs": [
        {
          "internalType": "uint256",
          "name": "",
          "type": "uint256"
        }
      ],
      "stateMutability": "view",
      "type": "function",
      "constant": true
    },
    {
      "inputs": [
        {
          "internalType": "uint256",
          "name": "",
          "type": "uint256"
        }
      ],
      "name": "ticketToPlayer",
      "outputs": [
        {
          "internalType": "address",
          "name": "",
          "type": "address"
        }
      ],
      "stateMutability": "view",
      "type": "function",
      "constant": true
    },
    {
      "inputs": [],
      "name": "totalTickets",
      "outputs": [
        {
          "internalType": "uint256",
          "name": "",
          "type": "uint256"
        }
      ],
      "stateMutability": "view",
      "type": "function",
      "constant": true
    },
    {
      "inputs": [
        {
          "internalType": "uint256",
          "name": "",
          "type": "uint256"
        }
      ],
      "name": "winners",
      "outputs": [
        {
          "internalType": "address",
          "name": "",
          "type": "address"
        }
      ],
      "stateMutability": "view",
      "type": "function",
      "constant": true
    },
    {
      "inputs": [],
      "name": "IsPoolOpen",
      "outputs": [
        {
          "internalType": "bool",
          "name": "",
          "type": "bool"
        }
      ],
      "stateMutability": "view",
      "type": "function",
      "constant": true
    },
    {
      "inputs": [],
      "name": "IsUserOwner",
      "outputs": [
        {
          "internalType": "bool",
          "name": "",
          "type": "bool"
        }
      ],
      "stateMutability": "view",
      "type": "function",
      "constant": true
    },
    {
      "inputs": [],
      "name": "IsUserPlayer",
      "outputs": [
        {
          "internalType": "bool",
          "name": "",
          "type": "bool"
        }
      ],
      "stateMutability": "view",
      "type": "function",
      "constant": true
    },
    {
      "inputs": [],
      "name": "getTotalTicketsBought",
      "outputs": [
        {
          "internalType": "uint256",
          "name": "",
          "type": "uint256"
        }
      ],
      "stateMutability": "view",
      "type": "function",
      "constant": true
    },
    {
      "inputs": [],
      "name": "getPoolBalance",
      "outputs": [
        {
          "internalType": "uint256",
          "name": "",
          "type": "uint256"
        }
      ],
      "stateMutability": "view",
      "type": "function",
      "constant": true
    },
    {
      "inputs": [],
      "name": "getTicketPrice",
      "outputs": [
        {
          "internalType": "uint256",
          "name": "",
          "type": "uint256"
        }
      ],
      "stateMutability": "view",
      "type": "function",
      "constant": true
    },
    {
      "inputs": [],
      "name": "getPlayers",
      "outputs": [
        {
          "internalType": "address payable[]",
          "name": "",
          "type": "address[]"
        }
      ],
      "stateMutability": "view",
      "type": "function",
      "constant": true
    },
    {
      "inputs": [],
      "name": "getLotteryID",
      "outputs": [
        {
          "internalType": "uint256",
          "name": "",
          "type": "uint256"
        }
      ],
      "stateMutability": "view",
      "type": "function",
      "constant": true
    },
    {
      "inputs": [],
      "name": "getWinners",
      "outputs": [
        {
          "internalType": "address[]",
          "name": "",
          "type": "address[]"
        }
      ],
      "stateMutability": "view",
      "type": "function",
      "constant": true
    },
    {
      "inputs": [
        {
          "internalType": "uint256",
          "name": "_ticketPrice",
          "type": "uint256"
        }
      ],
      "name": "openPool",
      "outputs": [],
      "stateMutability": "nonpayable",
      "type": "function"
    },
    {
      "inputs": [
        {
          "internalType": "string",
          "name": "_name",
          "type": "string"
        },
        {
          "internalType": "uint256",
          "name": "_numberOfTicketsBought",
          "type": "uint256"
        }
      ],
      "name": "enterPool",
      "outputs": [],
      "stateMutability": "payable",
      "type": "function",
      "payable": true
    },
    {
      "inputs": [],
      "name": "drawWinner",
      "outputs": [],
      "stateMutability": "nonpayable",
      "type": "function"
    }
  ],
  "bytecode": "0x60a060405234801561001057600080fd5b50730aa92c26c95bc8971ba0de285862d9bc7fcd5ec96000806101000a81548173ffffffffffffffffffffffffffffffffffffffff021916908373ffffffffffffffffffffffffffffffffffffffff160217905550730aa92c26c95bc8971ba0de285862d9bc7fcd5ec973ffffffffffffffffffffffffffffffffffffffff1660808173ffffffffffffffffffffffffffffffffffffffff168152505060016002819055506000600481905550600060018190555060006005819055506080516123506100ef60003960008181610a12015261114101526123506000f3fe6080604052600436106101665760003560e01c8063ad190734116100d1578063df15c37e1161008a578063f71d96cb11610064578063f71d96cb14610512578063f98e6b911461054f578063fac8f19a1461058c578063fb8fed37146105a857610166565b8063df15c37e1461047f578063eaa8108f146104aa578063f3bfc1c4146104e757610166565b8063ad19073414610393578063b2185bb1146103be578063c54c7da6146103d5578063d7513c1f14610400578063dd11247e1461042b578063ddac4d011461045657610166565b80638b5b9ccc116101235780638b5b9ccc1461027f5780638da5cb5b146102aa57806396365d44146102d55780639be064c114610300578063a2fb11751461032b578063abd70aa21461036857610166565b80631209b1f61461016b5780631d54656f146101965780633a582d97146101c157806356c43f8e146101ec578063669f702c1461021757806387bb7ae014610254575b600080fd5b34801561017757600080fd5b506101806105d3565b60405161018d9190611333565b60405180910390f35b3480156101a257600080fd5b506101ab6105d9565b6040516101b89190611333565b60405180910390f35b3480156101cd57600080fd5b506101d66105e3565b6040516101e39190611369565b60405180910390f35b3480156101f857600080fd5b506102016105fa565b60405161020e9190611333565b60405180910390f35b34801561022357600080fd5b5061023e600480360381019061023991906113f6565b610604565b60405161024b91906114b3565b60405180910390f35b34801561026057600080fd5b506102696106a4565b6040516102769190611333565b60405180910390f35b34801561028b57600080fd5b506102946106ae565b6040516102a191906115a5565b60405180910390f35b3480156102b657600080fd5b506102bf61073c565b6040516102cc91906115d6565b60405180910390f35b3480156102e157600080fd5b506102ea610760565b6040516102f79190611333565b60405180910390f35b34801561030c57600080fd5b50610315610766565b6040516103229190611333565b60405180910390f35b34801561033757600080fd5b50610352600480360381019061034d919061161d565b61076c565b60405161035f91906115d6565b60405180910390f35b34801561037457600080fd5b5061037d6107ab565b60405161038a9190611333565b60405180910390f35b34801561039f57600080fd5b506103a86107b5565b6040516103b59190611369565b60405180910390f35b3480156103ca57600080fd5b506103d36107c8565b005b3480156103e157600080fd5b506103ea610b01565b6040516103f79190611333565b60405180910390f35b34801561040c57600080fd5b50610415610b07565b6040516104229190611369565b60405180910390f35b34801561043757600080fd5b50610440610bb3565b60405161044d9190611333565b60405180910390f35b34801561046257600080fd5b5061047d6004803603810190610478919061161d565b610bb9565b005b34801561048b57600080fd5b50610494610d7d565b6040516104a19190611708565b60405180910390f35b3480156104b657600080fd5b506104d160048036038101906104cc91906113f6565b610e0b565b6040516104de9190611333565b60405180910390f35b3480156104f357600080fd5b506104fc610e23565b6040516105099190611369565b60405180910390f35b34801561051e57600080fd5b506105396004803603810190610534919061161d565b610e7a565b6040516105469190611739565b60405180910390f35b34801561055b57600080fd5b506105766004803603810190610571919061161d565b610eb9565b60405161058391906115d6565b60405180910390f35b6105a660048036038101906105a19190611889565b610eec565b005b3480156105b457600080fd5b506105bd611260565b6040516105ca9190611369565b60405180910390f35b60015481565b6000600254905090565b6000600360009054906101000a900460ff16905090565b6000600454905090565b6009602052806000526040600020600091509050805461062390611914565b80601f016020809104026020016040519081016040528092919081815260200182805461064f90611914565b801561069c5780601f106106715761010080835404028352916020019161069c565b820191906000526020600020905b81548152906001019060200180831161067f57829003601f168201915b505050505081565b6000600154905090565b6060600880548060200260200160405190810160405280929190818152602001828054801561073257602002820191906000526020600020905b8160009054906101000a900473ffffffffffffffffffffffffffffffffffffffff1673ffffffffffffffffffffffffffffffffffffffff16815260200190600101908083116106e8575b5050505050905090565b60008054906101000a900473ffffffffffffffffffffffffffffffffffffffff1681565b60055481565b60025481565b6007818154811061077c57600080fd5b906000526020600020016000915054906101000a900473ffffffffffffffffffffffffffffffffffffffff1681565b6000600554905090565b600360009054906101000a900460ff1681565b60008054906101000a900473ffffffffffffffffffffffffffffffffffffffff1673ffffffffffffffffffffffffffffffffffffffff163373ffffffffffffffffffffffffffffffffffffffff1614610856576040517f08c379a000000000000000000000000000000000000000000000000000000000815260040161084d906119b7565b60405180910390fd5b6002600454101561089c576040517f08c379a000000000000000000000000000000000000000000000000000000000815260040161089390611a49565b60405180910390fd5b600360019054906101000a900460ff16156108ec576040517f08c379a00000000000000000000000000000000000000000000000000000000081526004016108e390611ab5565b60405180910390fd5b6001600360016101000a81548160ff0219169083151502179055506000600454424460405160200161091f929190611af6565b6040516020818303038152906040528051906020012060001c6109429190611b51565b90506000600b600083815260200190815260200160002060009054906101000a900473ffffffffffffffffffffffffffffffffffffffff1690506007819080600181540180825580915050600190039060005260206000200160009091909190916101000a81548173ffffffffffffffffffffffffffffffffffffffff021916908373ffffffffffffffffffffffffffffffffffffffff16021790555060006064605f6005546109f29190611bb1565b6109fc9190611bf3565b9050600081600554610a0e9190611c24565b90507f00000000000000000000000000000000000000000000000000000000000000005060006004819055506000600581905550600060018190555060026000815480929190610a5d90611c58565b9190505550600067ffffffffffffffff811115610a7d57610a7c61175e565b5b604051908082528060200260200182016040528015610aab5781602001602082028036833780820191505090505b5060089080519060200190610ac1929190611273565b507f275eaacf9e506f9c68b251c2f97cf723c4fb9a3b94e42a1dfb581543c135f0c08383604051610af3929190611ca0565b60405180910390a150505050565b60065481565b600080600090505b600880549050811015610baa573373ffffffffffffffffffffffffffffffffffffffff1660088281548110610b4757610b46611cc9565b5b9060005260206000200160009054906101000a900473ffffffffffffffffffffffffffffffffffffffff1673ffffffffffffffffffffffffffffffffffffffff1603610b97576001915050610bb0565b8080610ba290611c58565b915050610b0f565b50600090505b90565b60045481565b60008054906101000a900473ffffffffffffffffffffffffffffffffffffffff1673ffffffffffffffffffffffffffffffffffffffff163373ffffffffffffffffffffffffffffffffffffffff1614610c47576040517f08c379a0000000000000000000000000000000000000000000000000000000008152600401610c3e906119b7565b60405180910390fd5b600360009054906101000a900460ff1615610c97576040517f08c379a0000000000000000000000000000000000000000000000000000000008152600401610c8e90611d44565b60405180910390fd5b600060015411610cdc576040517f08c379a0000000000000000000000000000000000000000000000000000000008152600401610cd390611db0565b60405180910390fd5b60008111610d1f576040517f08c379a0000000000000000000000000000000000000000000000000000000008152600401610d1690611e42565b60405180910390fd5b6001600360006101000a81548160ff021916908315150217905550806001819055507fdf5eab7aafa65f032281e56b9400db3c1d50c6a02c1c56cf936eb79e5748a9ab600154604051610d729190611333565b60405180910390a150565b60606007805480602002602001604051908101604052809291908181526020018280548015610e0157602002820191906000526020600020905b8160009054906101000a900473ffffffffffffffffffffffffffffffffffffffff1673ffffffffffffffffffffffffffffffffffffffff1681526020019060010190808311610db7575b5050505050905090565b600a6020528060005260406000206000915090505481565b60008060009054906101000a900473ffffffffffffffffffffffffffffffffffffffff1673ffffffffffffffffffffffffffffffffffffffff163373ffffffffffffffffffffffffffffffffffffffff1614905090565b60088181548110610e8a57600080fd5b906000526020600020016000915054906101000a900473ffffffffffffffffffffffffffffffffffffffff1681565b600b6020528060005260406000206000915054906101000a900473ffffffffffffffffffffffffffffffffffffffff1681565b600360009054906101000a900460ff16610f3b576040517f08c379a0000000000000000000000000000000000000000000000000000000008152600401610f3290611eae565b60405180910390fd5b60008111610f7e576040517f08c379a0000000000000000000000000000000000000000000000000000000008152600401610f7590611f40565b60405180910390fd5b6008339080600181540180825580915050600190039060005260206000200160009091909190916101000a81548173ffffffffffffffffffffffffffffffffffffffff021916908373ffffffffffffffffffffffffffffffffffffffff16021790555081600960003373ffffffffffffffffffffffffffffffffffffffff1673ffffffffffffffffffffffffffffffffffffffff168152602001908152602001600020908161102d919061210c565b5080600a60003373ffffffffffffffffffffffffffffffffffffffff1673ffffffffffffffffffffffffffffffffffffffff1681526020019081526020016000208190555060005b818110156110fc5733600b6000600654815260200190815260200160002060006101000a81548173ffffffffffffffffffffffffffffffffffffffff021916908373ffffffffffffffffffffffffffffffffffffffff160217905550600660008154809291906110e490611c58565b919050555080806110f490611c58565b915050611075565b50806004600082825461110f91906121de565b92505081905550600154816111249190611bb1565b6005600082825461113591906121de565b925050819055506000807f000000000000000000000000000000000000000000000000000000000000000073ffffffffffffffffffffffffffffffffffffffff163460405161118390612243565b60006040518083038185875af1925050503d80600081146111c0576040519150601f19603f3d011682016040523d82523d6000602084013e6111c5565b606091505b50915091508161120a576040517f08c379a0000000000000000000000000000000000000000000000000000000008152600401611201906122ca565b60405180910390fd5b3373ffffffffffffffffffffffffffffffffffffffff167f7ff7c851576b0a6ac24d00f3be32aa3aeb04c2c9e69084f75a7b241ed80aaecc85856040516112529291906122ea565b60405180910390a250505050565b600360019054906101000a900460ff1681565b8280548282559060005260206000209081019282156112ec579160200282015b828111156112eb5782518260006101000a81548173ffffffffffffffffffffffffffffffffffffffff021916908373ffffffffffffffffffffffffffffffffffffffff16021790555091602001919060010190611293565b5b5090506112f991906112fd565b5090565b5b808211156113165760008160009055506001016112fe565b5090565b6000819050919050565b61132d8161131a565b82525050565b60006020820190506113486000830184611324565b92915050565b60008115159050919050565b6113638161134e565b82525050565b600060208201905061137e600083018461135a565b92915050565b6000604051905090565b600080fd5b600080fd5b600073ffffffffffffffffffffffffffffffffffffffff82169050919050565b60006113c382611398565b9050919050565b6113d3816113b8565b81146113de57600080fd5b50565b6000813590506113f0816113ca565b92915050565b60006020828403121561140c5761140b61138e565b5b600061141a848285016113e1565b91505092915050565b600081519050919050565b600082825260208201905092915050565b60005b8381101561145d578082015181840152602081019050611442565b60008484015250505050565b6000601f19601f8301169050919050565b600061148582611423565b61148f818561142e565b935061149f81856020860161143f565b6114a881611469565b840191505092915050565b600060208201905081810360008301526114cd818461147a565b905092915050565b600081519050919050565b600082825260208201905092915050565b6000819050602082019050919050565b600061150c82611398565b9050919050565b61151c81611501565b82525050565b600061152e8383611513565b60208301905092915050565b6000602082019050919050565b6000611552826114d5565b61155c81856114e0565b9350611567836114f1565b8060005b8381101561159857815161157f8882611522565b975061158a8361153a565b92505060018101905061156b565b5085935050505092915050565b600060208201905081810360008301526115bf8184611547565b905092915050565b6115d0816113b8565b82525050565b60006020820190506115eb60008301846115c7565b92915050565b6115fa8161131a565b811461160557600080fd5b50565b600081359050611617816115f1565b92915050565b6000602082840312156116335761163261138e565b5b600061164184828501611608565b91505092915050565b600081519050919050565b600082825260208201905092915050565b6000819050602082019050919050565b61167f816113b8565b82525050565b60006116918383611676565b60208301905092915050565b6000602082019050919050565b60006116b58261164a565b6116bf8185611655565b93506116ca83611666565b8060005b838110156116fb5781516116e28882611685565b97506116ed8361169d565b9250506001810190506116ce565b5085935050505092915050565b6000602082019050818103600083015261172281846116aa565b905092915050565b61173381611501565b82525050565b600060208201905061174e600083018461172a565b92915050565b600080fd5b600080fd5b7f4e487b7100000000000000000000000000000000000000000000000000000000600052604160045260246000fd5b61179682611469565b810181811067ffffffffffffffff821117156117b5576117b461175e565b5b80604052505050565b60006117c8611384565b90506117d4828261178d565b919050565b600067ffffffffffffffff8211156117f4576117f361175e565b5b6117fd82611469565b9050602081019050919050565b82818337600083830152505050565b600061182c611827846117d9565b6117be565b90508281526020810184848401111561184857611847611759565b5b61185384828561180a565b509392505050565b600082601f8301126118705761186f611754565b5b8135611880848260208601611819565b91505092915050565b600080604083850312156118a05761189f61138e565b5b600083013567ffffffffffffffff8111156118be576118bd611393565b5b6118ca8582860161185b565b92505060206118db85828601611608565b9150509250929050565b7f4e487b7100000000000000000000000000000000000000000000000000000000600052602260045260246000fd5b6000600282049050600182168061192c57607f821691505b60208210810361193f5761193e6118e5565b5b50919050565b7f4f6e6c792074686520636f6e7472616374206f776e65722063616e2063616c6c60008201527f20746869732066756e6374696f6e2e0000000000000000000000000000000000602082015250565b60006119a1602f8361142e565b91506119ac82611945565b604082019050919050565b600060208201905081810360008301526119d081611994565b9050919050565b7f43616e6e6f74206472617720612077696e6e65722077697468206c657373207460008201527f68616e203220706c61796572732e000000000000000000000000000000000000602082015250565b6000611a33602e8361142e565b9150611a3e826119d7565b604082019050919050565b60006020820190508181036000830152611a6281611a26565b9050919050565b7f57696e6e657220616c726561647920647261776e000000000000000000000000600082015250565b6000611a9f60148361142e565b9150611aaa82611a69565b602082019050919050565b60006020820190508181036000830152611ace81611a92565b9050919050565b6000819050919050565b611af0611aeb8261131a565b611ad5565b82525050565b6000611b028285611adf565b602082019150611b128284611adf565b6020820191508190509392505050565b7f4e487b7100000000000000000000000000000000000000000000000000000000600052601260045260246000fd5b6000611b5c8261131a565b9150611b678361131a565b925082611b7757611b76611b22565b5b828206905092915050565b7f4e487b7100000000000000000000000000000000000000000000000000000000600052601160045260246000fd5b6000611bbc8261131a565b9150611bc78361131a565b9250828202611bd58161131a565b91508282048414831517611bec57611beb611b82565b5b5092915050565b6000611bfe8261131a565b9150611c098361131a565b925082611c1957611c18611b22565b5b828204905092915050565b6000611c2f8261131a565b9150611c3a8361131a565b9250828203905081811115611c5257611c51611b82565b5b92915050565b6000611c638261131a565b91507fffffffffffffffffffffffffffffffffffffffffffffffffffffffffffffffff8203611c9557611c94611b82565b5b600182019050919050565b6000604082019050611cb560008301856115c7565b611cc26020830184611324565b9392505050565b7f4e487b7100000000000000000000000000000000000000000000000000000000600052603260045260246000fd5b7f4c6f747465727920706f6f6c20697320616c7265616479206f70656e2e000000600082015250565b6000611d2e601d8361142e565b9150611d3982611cf8565b602082019050919050565b60006020820190508181036000830152611d5d81611d21565b9050919050565b7f5469636b6574207072696365206d757374206265207365742e00000000000000600082015250565b6000611d9a60198361142e565b9150611da582611d64565b602082019050919050565b60006020820190508181036000830152611dc981611d8d565b9050919050565b7f5469636b6574207072696365206d75737420626520677265617465722074686160008201527f6e20302e00000000000000000000000000000000000000000000000000000000602082015250565b6000611e2c60248361142e565b9150611e3782611dd0565b604082019050919050565b60006020820190508181036000830152611e5b81611e1f565b9050919050565b7f4c6f747465727920706f6f6c206973206e6f7420796574206f70656e2e000000600082015250565b6000611e98601d8361142e565b9150611ea382611e62565b602082019050919050565b60006020820190508181036000830152611ec781611e8b565b9050919050565b7f4e756d626572206f66207469636b65747320626f756768742073686f756c642060008201527f62652067726561746572207468616e2030000000000000000000000000000000602082015250565b6000611f2a60318361142e565b9150611f3582611ece565b604082019050919050565b60006020820190508181036000830152611f5981611f1d565b9050919050565b60008190508160005260206000209050919050565b60006020601f8301049050919050565b600082821b905092915050565b600060088302611fc27fffffffffffffffffffffffffffffffffffffffffffffffffffffffffffffffff82611f85565b611fcc8683611f85565b95508019841693508086168417925050509392505050565b6000819050919050565b6000612009612004611fff8461131a565b611fe4565b61131a565b9050919050565b6000819050919050565b61202383611fee565b61203761202f82612010565b848454611f92565b825550505050565b600090565b61204c61203f565b61205781848461201a565b505050565b5b8181101561207b57612070600082612044565b60018101905061205d565b5050565b601f8211156120c05761209181611f60565b61209a84611f75565b810160208510156120a9578190505b6120bd6120b585611f75565b83018261205c565b50505b505050565b600082821c905092915050565b60006120e3600019846008026120c5565b1980831691505092915050565b60006120fc83836120d2565b9150826002028217905092915050565b61211582611423565b67ffffffffffffffff81111561212e5761212d61175e565b5b6121388254611914565b61214382828561207f565b600060209050601f8311600181146121765760008415612164578287015190505b61216e85826120f0565b8655506121d6565b601f19841661218486611f60565b60005b828110156121ac57848901518255600182019150602085019450602081019050612187565b868310156121c957848901516121c5601f8916826120d2565b8355505b6001600288020188555050505b505050505050565b60006121e98261131a565b91506121f48361131a565b925082820190508082111561220c5761220b611b82565b5b92915050565b600081905092915050565b50565b600061222d600083612212565b91506122388261221d565b600082019050919050565b600061224e82612220565b9150819050919050565b7f4661696c656420746f2073656e6420457468657220746f20636f6e747261637460008201527f206f776e65720000000000000000000000000000000000000000000000000000602082015250565b60006122b460268361142e565b91506122bf82612258565b604082019050919050565b600060208201905081810360008301526122e3816122a7565b9050919050565b60006040820190508181036000830152612304818561147a565b90506123136020830184611324565b939250505056fea2646970667358221220802d8e9c3c950f9fd88e2cab4c993a665aac1ebadc320ea5825c7e90665cd1e764736f6c63430008130033",
  "immutableReferences": {
    "3": [
      {
        "length": 32,
        "start": 2578
      },
      {
        "length": 32,
        "start": 4417
      }
    ]
  },
  "source": "// SPDX-License-Identifier: MIT\r\npragma solidity ^0.8.18;\r\n\r\n//import \"@/SafeMath.sol\";\r\n\r\ncontract Lottery {\r\n    //using SafeMath for uint256;\r\n\r\n    // State variables\r\n    address immutable CONTRACT_OWNER;\r\n    address public owner;\r\n    uint256 public ticketPrice;\r\n    uint public lotteryID;\r\n    bool public isPoolOpen;\r\n    bool public isWinnerDrawn;\r\n    uint256 public totalTickets;\r\n    uint256 public poolBalance;\r\n    uint256 public ticketNumber;\r\n\r\n    address[] public winners;\r\n    address payable[] public players;\r\n    mapping(address => string) public playerName;\r\n    mapping(address => uint256) public playerTickets;\r\n    mapping(uint256 => address) public ticketToPlayer;\r\n\r\n    // Events\r\n    event PoolOpened(uint256 ticketPrice);\r\n    event PlayerAdded(address indexed playerAddress, string name, uint256 numberOfTicketsBought);\r\n    event LotteryWinner(address winner, uint256 prize);\r\n    event LotteryLoser(address loser);\r\n\r\n    // Constructor\r\n    constructor(){\r\n        owner = 0x0Aa92C26C95Bc8971ba0dE285862D9Bc7FCd5EC9;\r\n        CONTRACT_OWNER = 0x0Aa92C26C95Bc8971ba0dE285862D9Bc7FCd5EC9;\r\n        lotteryID = 1;\r\n        totalTickets = 0;\r\n        ticketPrice = 0;\r\n        poolBalance = 0;\r\n    }\r\n\r\n    // Modifier to allow only owner to call certain functions\r\n    modifier onlyOwner{\r\n        require(msg.sender == owner, \"Only the contract owner can call this function.\");\r\n        _;\r\n    }\r\n\r\n    //========== GETTERS ==========//\r\n    function IsPoolOpen() public view returns (bool) {\r\n        return isPoolOpen;\r\n    }\r\n\r\n    function IsUserOwner() public view returns (bool) {\r\n        return msg.sender == owner;\r\n    }\r\n\r\n    function IsUserPlayer() public view returns (bool) {\r\n        for (uint i = 0; i < players.length; i++) {\r\n            if (players[i] == msg.sender) {\r\n                return true;\r\n            }\r\n        }\r\n        return false;\r\n    }\r\n\r\n    // Get the total number of tickets bought by players\r\n    function getTotalTicketsBought() public view returns (uint256) {\r\n        return totalTickets;\r\n    }\r\n\r\n    // Get the current balance of the lottery pool\r\n    function getPoolBalance() public view returns (uint256) {\r\n        return poolBalance;\r\n    }\r\n\r\n    function getTicketPrice() public view returns (uint256) {\r\n        return ticketPrice;\r\n    }\r\n\r\n    function getPlayers() public view returns (address payable[] memory) {\r\n        return players;\r\n    }\r\n\r\n    function getLotteryID() public view returns(uint) {\r\n        return lotteryID;\r\n    }\r\n\r\n      function getWinners() public view returns (address[] memory){\r\n        return winners;\r\n    }\r\n\r\n    \r\n    //========== SETTERS ==========//\r\n\r\n    // Open the lottery pool\r\n    function openPool(uint256 _ticketPrice) public onlyOwner {\r\n        require(!isPoolOpen, \"Lottery pool is already open.\");\r\n        require(ticketPrice > 0, \"Ticket price must be set.\");\r\n        require(_ticketPrice > 0, \"Ticket price must be greater than 0.\");\r\n        isPoolOpen = true;\r\n        ticketPrice = _ticketPrice;\r\n        emit PoolOpened(ticketPrice);\r\n    }\r\n\r\n    //========== METHODS ==========//\r\n    // Add a player to the lottery pool\r\n    function enterPool(string memory _name, uint256 _numberOfTicketsBought) public payable {\r\n        require(isPoolOpen, \"Lottery pool is not yet open.\");\r\n        require(_numberOfTicketsBought > 0, \"Number of tickets bought should be greater than 0\");\r\n\r\n        players.push(payable(msg.sender));\r\n        playerName[msg.sender] = _name;\r\n        playerTickets[msg.sender] = _numberOfTicketsBought;\r\n        for (uint256 i = 0; i < _numberOfTicketsBought; i++) {\r\n            ticketToPlayer[ticketNumber] = msg.sender;\r\n            ticketNumber++;\r\n        }\r\n\r\n        totalTickets += _numberOfTicketsBought;\r\n        poolBalance += _numberOfTicketsBought * (ticketPrice);\r\n\r\n        (bool sent, bytes memory data2) = CONTRACT_OWNER.call{value: msg.value}(\"\");\r\n        require(sent, \"Failed to send Ether to contract owner\");\r\n\r\n        emit PlayerAdded(msg.sender, _name, _numberOfTicketsBought);\r\n    }\r\n\r\n    function drawWinner() public onlyOwner {\r\n        require(totalTickets >= 2, \"Cannot draw a winner with less than 2 players.\");\r\n        require(!isWinnerDrawn, \"Winner already drawn\");\r\n        isWinnerDrawn = true;\r\n        \r\n        // Calculate the winning amount and transfer it to the winner and the owner\r\n        uint256 winningTicket = uint256(keccak256(abi.encodePacked(block.timestamp, block.prevrandao))) % totalTickets;\r\n        address winner = payable(ticketToPlayer[winningTicket]);\r\n        winners.push(winner);\r\n        uint256 amountWon = poolBalance * 95 / 100;\r\n        uint256 ownerFee = poolBalance - amountWon;\r\n        \r\n        winner.call{value: amountWon};\r\n        CONTRACT_OWNER.call{value: ownerFee};\r\n\r\n\r\n        // Reset the lottery pool for the next round\r\n        totalTickets = 0;\r\n        poolBalance = 0;\r\n        ticketPrice = 0;\r\n        lotteryID++;\r\n\r\n        players = new address payable[](0);\r\n\r\n        // Emit an event with the winner and the winning amount\r\n        emit LotteryWinner(winner, amountWon);\r\n    }\r\n}",
  "sourcePath": "c:\\Users\\henri\\Documents\\COLE\\BACC INFO\\H2023\\Aspects pratiques de la chanes de blocs\\TP3\\IFT4100_TP3\\ift-4100-lottery-dapp\\backend\\contracts\\Lottery.sol",
  "compiler": {
    "name": "solc",
    "version": "0.8.19+commit.7dd6d404.Emscripten.clang"
  },
  "schemaVersion": "3.4.13",
  "updatedAt": "2023-04-07T17:16:57.876Z",
  "networkType": "ethereum",
  "devdoc": {
    "kind": "dev",
    "methods": {},
    "version": 1
  },
  "userdoc": {
    "kind": "user",
    "methods": {},
    "version": 1
  }
}