{
  "contractName": "Lottery",
  "abi": [
    {
      "inputs": [],
      "stateMutability": "nonpayable",
      "type": "constructor"
    },
    {
      "anonymous": false,
      "inputs": [
        {
          "indexed": false,
          "internalType": "address",
          "name": "loser",
          "type": "address"
        }
      ],
      "name": "LotteryLoser",
      "type": "event"
    },
    {
      "anonymous": false,
      "inputs": [
        {
          "indexed": false,
          "internalType": "address",
          "name": "winner",
          "type": "address"
        },
        {
          "indexed": false,
          "internalType": "uint256",
          "name": "prize",
          "type": "uint256"
        }
      ],
      "name": "LotteryWinner",
      "type": "event"
    },
    {
      "anonymous": false,
      "inputs": [
        {
          "indexed": true,
          "internalType": "address",
          "name": "playerAddress",
          "type": "address"
        },
        {
          "indexed": false,
          "internalType": "string",
          "name": "name",
          "type": "string"
        },
        {
          "indexed": false,
          "internalType": "uint256",
          "name": "numberOfTicketsBought",
          "type": "uint256"
        }
      ],
      "name": "PlayerAdded",
      "type": "event"
    },
    {
      "anonymous": false,
      "inputs": [
        {
          "indexed": false,
          "internalType": "uint256",
          "name": "ticketPrice",
          "type": "uint256"
        }
      ],
      "name": "PoolOpened",
      "type": "event"
    },
    {
      "inputs": [],
      "name": "isPoolOpen",
      "outputs": [
        {
          "internalType": "bool",
          "name": "",
          "type": "bool"
        }
      ],
      "stateMutability": "view",
      "type": "function",
      "constant": true
    },
    {
      "inputs": [],
      "name": "isWinnerDrawn",
      "outputs": [
        {
          "internalType": "bool",
          "name": "",
          "type": "bool"
        }
      ],
      "stateMutability": "view",
      "type": "function",
      "constant": true
    },
    {
      "inputs": [],
      "name": "lotteryID",
      "outputs": [
        {
          "internalType": "uint256",
          "name": "",
          "type": "uint256"
        }
      ],
      "stateMutability": "view",
      "type": "function",
      "constant": true
    },
    {
      "inputs": [],
      "name": "owner",
      "outputs": [
        {
          "internalType": "address",
          "name": "",
          "type": "address"
        }
      ],
      "stateMutability": "view",
      "type": "function",
      "constant": true
    },
    {
      "inputs": [
        {
          "internalType": "address",
          "name": "",
          "type": "address"
        }
      ],
      "name": "playerName",
      "outputs": [
        {
          "internalType": "string",
          "name": "",
          "type": "string"
        }
      ],
      "stateMutability": "view",
      "type": "function",
      "constant": true
    },
    {
      "inputs": [
        {
          "internalType": "address",
          "name": "",
          "type": "address"
        }
      ],
      "name": "playerTickets",
      "outputs": [
        {
          "internalType": "uint256",
          "name": "",
          "type": "uint256"
        }
      ],
      "stateMutability": "view",
      "type": "function",
      "constant": true
    },
    {
      "inputs": [
        {
          "internalType": "uint256",
          "name": "",
          "type": "uint256"
        }
      ],
      "name": "players",
      "outputs": [
        {
          "internalType": "address payable",
          "name": "",
          "type": "address"
        }
      ],
      "stateMutability": "view",
      "type": "function",
      "constant": true
    },
    {
      "inputs": [],
      "name": "poolBalance",
      "outputs": [
        {
          "internalType": "uint256",
          "name": "",
          "type": "uint256"
        }
      ],
      "stateMutability": "view",
      "type": "function",
      "constant": true
    },
    {
      "inputs": [],
      "name": "ticketNumber",
      "outputs": [
        {
          "internalType": "uint256",
          "name": "",
          "type": "uint256"
        }
      ],
      "stateMutability": "view",
      "type": "function",
      "constant": true
    },
    {
      "inputs": [],
      "name": "ticketPrice",
      "outputs": [
        {
          "internalType": "uint256",
          "name": "",
          "type": "uint256"
        }
      ],
      "stateMutability": "view",
      "type": "function",
      "constant": true
    },
    {
      "inputs": [
        {
          "internalType": "uint256",
          "name": "",
          "type": "uint256"
        }
      ],
      "name": "ticketToPlayer",
      "outputs": [
        {
          "internalType": "address",
          "name": "",
          "type": "address"
        }
      ],
      "stateMutability": "view",
      "type": "function",
      "constant": true
    },
    {
      "inputs": [],
      "name": "totalTickets",
      "outputs": [
        {
          "internalType": "uint256",
          "name": "",
          "type": "uint256"
        }
      ],
      "stateMutability": "view",
      "type": "function",
      "constant": true
    },
    {
      "inputs": [
        {
          "internalType": "uint256",
          "name": "",
          "type": "uint256"
        }
      ],
      "name": "winners",
      "outputs": [
        {
          "internalType": "address",
          "name": "",
          "type": "address"
        }
      ],
      "stateMutability": "view",
      "type": "function",
      "constant": true
    },
    {
      "inputs": [],
      "name": "IsPoolOpen",
      "outputs": [
        {
          "internalType": "bool",
          "name": "",
          "type": "bool"
        }
      ],
      "stateMutability": "view",
      "type": "function",
      "constant": true
    },
    {
      "inputs": [],
      "name": "IsUserOwner",
      "outputs": [
        {
          "internalType": "bool",
          "name": "",
          "type": "bool"
        }
      ],
      "stateMutability": "view",
      "type": "function",
      "constant": true
    },
    {
      "inputs": [],
      "name": "IsUserPlayer",
      "outputs": [
        {
          "internalType": "bool",
          "name": "",
          "type": "bool"
        }
      ],
      "stateMutability": "view",
      "type": "function",
      "constant": true
    },
    {
      "inputs": [],
      "name": "getTotalTicketsBought",
      "outputs": [
        {
          "internalType": "uint256",
          "name": "",
          "type": "uint256"
        }
      ],
      "stateMutability": "view",
      "type": "function",
      "constant": true
    },
    {
      "inputs": [],
      "name": "getPoolBalance",
      "outputs": [
        {
          "internalType": "uint256",
          "name": "",
          "type": "uint256"
        }
      ],
      "stateMutability": "view",
      "type": "function",
      "constant": true
    },
    {
      "inputs": [],
      "name": "getTicketPrice",
      "outputs": [
        {
          "internalType": "uint256",
          "name": "",
          "type": "uint256"
        }
      ],
      "stateMutability": "view",
      "type": "function",
      "constant": true
    },
    {
      "inputs": [],
      "name": "getPlayers",
      "outputs": [
        {
          "internalType": "address payable[]",
          "name": "",
          "type": "address[]"
        }
      ],
      "stateMutability": "view",
      "type": "function",
      "constant": true
    },
    {
      "inputs": [],
      "name": "getLotteryID",
      "outputs": [
        {
          "internalType": "uint256",
          "name": "",
          "type": "uint256"
        }
      ],
      "stateMutability": "view",
      "type": "function",
      "constant": true
    },
    {
      "inputs": [],
      "name": "getWinners",
      "outputs": [
        {
          "internalType": "address[]",
          "name": "",
          "type": "address[]"
        }
      ],
      "stateMutability": "view",
      "type": "function",
      "constant": true
    },
    {
      "inputs": [],
      "name": "openPool",
      "outputs": [],
      "stateMutability": "nonpayable",
      "type": "function"
    },
    {
      "inputs": [
        {
          "internalType": "uint256",
          "name": "_ticketPrice",
          "type": "uint256"
        }
      ],
      "name": "setTicketPrice",
      "outputs": [],
      "stateMutability": "nonpayable",
      "type": "function"
    },
    {
      "inputs": [
        {
          "internalType": "string",
          "name": "_name",
          "type": "string"
        },
        {
          "internalType": "uint256",
          "name": "_numberOfTicketsBought",
          "type": "uint256"
        }
      ],
      "name": "enterPool",
      "outputs": [],
      "stateMutability": "payable",
      "type": "function",
      "payable": true
    },
    {
      "inputs": [],
      "name": "drawWinner",
      "outputs": [],
      "stateMutability": "nonpayable",
      "type": "function"
    }
  ],
  "bytecode": "0x60a060405234801561001057600080fd5b5073c08b979c0ea987ae5c6d9a9361379224cbe85c286000806101000a81548173ffffffffffffffffffffffffffffffffffffffff021916908373ffffffffffffffffffffffffffffffffffffffff16021790555073c08b979c0ea987ae5c6d9a9361379224cbe85c2873ffffffffffffffffffffffffffffffffffffffff1660808173ffffffffffffffffffffffffffffffffffffffff1681525050600060028190555060006004819055506000600181905550600060058190555060805161240a6100ef60003960008181610b6f01526111fb015261240a6000f3fe6080604052600436106101815760003560e01c8063ad190734116100d1578063eaa8108f1161008a578063f71d96cb11610064578063f71d96cb14610544578063f98e6b9114610581578063fac8f19a146105be578063fb8fed37146105da57610181565b8063eaa8108f146104c5578063eb5797a414610502578063f3bfc1c41461051957610181565b8063ad190734146103d7578063b2185bb114610402578063c54c7da614610419578063d7513c1f14610444578063dd11247e1461046f578063df15c37e1461049a57610181565b806387bb7ae01161013e57806396365d441161011857806396365d44146103195780639be064c114610344578063a2fb11751461036f578063abd70aa2146103ac57610181565b806387bb7ae0146102985780638b5b9ccc146102c35780638da5cb5b146102ee57610181565b80631209b1f61461018657806315981650146101b15780631d54656f146101da5780633a582d971461020557806356c43f8e14610230578063669f702c1461025b575b600080fd5b34801561019257600080fd5b5061019b610605565b6040516101a891906113ed565b60405180910390f35b3480156101bd57600080fd5b506101d860048036038101906101d39190611448565b61060b565b005b3480156101e657600080fd5b506101ef610736565b6040516101fc91906113ed565b60405180910390f35b34801561021157600080fd5b5061021a610740565b6040516102279190611490565b60405180910390f35b34801561023c57600080fd5b50610245610757565b60405161025291906113ed565b60405180910390f35b34801561026757600080fd5b50610282600480360381019061027d9190611509565b610761565b60405161028f91906115c6565b60405180910390f35b3480156102a457600080fd5b506102ad610801565b6040516102ba91906113ed565b60405180910390f35b3480156102cf57600080fd5b506102d861080b565b6040516102e591906116b8565b60405180910390f35b3480156102fa57600080fd5b50610303610899565b60405161031091906116e9565b60405180910390f35b34801561032557600080fd5b5061032e6108bd565b60405161033b91906113ed565b60405180910390f35b34801561035057600080fd5b506103596108c3565b60405161036691906113ed565b60405180910390f35b34801561037b57600080fd5b5061039660048036038101906103919190611448565b6108c9565b6040516103a391906116e9565b60405180910390f35b3480156103b857600080fd5b506103c1610908565b6040516103ce91906113ed565b60405180910390f35b3480156103e357600080fd5b506103ec610912565b6040516103f99190611490565b60405180910390f35b34801561040e57600080fd5b50610417610925565b005b34801561042557600080fd5b5061042e610c56565b60405161043b91906113ed565b60405180910390f35b34801561045057600080fd5b50610459610c5c565b6040516104669190611490565b60405180910390f35b34801561047b57600080fd5b50610484610d08565b60405161049191906113ed565b60405180910390f35b3480156104a657600080fd5b506104af610d0e565b6040516104bc91906117c2565b60405180910390f35b3480156104d157600080fd5b506104ec60048036038101906104e79190611509565b610d9c565b6040516104f991906113ed565b60405180910390f35b34801561050e57600080fd5b50610517610db4565b005b34801561052557600080fd5b5061052e610edd565b60405161053b9190611490565b60405180910390f35b34801561055057600080fd5b5061056b60048036038101906105669190611448565b610f34565b60405161057891906117f3565b60405180910390f35b34801561058d57600080fd5b506105a860048036038101906105a39190611448565b610f73565b6040516105b591906116e9565b60405180910390f35b6105d860048036038101906105d39190611943565b610fa6565b005b3480156105e657600080fd5b506105ef61131a565b6040516105fc9190611490565b60405180910390f35b60015481565b60008054906101000a900473ffffffffffffffffffffffffffffffffffffffff1673ffffffffffffffffffffffffffffffffffffffff163373ffffffffffffffffffffffffffffffffffffffff1614610699576040517f08c379a000000000000000000000000000000000000000000000000000000000815260040161069090611a11565b60405180910390fd5b600360009054906101000a900460ff16156106e9576040517f08c379a00000000000000000000000000000000000000000000000000000000081526004016106e090611a7d565b60405180910390fd5b6000811161072c576040517f08c379a000000000000000000000000000000000000000000000000000000000815260040161072390611b0f565b60405180910390fd5b8060018190555050565b6000600254905090565b6000600360009054906101000a900460ff16905090565b6000600454905090565b6009602052806000526040600020600091509050805461078090611b5e565b80601f01602080910402602001604051908101604052809291908181526020018280546107ac90611b5e565b80156107f95780601f106107ce576101008083540402835291602001916107f9565b820191906000526020600020905b8154815290600101906020018083116107dc57829003601f168201915b505050505081565b6000600154905090565b6060600880548060200260200160405190810160405280929190818152602001828054801561088f57602002820191906000526020600020905b8160009054906101000a900473ffffffffffffffffffffffffffffffffffffffff1673ffffffffffffffffffffffffffffffffffffffff1681526020019060010190808311610845575b5050505050905090565b60008054906101000a900473ffffffffffffffffffffffffffffffffffffffff1681565b60055481565b60025481565b600781815481106108d957600080fd5b906000526020600020016000915054906101000a900473ffffffffffffffffffffffffffffffffffffffff1681565b6000600554905090565b600360009054906101000a900460ff1681565b60008054906101000a900473ffffffffffffffffffffffffffffffffffffffff1673ffffffffffffffffffffffffffffffffffffffff163373ffffffffffffffffffffffffffffffffffffffff16146109b3576040517f08c379a00000000000000000000000000000000000000000000000000000000081526004016109aa90611a11565b60405180910390fd5b600260045410156109f9576040517f08c379a00000000000000000000000000000000000000000000000000000000081526004016109f090611c01565b60405180910390fd5b600360019054906101000a900460ff1615610a49576040517f08c379a0000000000000000000000000000000000000000000000000000000008152600401610a4090611c6d565b60405180910390fd5b6001600360016101000a81548160ff02191690831515021790555060006004544244604051602001610a7c929190611cae565b6040516020818303038152906040528051906020012060001c610a9f9190611d09565b90506000600b600083815260200190815260200160002060009054906101000a900473ffffffffffffffffffffffffffffffffffffffff1690506007819080600181540180825580915050600190039060005260206000200160009091909190916101000a81548173ffffffffffffffffffffffffffffffffffffffff021916908373ffffffffffffffffffffffffffffffffffffffff16021790555060006064605f600554610b4f9190611d69565b610b599190611dab565b9050600081600554610b6b9190611ddc565b90507f0000000000000000000000000000000000000000000000000000000000000000506000600481905550600060058190555060026000815480929190610bb290611e10565b9190505550600067ffffffffffffffff811115610bd257610bd1611818565b5b604051908082528060200260200182016040528015610c005781602001602082028036833780820191505090505b5060089080519060200190610c1692919061132d565b507f275eaacf9e506f9c68b251c2f97cf723c4fb9a3b94e42a1dfb581543c135f0c08383604051610c48929190611e58565b60405180910390a150505050565b60065481565b600080600090505b600880549050811015610cff573373ffffffffffffffffffffffffffffffffffffffff1660088281548110610c9c57610c9b611e81565b5b9060005260206000200160009054906101000a900473ffffffffffffffffffffffffffffffffffffffff1673ffffffffffffffffffffffffffffffffffffffff1603610cec576001915050610d05565b8080610cf790611e10565b915050610c64565b50600090505b90565b60045481565b60606007805480602002602001604051908101604052809291908181526020018280548015610d9257602002820191906000526020600020905b8160009054906101000a900473ffffffffffffffffffffffffffffffffffffffff1673ffffffffffffffffffffffffffffffffffffffff1681526020019060010190808311610d48575b5050505050905090565b600a6020528060005260406000206000915090505481565b60008054906101000a900473ffffffffffffffffffffffffffffffffffffffff1673ffffffffffffffffffffffffffffffffffffffff163373ffffffffffffffffffffffffffffffffffffffff1614610e42576040517f08c379a0000000000000000000000000000000000000000000000000000000008152600401610e3990611a11565b60405180910390fd5b600060015411610e87576040517f08c379a0000000000000000000000000000000000000000000000000000000008152600401610e7e90611efc565b60405180910390fd5b6001600360006101000a81548160ff0219169083151502179055507fdf5eab7aafa65f032281e56b9400db3c1d50c6a02c1c56cf936eb79e5748a9ab600154604051610ed391906113ed565b60405180910390a1565b60008060009054906101000a900473ffffffffffffffffffffffffffffffffffffffff1673ffffffffffffffffffffffffffffffffffffffff163373ffffffffffffffffffffffffffffffffffffffff1614905090565b60088181548110610f4457600080fd5b906000526020600020016000915054906101000a900473ffffffffffffffffffffffffffffffffffffffff1681565b600b6020528060005260406000206000915054906101000a900473ffffffffffffffffffffffffffffffffffffffff1681565b600360009054906101000a900460ff16610ff5576040517f08c379a0000000000000000000000000000000000000000000000000000000008152600401610fec90611f68565b60405180910390fd5b60008111611038576040517f08c379a000000000000000000000000000000000000000000000000000000000815260040161102f90611ffa565b60405180910390fd5b6008339080600181540180825580915050600190039060005260206000200160009091909190916101000a81548173ffffffffffffffffffffffffffffffffffffffff021916908373ffffffffffffffffffffffffffffffffffffffff16021790555081600960003373ffffffffffffffffffffffffffffffffffffffff1673ffffffffffffffffffffffffffffffffffffffff16815260200190815260200160002090816110e791906121c6565b5080600a60003373ffffffffffffffffffffffffffffffffffffffff1673ffffffffffffffffffffffffffffffffffffffff1681526020019081526020016000208190555060005b818110156111b65733600b6000600654815260200190815260200160002060006101000a81548173ffffffffffffffffffffffffffffffffffffffff021916908373ffffffffffffffffffffffffffffffffffffffff1602179055506006600081548092919061119e90611e10565b919050555080806111ae90611e10565b91505061112f565b5080600460008282546111c99190612298565b92505081905550600154816111de9190611d69565b600560008282546111ef9190612298565b925050819055506000807f000000000000000000000000000000000000000000000000000000000000000073ffffffffffffffffffffffffffffffffffffffff163460405161123d906122fd565b60006040518083038185875af1925050503d806000811461127a576040519150601f19603f3d011682016040523d82523d6000602084013e61127f565b606091505b5091509150816112c4576040517f08c379a00000000000000000000000000000000000000000000000000000000081526004016112bb90612384565b60405180910390fd5b3373ffffffffffffffffffffffffffffffffffffffff167f7ff7c851576b0a6ac24d00f3be32aa3aeb04c2c9e69084f75a7b241ed80aaecc858560405161130c9291906123a4565b60405180910390a250505050565b600360019054906101000a900460ff1681565b8280548282559060005260206000209081019282156113a6579160200282015b828111156113a55782518260006101000a81548173ffffffffffffffffffffffffffffffffffffffff021916908373ffffffffffffffffffffffffffffffffffffffff1602179055509160200191906001019061134d565b5b5090506113b391906113b7565b5090565b5b808211156113d05760008160009055506001016113b8565b5090565b6000819050919050565b6113e7816113d4565b82525050565b600060208201905061140260008301846113de565b92915050565b6000604051905090565b600080fd5b600080fd5b611425816113d4565b811461143057600080fd5b50565b6000813590506114428161141c565b92915050565b60006020828403121561145e5761145d611412565b5b600061146c84828501611433565b91505092915050565b60008115159050919050565b61148a81611475565b82525050565b60006020820190506114a56000830184611481565b92915050565b600073ffffffffffffffffffffffffffffffffffffffff82169050919050565b60006114d6826114ab565b9050919050565b6114e6816114cb565b81146114f157600080fd5b50565b600081359050611503816114dd565b92915050565b60006020828403121561151f5761151e611412565b5b600061152d848285016114f4565b91505092915050565b600081519050919050565b600082825260208201905092915050565b60005b83811015611570578082015181840152602081019050611555565b60008484015250505050565b6000601f19601f8301169050919050565b600061159882611536565b6115a28185611541565b93506115b2818560208601611552565b6115bb8161157c565b840191505092915050565b600060208201905081810360008301526115e0818461158d565b905092915050565b600081519050919050565b600082825260208201905092915050565b6000819050602082019050919050565b600061161f826114ab565b9050919050565b61162f81611614565b82525050565b60006116418383611626565b60208301905092915050565b6000602082019050919050565b6000611665826115e8565b61166f81856115f3565b935061167a83611604565b8060005b838110156116ab5781516116928882611635565b975061169d8361164d565b92505060018101905061167e565b5085935050505092915050565b600060208201905081810360008301526116d2818461165a565b905092915050565b6116e3816114cb565b82525050565b60006020820190506116fe60008301846116da565b92915050565b600081519050919050565b600082825260208201905092915050565b6000819050602082019050919050565b611739816114cb565b82525050565b600061174b8383611730565b60208301905092915050565b6000602082019050919050565b600061176f82611704565b611779818561170f565b935061178483611720565b8060005b838110156117b557815161179c888261173f565b97506117a783611757565b925050600181019050611788565b5085935050505092915050565b600060208201905081810360008301526117dc8184611764565b905092915050565b6117ed81611614565b82525050565b600060208201905061180860008301846117e4565b92915050565b600080fd5b600080fd5b7f4e487b7100000000000000000000000000000000000000000000000000000000600052604160045260246000fd5b6118508261157c565b810181811067ffffffffffffffff8211171561186f5761186e611818565b5b80604052505050565b6000611882611408565b905061188e8282611847565b919050565b600067ffffffffffffffff8211156118ae576118ad611818565b5b6118b78261157c565b9050602081019050919050565b82818337600083830152505050565b60006118e66118e184611893565b611878565b90508281526020810184848401111561190257611901611813565b5b61190d8482856118c4565b509392505050565b600082601f83011261192a5761192961180e565b5b813561193a8482602086016118d3565b91505092915050565b6000806040838503121561195a57611959611412565b5b600083013567ffffffffffffffff81111561197857611977611417565b5b61198485828601611915565b925050602061199585828601611433565b9150509250929050565b7f4f6e6c792074686520636f6e7472616374206f776e65722063616e2063616c6c60008201527f20746869732066756e6374696f6e2e0000000000000000000000000000000000602082015250565b60006119fb602f83611541565b9150611a068261199f565b604082019050919050565b60006020820190508181036000830152611a2a816119ee565b9050919050565b7f4c6f747465727920706f6f6c20697320616c7265616479206f70656e2e000000600082015250565b6000611a67601d83611541565b9150611a7282611a31565b602082019050919050565b60006020820190508181036000830152611a9681611a5a565b9050919050565b7f5469636b6574207072696365206d75737420626520677265617465722074686160008201527f6e20302e00000000000000000000000000000000000000000000000000000000602082015250565b6000611af9602483611541565b9150611b0482611a9d565b604082019050919050565b60006020820190508181036000830152611b2881611aec565b9050919050565b7f4e487b7100000000000000000000000000000000000000000000000000000000600052602260045260246000fd5b60006002820490506001821680611b7657607f821691505b602082108103611b8957611b88611b2f565b5b50919050565b7f43616e6e6f74206472617720612077696e6e65722077697468206c657373207460008201527f68616e203220706c61796572732e000000000000000000000000000000000000602082015250565b6000611beb602e83611541565b9150611bf682611b8f565b604082019050919050565b60006020820190508181036000830152611c1a81611bde565b9050919050565b7f57696e6e657220616c726561647920647261776e000000000000000000000000600082015250565b6000611c57601483611541565b9150611c6282611c21565b602082019050919050565b60006020820190508181036000830152611c8681611c4a565b9050919050565b6000819050919050565b611ca8611ca3826113d4565b611c8d565b82525050565b6000611cba8285611c97565b602082019150611cca8284611c97565b6020820191508190509392505050565b7f4e487b7100000000000000000000000000000000000000000000000000000000600052601260045260246000fd5b6000611d14826113d4565b9150611d1f836113d4565b925082611d2f57611d2e611cda565b5b828206905092915050565b7f4e487b7100000000000000000000000000000000000000000000000000000000600052601160045260246000fd5b6000611d74826113d4565b9150611d7f836113d4565b9250828202611d8d816113d4565b91508282048414831517611da457611da3611d3a565b5b5092915050565b6000611db6826113d4565b9150611dc1836113d4565b925082611dd157611dd0611cda565b5b828204905092915050565b6000611de7826113d4565b9150611df2836113d4565b9250828203905081811115611e0a57611e09611d3a565b5b92915050565b6000611e1b826113d4565b91507fffffffffffffffffffffffffffffffffffffffffffffffffffffffffffffffff8203611e4d57611e4c611d3a565b5b600182019050919050565b6000604082019050611e6d60008301856116da565b611e7a60208301846113de565b9392505050565b7f4e487b7100000000000000000000000000000000000000000000000000000000600052603260045260246000fd5b7f5469636b6574207072696365206d757374206265207365742e00000000000000600082015250565b6000611ee6601983611541565b9150611ef182611eb0565b602082019050919050565b60006020820190508181036000830152611f1581611ed9565b9050919050565b7f4c6f747465727920706f6f6c206973206e6f7420796574206f70656e2e000000600082015250565b6000611f52601d83611541565b9150611f5d82611f1c565b602082019050919050565b60006020820190508181036000830152611f8181611f45565b9050919050565b7f4e756d626572206f66207469636b65747320626f756768742073686f756c642060008201527f62652067726561746572207468616e2030000000000000000000000000000000602082015250565b6000611fe4603183611541565b9150611fef82611f88565b604082019050919050565b6000602082019050818103600083015261201381611fd7565b9050919050565b60008190508160005260206000209050919050565b60006020601f8301049050919050565b600082821b905092915050565b60006008830261207c7fffffffffffffffffffffffffffffffffffffffffffffffffffffffffffffffff8261203f565b612086868361203f565b95508019841693508086168417925050509392505050565b6000819050919050565b60006120c36120be6120b9846113d4565b61209e565b6113d4565b9050919050565b6000819050919050565b6120dd836120a8565b6120f16120e9826120ca565b84845461204c565b825550505050565b600090565b6121066120f9565b6121118184846120d4565b505050565b5b818110156121355761212a6000826120fe565b600181019050612117565b5050565b601f82111561217a5761214b8161201a565b6121548461202f565b81016020851015612163578190505b61217761216f8561202f565b830182612116565b50505b505050565b600082821c905092915050565b600061219d6000198460080261217f565b1980831691505092915050565b60006121b6838361218c565b9150826002028217905092915050565b6121cf82611536565b67ffffffffffffffff8111156121e8576121e7611818565b5b6121f28254611b5e565b6121fd828285612139565b600060209050601f831160018114612230576000841561221e578287015190505b61222885826121aa565b865550612290565b601f19841661223e8661201a565b60005b8281101561226657848901518255600182019150602085019450602081019050612241565b86831015612283578489015161227f601f89168261218c565b8355505b6001600288020188555050505b505050505050565b60006122a3826113d4565b91506122ae836113d4565b92508282019050808211156122c6576122c5611d3a565b5b92915050565b600081905092915050565b50565b60006122e76000836122cc565b91506122f2826122d7565b600082019050919050565b6000612308826122da565b9150819050919050565b7f4661696c656420746f2073656e6420457468657220746f20636f6e747261637460008201527f206f776e65720000000000000000000000000000000000000000000000000000602082015250565b600061236e602683611541565b915061237982612312565b604082019050919050565b6000602082019050818103600083015261239d81612361565b9050919050565b600060408201905081810360008301526123be818561158d565b90506123cd60208301846113de565b939250505056fea264697066735822122075f9af90ab019c63c748111f8d81efde5dcdc744c1a9275eb8dc683f085b26b164736f6c63430008130033",
  "immutableReferences": {
    "3": [
      {
        "length": 32,
        "start": 2927
      },
      {
        "length": 32,
        "start": 4603
      }
    ]
  },
  "source": "// SPDX-License-Identifier: MIT\r\npragma solidity ^0.8.18;\r\n\r\n//import \"@/SafeMath.sol\";\r\n\r\ncontract Lottery {\r\n    //using SafeMath for uint256;\r\n\r\n    // State variables\r\n    address immutable CONTRACT_OWNER;\r\n    address public owner;\r\n    uint256 public ticketPrice;\r\n    uint public lotteryID;\r\n    bool public isPoolOpen;\r\n    bool public isWinnerDrawn;\r\n    uint256 public totalTickets;\r\n    uint256 public poolBalance;\r\n    uint256 public ticketNumber;\r\n\r\n    address[] public winners;\r\n    address payable[] public players;\r\n    mapping(address => string) public playerName;\r\n    mapping(address => uint256) public playerTickets;\r\n    mapping(uint256 => address) public ticketToPlayer;\r\n\r\n    // Events\r\n    event PoolOpened(uint256 ticketPrice);\r\n    event PlayerAdded(address indexed playerAddress, string name, uint256 numberOfTicketsBought);\r\n    event LotteryWinner(address winner, uint256 prize);\r\n    event LotteryLoser(address loser);\r\n\r\n    // Constructor\r\n    constructor(){\r\n        owner = 0xc08B979C0EA987AE5C6D9A9361379224cBe85c28;\r\n        CONTRACT_OWNER = 0xc08B979C0EA987AE5C6D9A9361379224cBe85c28;\r\n        lotteryID = 0;\r\n        totalTickets = 0;\r\n        ticketPrice = 0;\r\n        poolBalance = 0;\r\n    }\r\n\r\n    // Modifier to allow only owner to call certain functions\r\n    modifier onlyOwner{\r\n        require(msg.sender == owner, \"Only the contract owner can call this function.\");\r\n        _;\r\n    }\r\n\r\n    //========== GETTERS ==========//\r\n    function IsPoolOpen() public view returns (bool) {\r\n        return isPoolOpen;\r\n    }\r\n\r\n    function IsUserOwner() public view returns (bool) {\r\n        return msg.sender == owner;\r\n    }\r\n\r\n    function IsUserPlayer() public view returns (bool) {\r\n        for (uint i = 0; i < players.length; i++) {\r\n            if (players[i] == msg.sender) {\r\n                return true;\r\n            }\r\n        }\r\n        return false;\r\n    }\r\n\r\n    // Get the total number of tickets bought by players\r\n    function getTotalTicketsBought() public view returns (uint256) {\r\n        return totalTickets;\r\n    }\r\n\r\n    // Get the current balance of the lottery pool\r\n    function getPoolBalance() public view returns (uint256) {\r\n        return poolBalance;\r\n    }\r\n\r\n    function getTicketPrice() public view returns (uint256) {\r\n        return ticketPrice;\r\n    }\r\n\r\n    function getPlayers() public view returns (address payable[] memory) {\r\n        return players;\r\n    }\r\n\r\n    function getLotteryID() public view returns(uint) {\r\n        return lotteryID;\r\n    }\r\n\r\n      function getWinners() public view returns (address[] memory){\r\n        return winners;\r\n    }\r\n\r\n    \r\n    //========== SETTERS ==========//\r\n\r\n    // Open the lottery pool\r\n    function openPool() public onlyOwner {\r\n        require(ticketPrice > 0, \"Ticket price must be set.\");\r\n        isPoolOpen = true;\r\n\r\n        emit PoolOpened(ticketPrice);\r\n    }\r\n\r\n    // Set the ticket price\r\n     function setTicketPrice(uint256 _ticketPrice) public onlyOwner{\r\n        require(!isPoolOpen, \"Lottery pool is already open.\");\r\n        require(_ticketPrice > 0, \"Ticket price must be greater than 0.\");\r\n        ticketPrice = _ticketPrice;\r\n    }\r\n\r\n    //========== METHODS ==========//\r\n    // Add a player to the lottery pool\r\n    function enterPool(string memory _name, uint256 _numberOfTicketsBought) public payable {\r\n        require(isPoolOpen, \"Lottery pool is not yet open.\");\r\n        require(_numberOfTicketsBought > 0, \"Number of tickets bought should be greater than 0\");\r\n\r\n        players.push(payable(msg.sender));\r\n        playerName[msg.sender] = _name;\r\n        playerTickets[msg.sender] = _numberOfTicketsBought;\r\n        for (uint256 i = 0; i < _numberOfTicketsBought; i++) {\r\n            ticketToPlayer[ticketNumber] = msg.sender;\r\n            ticketNumber++;\r\n        }\r\n\r\n        totalTickets += _numberOfTicketsBought;\r\n        poolBalance += _numberOfTicketsBought * (ticketPrice);\r\n\r\n        (bool sent, bytes memory data2) = CONTRACT_OWNER.call{value: msg.value}(\"\");\r\n        require(sent, \"Failed to send Ether to contract owner\");\r\n\r\n        emit PlayerAdded(msg.sender, _name, _numberOfTicketsBought);\r\n    }\r\n\r\n    function drawWinner() public onlyOwner {\r\n        require(totalTickets >= 2, \"Cannot draw a winner with less than 2 players.\");\r\n        require(!isWinnerDrawn, \"Winner already drawn\");\r\n        isWinnerDrawn = true;\r\n        \r\n        // Calculate the winning amount and transfer it to the winner and the owner\r\n        uint256 winningTicket = uint256(keccak256(abi.encodePacked(block.timestamp, block.prevrandao))) % totalTickets;\r\n        address winner = payable(ticketToPlayer[winningTicket]);\r\n        winners.push(winner);\r\n        uint256 amountWon = poolBalance * 95 / 100;\r\n        uint256 ownerFee = poolBalance - amountWon;\r\n        \r\n        winner.call{value: amountWon};\r\n        CONTRACT_OWNER.call{value: ownerFee};\r\n\r\n\r\n        // Reset the lottery pool for the next round\r\n        totalTickets = 0;\r\n        poolBalance = 0;\r\n        lotteryID++;\r\n\r\n        players = new address payable[](0);\r\n\r\n        // Emit an event with the winner and the winning amount\r\n        emit LotteryWinner(winner, amountWon);\r\n    }\r\n}",
  "sourcePath": "D:\\Documents\\cole\\H23\\IFT4100\\IFT4100_TP3\\ift-4100-lottery-dapp\\backend\\contracts\\Lottery.sol",
  "compiler": {
    "name": "solc",
    "version": "0.8.19+commit.7dd6d404.Emscripten.clang"
  },
  "schemaVersion": "3.4.13",
  "updatedAt": "2023-04-07T14:58:21.524Z",
  "networkType": "ethereum",
  "devdoc": {
    "kind": "dev",
    "methods": {},
    "version": 1
  },
  "userdoc": {
    "kind": "user",
    "methods": {},
    "version": 1
  }
}