{
  "contractName": "Lottery",
  "abi": [
    {
      "inputs": [],
      "stateMutability": "nonpayable",
      "type": "constructor"
    },
    {
      "inputs": [],
      "name": "lotteryBalance",
      "outputs": [
        {
          "internalType": "uint256",
          "name": "",
          "type": "uint256"
        }
      ],
      "stateMutability": "view",
      "type": "function",
      "constant": true
    },
    {
      "inputs": [],
      "name": "owner",
      "outputs": [
        {
          "internalType": "address",
          "name": "",
          "type": "address"
        }
      ],
      "stateMutability": "view",
      "type": "function",
      "constant": true
    },
    {
      "inputs": [
        {
          "internalType": "address",
          "name": "",
          "type": "address"
        }
      ],
      "name": "players",
      "outputs": [
        {
          "internalType": "uint256",
          "name": "",
          "type": "uint256"
        }
      ],
      "stateMutability": "view",
      "type": "function",
      "constant": true
    },
    {
      "inputs": [],
      "name": "ticketPrice",
      "outputs": [
        {
          "internalType": "uint256",
          "name": "",
          "type": "uint256"
        }
      ],
      "stateMutability": "view",
      "type": "function",
      "constant": true
    },
    {
      "inputs": [],
      "name": "ticketsToBuy",
      "outputs": [
        {
          "internalType": "uint256",
          "name": "",
          "type": "uint256"
        }
      ],
      "stateMutability": "view",
      "type": "function",
      "constant": true
    },
    {
      "inputs": [],
      "name": "totalTickets",
      "outputs": [
        {
          "internalType": "uint256",
          "name": "",
          "type": "uint256"
        }
      ],
      "stateMutability": "view",
      "type": "function",
      "constant": true
    },
    {
      "inputs": [],
      "name": "buyTicket",
      "outputs": [],
      "stateMutability": "payable",
      "type": "function",
      "payable": true
    }
  ],
  "bytecode": "0x608060405234801561001057600080fd5b5033600460006101000a81548173ffffffffffffffffffffffffffffffffffffffff021916908373ffffffffffffffffffffffffffffffffffffffff1602179055506000600181905550600080819055506104be806100706000396000f3fe6080604052600436106100705760003560e01c8063b22886491161004e578063b2288649146100f6578063dd11247e14610121578063e2eb41ff1461014c578063edca914c1461018957610070565b80631209b1f6146100755780633974a319146100a05780638da5cb5b146100cb575b600080fd5b34801561008157600080fd5b5061008a610193565b60405161009791906102d3565b60405180910390f35b3480156100ac57600080fd5b506100b5610199565b6040516100c291906102d3565b60405180910390f35b3480156100d757600080fd5b506100e061019f565b6040516100ed919061032f565b60405180910390f35b34801561010257600080fd5b5061010b6101c5565b60405161011891906102d3565b60405180910390f35b34801561012d57600080fd5b506101366101cb565b60405161014391906102d3565b60405180910390f35b34801561015857600080fd5b50610173600480360381019061016e919061037b565b6101d1565b60405161018091906102d3565b60405180910390f35b6101916101e9565b005b60025481565b60035481565b600460009054906101000a900473ffffffffffffffffffffffffffffffffffffffff1681565b60005481565b60015481565b60056020528060005260406000206000915090505481565b600254341461022d576040517f08c379a000000000000000000000000000000000000000000000000000000000815260040161022490610405565b60405180910390fd5b600354600560003373ffffffffffffffffffffffffffffffffffffffff1673ffffffffffffffffffffffffffffffffffffffff168152602001908152602001600020600082825461027e9190610454565b92505081905550600354600160008282546102999190610454565b92505081905550346000808282546102b19190610454565b92505081905550565b6000819050919050565b6102cd816102ba565b82525050565b60006020820190506102e860008301846102c4565b92915050565b600073ffffffffffffffffffffffffffffffffffffffff82169050919050565b6000610319826102ee565b9050919050565b6103298161030e565b82525050565b60006020820190506103446000830184610320565b92915050565b600080fd5b6103588161030e565b811461036357600080fd5b50565b6000813590506103758161034f565b92915050565b6000602082840312156103915761039061034a565b5b600061039f84828501610366565b91505092915050565b600082825260208201905092915050565b7f53656e6420636f727265637420616d6f756e7400000000000000000000000000600082015250565b60006103ef6013836103a8565b91506103fa826103b9565b602082019050919050565b6000602082019050818103600083015261041e816103e2565b9050919050565b7f4e487b7100000000000000000000000000000000000000000000000000000000600052601160045260246000fd5b600061045f826102ba565b915061046a836102ba565b925082820190508082111561048257610481610425565b5b9291505056fea2646970667358221220188b949d671c4d2336752c6353a02555e41706d5a45f2d437f9f4e5627c7b12e64736f6c63430008130033",
  "immutableReferences": {},
  "source": "// SPDX-License-Identifier: MIT\r\npragma solidity 0.8.19;\r\n\r\ncontract Lottery {\r\n    uint public lotteryBalance;\r\n    uint public totalTickets;\r\n    uint public ticketPrice;\r\n    uint public ticketsToBuy;\r\n    address public owner;\r\n    mapping(address => uint) public players;\r\n\r\n    constructor(){\r\n\r\n        owner = msg.sender;\r\n        totalTickets = 0;\r\n        lotteryBalance = 0;\r\n    }\r\n\r\n    modifier onlyOwner{\r\n        require(msg.sender == owner, \"Only owner can call\");\r\n        _;\r\n    }\r\n\r\n    function buyTicket() public payable{\r\n        require(msg.value == ticketPrice, \"Send correct amount\");\r\n        players[msg.sender] += ticketsToBuy;\r\n        totalTickets += ticketsToBuy;\r\n        lotteryBalance += msg.value;\r\n    }\r\n\r\n   // function drawWinner() public onlyOwner{\r\n     //   require(totalTickets > 0, \"No tickets sold\");\r\n    //    address winner;\r\n     //   uint prize = lotteryBalance * 90/100;\r\n\r\n   // }\r\n\r\n}",
  "sourcePath": "D:\\Documents\\cole\\H23\\IFT4100\\contrats\\contracts\\Lottery.sol",
  "compiler": {
    "name": "solc",
    "version": "0.8.19+commit.7dd6d404.Emscripten.clang"
  },
  "schemaVersion": "3.4.13",
  "updatedAt": "2023-04-06T14:05:23.792Z",
  "networkType": "ethereum",
  "devdoc": {
    "kind": "dev",
    "methods": {},
    "version": 1
  },
  "userdoc": {
    "kind": "user",
    "methods": {},
    "version": 1
  }
}