{
  "contractName": "Lottery",
  "abi": [
    {
      "inputs": [],
      "stateMutability": "nonpayable",
      "type": "constructor"
    },
    {
      "anonymous": false,
      "inputs": [
        {
          "indexed": false,
          "internalType": "address",
          "name": "loser",
          "type": "address"
        }
      ],
      "name": "LotteryLoser",
      "type": "event"
    },
    {
      "anonymous": false,
      "inputs": [
        {
          "indexed": false,
          "internalType": "address",
          "name": "winner",
          "type": "address"
        },
        {
          "indexed": false,
          "internalType": "uint256",
          "name": "prize",
          "type": "uint256"
        }
      ],
      "name": "LotteryWinner",
      "type": "event"
    },
    {
      "anonymous": false,
      "inputs": [
        {
          "indexed": true,
          "internalType": "address",
          "name": "playerAddress",
          "type": "address"
        },
        {
          "indexed": false,
          "internalType": "string",
          "name": "name",
          "type": "string"
        },
        {
          "indexed": false,
          "internalType": "uint256",
          "name": "numberOfTicketsBought",
          "type": "uint256"
        }
      ],
      "name": "PlayerAdded",
      "type": "event"
    },
    {
      "anonymous": false,
      "inputs": [
        {
          "indexed": false,
          "internalType": "uint256",
          "name": "ticketPrice",
          "type": "uint256"
        }
      ],
      "name": "PoolOpened",
      "type": "event"
    },
    {
      "inputs": [],
      "name": "isPoolOpen",
      "outputs": [
        {
          "internalType": "bool",
          "name": "",
          "type": "bool"
        }
      ],
      "stateMutability": "view",
      "type": "function",
      "constant": true
    },
    {
      "inputs": [],
      "name": "isWinnerDrawn",
      "outputs": [
        {
          "internalType": "bool",
          "name": "",
          "type": "bool"
        }
      ],
      "stateMutability": "view",
      "type": "function",
      "constant": true
    },
    {
      "inputs": [],
      "name": "owner",
      "outputs": [
        {
          "internalType": "address",
          "name": "",
          "type": "address"
        }
      ],
      "stateMutability": "view",
      "type": "function",
      "constant": true
    },
    {
      "inputs": [
        {
          "internalType": "address",
          "name": "",
          "type": "address"
        }
      ],
      "name": "playerTickets",
      "outputs": [
        {
          "internalType": "uint256",
          "name": "",
          "type": "uint256"
        }
      ],
      "stateMutability": "view",
      "type": "function",
      "constant": true
    },
    {
      "inputs": [
        {
          "internalType": "address",
          "name": "",
          "type": "address"
        }
      ],
      "name": "players",
      "outputs": [
        {
          "internalType": "string",
          "name": "name",
          "type": "string"
        },
        {
          "internalType": "address",
          "name": "addr",
          "type": "address"
        },
        {
          "internalType": "uint256",
          "name": "numberOfTicketsBought",
          "type": "uint256"
        }
      ],
      "stateMutability": "view",
      "type": "function",
      "constant": true
    },
    {
      "inputs": [],
      "name": "poolBalance",
      "outputs": [
        {
          "internalType": "uint256",
          "name": "",
          "type": "uint256"
        }
      ],
      "stateMutability": "view",
      "type": "function",
      "constant": true
    },
    {
      "inputs": [],
      "name": "ticketNumber",
      "outputs": [
        {
          "internalType": "uint256",
          "name": "",
          "type": "uint256"
        }
      ],
      "stateMutability": "view",
      "type": "function",
      "constant": true
    },
    {
      "inputs": [],
      "name": "ticketPrice",
      "outputs": [
        {
          "internalType": "uint256",
          "name": "",
          "type": "uint256"
        }
      ],
      "stateMutability": "view",
      "type": "function",
      "constant": true
    },
    {
      "inputs": [
        {
          "internalType": "uint256",
          "name": "",
          "type": "uint256"
        }
      ],
      "name": "ticketToPlayer",
      "outputs": [
        {
          "internalType": "address",
          "name": "",
          "type": "address"
        }
      ],
      "stateMutability": "view",
      "type": "function",
      "constant": true
    },
    {
      "inputs": [],
      "name": "totalTickets",
      "outputs": [
        {
          "internalType": "uint256",
          "name": "",
          "type": "uint256"
        }
      ],
      "stateMutability": "view",
      "type": "function",
      "constant": true
    },
    {
      "inputs": [],
      "name": "openPool",
      "outputs": [],
      "stateMutability": "nonpayable",
      "type": "function"
    },
    {
      "inputs": [
        {
          "internalType": "uint256",
          "name": "_ticketPrice",
          "type": "uint256"
        }
      ],
      "name": "setTicketPrice",
      "outputs": [],
      "stateMutability": "nonpayable",
      "type": "function"
    },
    {
      "inputs": [],
      "name": "getTotalTicketsBought",
      "outputs": [
        {
          "internalType": "uint256",
          "name": "",
          "type": "uint256"
        }
      ],
      "stateMutability": "view",
      "type": "function",
      "constant": true
    },
    {
      "inputs": [],
      "name": "getPoolBalance",
      "outputs": [
        {
          "internalType": "uint256",
          "name": "",
          "type": "uint256"
        }
      ],
      "stateMutability": "view",
      "type": "function",
      "constant": true
    },
    {
      "inputs": [
        {
          "internalType": "string",
          "name": "_name",
          "type": "string"
        },
        {
          "internalType": "address",
          "name": "_address",
          "type": "address"
        },
        {
          "internalType": "uint256",
          "name": "_numberOfTicketsBought",
          "type": "uint256"
        }
      ],
      "name": "addPlayer",
      "outputs": [],
      "stateMutability": "payable",
      "type": "function",
      "payable": true
    },
    {
      "inputs": [],
      "name": "drawWinner",
      "outputs": [],
      "stateMutability": "nonpayable",
      "type": "function"
    }
  ],
  "bytecode": "0x608060405234801561001057600080fd5b50336000806101000a81548173ffffffffffffffffffffffffffffffffffffffff021916908373ffffffffffffffffffffffffffffffffffffffff160217905550611e49806100606000396000f3fe6080604052600436106100f35760003560e01c8063b2185bb11161008a578063eaa8108f11610059578063eaa8108f146102eb578063eb5797a414610328578063f98e6b911461033f578063fb8fed371461037c576100f3565b8063b2185bb11461023f578063c54c7da614610256578063dd11247e14610281578063e2eb41ff146102ac576100f3565b80638da5cb5b116100c65780638da5cb5b1461019357806396365d44146101be578063abd70aa2146101e9578063ad19073414610214576100f3565b806309259b24146100f85780631209b1f614610114578063159816501461013f57806356c43f8e14610168575b600080fd5b610112600480360381019061010d9190611093565b6103a7565b005b34801561012057600080fd5b506101296106fd565b6040516101369190611111565b60405180910390f35b34801561014b57600080fd5b506101666004803603810190610161919061112c565b610703565b005b34801561017457600080fd5b5061017d61082e565b60405161018a9190611111565b60405180910390f35b34801561019f57600080fd5b506101a8610838565b6040516101b59190611168565b60405180910390f35b3480156101ca57600080fd5b506101d361085c565b6040516101e09190611111565b60405180910390f35b3480156101f557600080fd5b506101fe610862565b60405161020b9190611111565b60405180910390f35b34801561022057600080fd5b50610229610879565b604051610236919061119e565b60405180910390f35b34801561024b57600080fd5b5061025461088c565b005b34801561026257600080fd5b5061026b610c40565b6040516102789190611111565b60405180910390f35b34801561028d57600080fd5b50610296610c46565b6040516102a39190611111565b60405180910390f35b3480156102b857600080fd5b506102d360048036038101906102ce91906111b9565b610c4c565b6040516102e293929190611265565b60405180910390f35b3480156102f757600080fd5b50610312600480360381019061030d91906111b9565b610d1e565b60405161031f9190611111565b60405180910390f35b34801561033457600080fd5b5061033d610d36565b005b34801561034b57600080fd5b506103666004803603810190610361919061112c565b610e5f565b6040516103739190611168565b60405180910390f35b34801561038857600080fd5b50610391610e92565b60405161039e919061119e565b60405180910390f35b600260009054906101000a900460ff166103f6576040517f08c379a00000000000000000000000000000000000000000000000000000000081526004016103ed906112ef565b60405180910390fd5b8173ffffffffffffffffffffffffffffffffffffffff163373ffffffffffffffffffffffffffffffffffffffff1614610464576040517f08c379a000000000000000000000000000000000000000000000000000000000815260040161045b90611381565b60405180910390fd5b600081116104a7576040517f08c379a000000000000000000000000000000000000000000000000000000000815260040161049e90611413565b60405180910390fd5b600154816104b59190611462565b34146104f6576040517f08c379a00000000000000000000000000000000000000000000000000000000081526004016104ed90611516565b60405180910390fd5b6000600660003373ffffffffffffffffffffffffffffffffffffffff1673ffffffffffffffffffffffffffffffffffffffff16815260200190815260200160002090508381600001908161054a9190611742565b50828160010160006101000a81548173ffffffffffffffffffffffffffffffffffffffff021916908373ffffffffffffffffffffffffffffffffffffffff16021790555081816002015461059e9190611814565b816002018190555081600760008573ffffffffffffffffffffffffffffffffffffffff1673ffffffffffffffffffffffffffffffffffffffff1681526020019081526020016000208190555060005b82811015610674578360086000600554815260200190815260200160002060006101000a81548173ffffffffffffffffffffffffffffffffffffffff021916908373ffffffffffffffffffffffffffffffffffffffff1602179055506005600081548092919061065c90611848565b9190505550808061066c90611848565b9150506105ed565b5081600360008282546106879190611814565b9250508190555034600460008282546106a09190611814565b925050819055508273ffffffffffffffffffffffffffffffffffffffff167f7ff7c851576b0a6ac24d00f3be32aa3aeb04c2c9e69084f75a7b241ed80aaecc85846040516106ef929190611890565b60405180910390a250505050565b60015481565b60008054906101000a900473ffffffffffffffffffffffffffffffffffffffff1673ffffffffffffffffffffffffffffffffffffffff163373ffffffffffffffffffffffffffffffffffffffff1614610791576040517f08c379a000000000000000000000000000000000000000000000000000000000815260040161078890611932565b60405180910390fd5b600260009054906101000a900460ff16156107e1576040517f08c379a00000000000000000000000000000000000000000000000000000000081526004016107d89061199e565b60405180910390fd5b60008111610824576040517f08c379a000000000000000000000000000000000000000000000000000000000815260040161081b90611a30565b60405180910390fd5b8060018190555050565b6000600354905090565b60008054906101000a900473ffffffffffffffffffffffffffffffffffffffff1681565b60045481565b60006001546003546108749190611462565b905090565b600260009054906101000a900460ff1681565b60008054906101000a900473ffffffffffffffffffffffffffffffffffffffff1673ffffffffffffffffffffffffffffffffffffffff163373ffffffffffffffffffffffffffffffffffffffff161461091a576040517f08c379a000000000000000000000000000000000000000000000000000000000815260040161091190611932565b60405180910390fd5b60026003541015610960576040517f08c379a000000000000000000000000000000000000000000000000000000000815260040161095790611ac2565b60405180910390fd5b600260019054906101000a900460ff16156109b0576040517f08c379a00000000000000000000000000000000000000000000000000000000081526004016109a790611b2e565b60405180910390fd5b6001600260016101000a81548160ff021916908315150217905550600060035442446040516020016109e3929190611b6f565b6040516020818303038152906040528051906020012060001c610a069190611bca565b905060006008600083815260200190815260200160002060009054906101000a900473ffffffffffffffffffffffffffffffffffffffff16905060006064605f600454610a539190611462565b610a5d9190611bfb565b9050600081600454610a6f9190611c2c565b90506000808473ffffffffffffffffffffffffffffffffffffffff1684604051610a9890611c91565b60006040518083038185875af1925050503d8060008114610ad5576040519150601f19603f3d011682016040523d82523d6000602084013e610ada565b606091505b509150915060008060008054906101000a900473ffffffffffffffffffffffffffffffffffffffff1673ffffffffffffffffffffffffffffffffffffffff1685604051610b2690611c91565b60006040518083038185875af1925050503d8060008114610b63576040519150601f19603f3d011682016040523d82523d6000602084013e610b68565b606091505b509150915083610bad576040517f08c379a0000000000000000000000000000000000000000000000000000000008152600401610ba490611cf2565b60405180910390fd5b81610bed576040517f08c379a0000000000000000000000000000000000000000000000000000000008152600401610be490611d5e565b60405180910390fd5b600060038190555060006004819055507f275eaacf9e506f9c68b251c2f97cf723c4fb9a3b94e42a1dfb581543c135f0c08787604051610c2e929190611d7e565b60405180910390a15050505050505050565b60055481565b60035481565b6006602052806000526040600020600091509050806000018054610c6f90611565565b80601f0160208091040260200160405190810160405280929190818152602001828054610c9b90611565565b8015610ce85780601f10610cbd57610100808354040283529160200191610ce8565b820191906000526020600020905b815481529060010190602001808311610ccb57829003601f168201915b5050505050908060010160009054906101000a900473ffffffffffffffffffffffffffffffffffffffff16908060020154905083565b60076020528060005260406000206000915090505481565b60008054906101000a900473ffffffffffffffffffffffffffffffffffffffff1673ffffffffffffffffffffffffffffffffffffffff163373ffffffffffffffffffffffffffffffffffffffff1614610dc4576040517f08c379a0000000000000000000000000000000000000000000000000000000008152600401610dbb90611932565b60405180910390fd5b600060015411610e09576040517f08c379a0000000000000000000000000000000000000000000000000000000008152600401610e0090611df3565b60405180910390fd5b6001600260006101000a81548160ff0219169083151502179055507fdf5eab7aafa65f032281e56b9400db3c1d50c6a02c1c56cf936eb79e5748a9ab600154604051610e559190611111565b60405180910390a1565b60086020528060005260406000206000915054906101000a900473ffffffffffffffffffffffffffffffffffffffff1681565b600260019054906101000a900460ff1681565b6000604051905090565b600080fd5b600080fd5b600080fd5b600080fd5b6000601f19601f8301169050919050565b7f4e487b7100000000000000000000000000000000000000000000000000000000600052604160045260246000fd5b610f0c82610ec3565b810181811067ffffffffffffffff82111715610f2b57610f2a610ed4565b5b80604052505050565b6000610f3e610ea5565b9050610f4a8282610f03565b919050565b600067ffffffffffffffff821115610f6a57610f69610ed4565b5b610f7382610ec3565b9050602081019050919050565b82818337600083830152505050565b6000610fa2610f9d84610f4f565b610f34565b905082815260208101848484011115610fbe57610fbd610ebe565b5b610fc9848285610f80565b509392505050565b600082601f830112610fe657610fe5610eb9565b5b8135610ff6848260208601610f8f565b91505092915050565b600073ffffffffffffffffffffffffffffffffffffffff82169050919050565b600061102a82610fff565b9050919050565b61103a8161101f565b811461104557600080fd5b50565b60008135905061105781611031565b92915050565b6000819050919050565b6110708161105d565b811461107b57600080fd5b50565b60008135905061108d81611067565b92915050565b6000806000606084860312156110ac576110ab610eaf565b5b600084013567ffffffffffffffff8111156110ca576110c9610eb4565b5b6110d686828701610fd1565b93505060206110e786828701611048565b92505060406110f88682870161107e565b9150509250925092565b61110b8161105d565b82525050565b60006020820190506111266000830184611102565b92915050565b60006020828403121561114257611141610eaf565b5b60006111508482850161107e565b91505092915050565b6111628161101f565b82525050565b600060208201905061117d6000830184611159565b92915050565b60008115159050919050565b61119881611183565b82525050565b60006020820190506111b3600083018461118f565b92915050565b6000602082840312156111cf576111ce610eaf565b5b60006111dd84828501611048565b91505092915050565b600081519050919050565b600082825260208201905092915050565b60005b83811015611220578082015181840152602081019050611205565b60008484015250505050565b6000611237826111e6565b61124181856111f1565b9350611251818560208601611202565b61125a81610ec3565b840191505092915050565b6000606082019050818103600083015261127f818661122c565b905061128e6020830185611159565b61129b6040830184611102565b949350505050565b7f4c6f747465727920706f6f6c206973206e6f7420796574206f70656e2e000000600082015250565b60006112d9601d836111f1565b91506112e4826112a3565b602082019050919050565b60006020820190508181036000830152611308816112cc565b9050919050565b7f54686520616464726573732070726f766964656420646f6573206e6f74206d6160008201527f746368207468652073656e646572277320616464726573732e00000000000000602082015250565b600061136b6039836111f1565b91506113768261130f565b604082019050919050565b6000602082019050818103600083015261139a8161135e565b9050919050565b7f4e756d626572206f66207469636b65747320626f756768742073686f756c642060008201527f62652067726561746572207468616e2030000000000000000000000000000000602082015250565b60006113fd6031836111f1565b9150611408826113a1565b604082019050919050565b6000602082019050818103600083015261142c816113f0565b9050919050565b7f4e487b7100000000000000000000000000000000000000000000000000000000600052601160045260246000fd5b600061146d8261105d565b91506114788361105d565b92508282026114868161105d565b9150828204841483151761149d5761149c611433565b5b5092915050565b7f496e73756666696369656e742066756e647320746f20627579207469636b657460008201527f7300000000000000000000000000000000000000000000000000000000000000602082015250565b60006115006021836111f1565b915061150b826114a4565b604082019050919050565b6000602082019050818103600083015261152f816114f3565b9050919050565b7f4e487b7100000000000000000000000000000000000000000000000000000000600052602260045260246000fd5b6000600282049050600182168061157d57607f821691505b6020821081036115905761158f611536565b5b50919050565b60008190508160005260206000209050919050565b60006020601f8301049050919050565b600082821b905092915050565b6000600883026115f87fffffffffffffffffffffffffffffffffffffffffffffffffffffffffffffffff826115bb565b61160286836115bb565b95508019841693508086168417925050509392505050565b6000819050919050565b600061163f61163a6116358461105d565b61161a565b61105d565b9050919050565b6000819050919050565b61165983611624565b61166d61166582611646565b8484546115c8565b825550505050565b600090565b611682611675565b61168d818484611650565b505050565b5b818110156116b1576116a660008261167a565b600181019050611693565b5050565b601f8211156116f6576116c781611596565b6116d0846115ab565b810160208510156116df578190505b6116f36116eb856115ab565b830182611692565b50505b505050565b600082821c905092915050565b6000611719600019846008026116fb565b1980831691505092915050565b60006117328383611708565b9150826002028217905092915050565b61174b826111e6565b67ffffffffffffffff81111561176457611763610ed4565b5b61176e8254611565565b6117798282856116b5565b600060209050601f8311600181146117ac576000841561179a578287015190505b6117a48582611726565b86555061180c565b601f1984166117ba86611596565b60005b828110156117e2578489015182556001820191506020850194506020810190506117bd565b868310156117ff57848901516117fb601f891682611708565b8355505b6001600288020188555050505b505050505050565b600061181f8261105d565b915061182a8361105d565b925082820190508082111561184257611841611433565b5b92915050565b60006118538261105d565b91507fffffffffffffffffffffffffffffffffffffffffffffffffffffffffffffffff820361188557611884611433565b5b600182019050919050565b600060408201905081810360008301526118aa818561122c565b90506118b96020830184611102565b9392505050565b7f4f6e6c792074686520636f6e7472616374206f776e65722063616e2063616c6c60008201527f20746869732066756e6374696f6e2e0000000000000000000000000000000000602082015250565b600061191c602f836111f1565b9150611927826118c0565b604082019050919050565b6000602082019050818103600083015261194b8161190f565b9050919050565b7f4c6f747465727920706f6f6c20697320616c7265616479206f70656e2e000000600082015250565b6000611988601d836111f1565b915061199382611952565b602082019050919050565b600060208201905081810360008301526119b78161197b565b9050919050565b7f5469636b6574207072696365206d75737420626520677265617465722074686160008201527f6e20302e00000000000000000000000000000000000000000000000000000000602082015250565b6000611a1a6024836111f1565b9150611a25826119be565b604082019050919050565b60006020820190508181036000830152611a4981611a0d565b9050919050565b7f43616e6e6f74206472617720612077696e6e65722077697468206c657373207460008201527f68616e203220706c61796572732e000000000000000000000000000000000000602082015250565b6000611aac602e836111f1565b9150611ab782611a50565b604082019050919050565b60006020820190508181036000830152611adb81611a9f565b9050919050565b7f57696e6e657220616c726561647920647261776e000000000000000000000000600082015250565b6000611b186014836111f1565b9150611b2382611ae2565b602082019050919050565b60006020820190508181036000830152611b4781611b0b565b9050919050565b6000819050919050565b611b69611b648261105d565b611b4e565b82525050565b6000611b7b8285611b58565b602082019150611b8b8284611b58565b6020820191508190509392505050565b7f4e487b7100000000000000000000000000000000000000000000000000000000600052601260045260246000fd5b6000611bd58261105d565b9150611be08361105d565b925082611bf057611bef611b9b565b5b828206905092915050565b6000611c068261105d565b9150611c118361105d565b925082611c2157611c20611b9b565b5b828204905092915050565b6000611c378261105d565b9150611c428361105d565b9250828203905081811115611c5a57611c59611433565b5b92915050565b600081905092915050565b50565b6000611c7b600083611c60565b9150611c8682611c6b565b600082019050919050565b6000611c9c82611c6e565b9150819050919050565b7f4661696c656420746f2073656e6420457468657220746f2077696e6e65720000600082015250565b6000611cdc601e836111f1565b9150611ce782611ca6565b602082019050919050565b60006020820190508181036000830152611d0b81611ccf565b9050919050565b7f4661696c656420746f2073656e6420457468657220746f206f776e6572000000600082015250565b6000611d48601d836111f1565b9150611d5382611d12565b602082019050919050565b60006020820190508181036000830152611d7781611d3b565b9050919050565b6000604082019050611d936000830185611159565b611da06020830184611102565b9392505050565b7f5469636b6574207072696365206d757374206265207365742e00000000000000600082015250565b6000611ddd6019836111f1565b9150611de882611da7565b602082019050919050565b60006020820190508181036000830152611e0c81611dd0565b905091905056fea264697066735822122081dd9855640cf2c093d6cf0ba803b6fdb51026f2081e98bc89b7f6feb93f54a564736f6c63430008130033",
  "immutableReferences": {},
  "source": "// SPDX-License-Identifier: MIT\r\npragma solidity 0.8.19;\r\n\r\n//import \"./SafeMath.sol\";\r\n\r\ncontract Lottery {\r\n    //using SafeMath for uint256;\r\n\r\n    // State variables\r\n    address public owner;\r\n    uint256 public ticketPrice;\r\n    bool public isPoolOpen;\r\n    bool public isWinnerDrawn;\r\n    uint256 public totalTickets;\r\n    uint256 public poolBalance;\r\n    uint256 public ticketNumber;\r\n\r\n    mapping(address => Player) public players;\r\n    mapping(address => uint256) public playerTickets;\r\n    mapping(uint256 => address) public ticketToPlayer;\r\n\r\n    struct Player {\r\n        string name;\r\n        address addr;\r\n        uint numberOfTicketsBought;\r\n    }\r\n\r\n    // Events\r\n    event PoolOpened(uint256 ticketPrice);\r\n    event PlayerAdded(address indexed playerAddress, string name, uint256 numberOfTicketsBought);\r\n    event LotteryWinner(address winner, uint256 prize);\r\n    event LotteryLoser(address loser);\r\n\r\n    // Constructor\r\n    constructor(){\r\n        owner = msg.sender;\r\n    }\r\n\r\n    // Modifier to allow only owner to call certain functions\r\n    modifier onlyOwner{\r\n        require(msg.sender == owner, \"Only the contract owner can call this function.\");\r\n        _;\r\n    }\r\n\r\n    // Open the lottery pool\r\n    function openPool() public onlyOwner {\r\n        require(ticketPrice > 0, \"Ticket price must be set.\");\r\n        isPoolOpen = true;\r\n\r\n        emit PoolOpened(ticketPrice);\r\n    }\r\n\r\n    // Set the ticket price\r\n     function setTicketPrice(uint256 _ticketPrice) public onlyOwner{\r\n        require(!isPoolOpen, \"Lottery pool is already open.\");\r\n        require(_ticketPrice > 0, \"Ticket price must be greater than 0.\");\r\n        ticketPrice = _ticketPrice;\r\n    }\r\n\r\n    // Get the total number of tickets bought by players\r\n    function getTotalTicketsBought() public view returns (uint256) {\r\n        return totalTickets;\r\n    }\r\n\r\n    // Get the current balance of the lottery pool\r\n    function getPoolBalance() public view returns (uint256) {\r\n        return totalTickets * (ticketPrice);\r\n    }\r\n\r\n    // Add a player to the lottery pool\r\n    function addPlayer(string memory _name, address _address, uint256 _numberOfTicketsBought) public payable {\r\n        require(isPoolOpen, \"Lottery pool is not yet open.\");\r\n        require(msg.sender == _address, \"The address provided does not match the sender's address.\");\r\n        require(_numberOfTicketsBought > 0, \"Number of tickets bought should be greater than 0\");\r\n        require(msg.value == _numberOfTicketsBought * (ticketPrice), \"Insufficient funds to buy tickets\");\r\n\r\n        Player storage player = players[msg.sender];\r\n        player.name = _name;\r\n        player.addr = _address;\r\n        player.numberOfTicketsBought = player.numberOfTicketsBought + (_numberOfTicketsBought);\r\n\r\n\r\n        playerTickets[_address] = _numberOfTicketsBought;\r\n        for (uint256 i = 0; i < _numberOfTicketsBought; i++) {\r\n            ticketToPlayer[ticketNumber] = _address;\r\n            ticketNumber++;\r\n        }\r\n\r\n        totalTickets += _numberOfTicketsBought;\r\n        poolBalance += msg.value;\r\n\r\n        emit PlayerAdded(_address, _name, _numberOfTicketsBought);\r\n    }\r\n\r\n    function drawWinner() public onlyOwner {\r\n        require(totalTickets >= 2, \"Cannot draw a winner with less than 2 players.\");\r\n        require(!isWinnerDrawn, \"Winner already drawn\");\r\n        isWinnerDrawn = true;\r\n        \r\n        // Calculate the winning amount and transfer it to the winner and the owner\r\n        uint256 winningTicket = uint256(keccak256(abi.encodePacked(block.timestamp, block.difficulty))) % totalTickets;\r\n        address winner = ticketToPlayer[winningTicket];\r\n        uint256 amountWon = poolBalance * 95 / 100;\r\n        uint256 ownerFee = poolBalance - amountWon;\r\n        \r\n        (bool sent, bytes memory data) = winner.call{value: amountWon}(\"\");\r\n        (bool sent2, bytes memory data2) = owner.call{value: ownerFee}(\"\");\r\n        require(sent, \"Failed to send Ether to winner\");\r\n        require(sent2, \"Failed to send Ether to owner\");\r\n\r\n        // Reset the lottery pool for the next round\r\n        totalTickets = 0;\r\n        poolBalance = 0;\r\n\r\n        // Emit an event with the winner and the winning amount\r\n        emit LotteryWinner(winner, amountWon);\r\n    }\r\n}\r\n",
  "sourcePath": "C:\\Users\\nikdu\\Documents\\GitHub\\IFT4100_TP3\\contrats\\contracts\\Lottery.sol",
  "compiler": {
    "name": "solc",
    "version": "0.8.19+commit.7dd6d404.Emscripten.clang"
  },
  "schemaVersion": "3.4.13",
  "updatedAt": "2023-04-06T15:51:21.722Z",
  "networkType": "ethereum",
  "devdoc": {
    "kind": "dev",
    "methods": {},
    "version": 1
  },
  "userdoc": {
    "kind": "user",
    "methods": {},
    "version": 1
  }
}