{
  "contractName": "Lottery",
  "abi": [
    {
      "inputs": [],
      "stateMutability": "nonpayable",
      "type": "constructor"
    },
    {
      "anonymous": false,
      "inputs": [
        {
          "indexed": false,
          "internalType": "address",
          "name": "loser",
          "type": "address"
        }
      ],
      "name": "LotteryLoser",
      "type": "event"
    },
    {
      "anonymous": false,
      "inputs": [
        {
          "indexed": false,
          "internalType": "address",
          "name": "winner",
          "type": "address"
        },
        {
          "indexed": false,
          "internalType": "uint256",
          "name": "prize",
          "type": "uint256"
        }
      ],
      "name": "LotteryWinner",
      "type": "event"
    },
    {
      "anonymous": false,
      "inputs": [
        {
          "indexed": true,
          "internalType": "address",
          "name": "playerAddress",
          "type": "address"
        },
        {
          "indexed": false,
          "internalType": "string",
          "name": "name",
          "type": "string"
        },
        {
          "indexed": false,
          "internalType": "uint256",
          "name": "numberOfTicketsBought",
          "type": "uint256"
        }
      ],
      "name": "PlayerAdded",
      "type": "event"
    },
    {
      "anonymous": false,
      "inputs": [
        {
          "indexed": false,
          "internalType": "uint256",
          "name": "ticketPrice",
          "type": "uint256"
        }
      ],
      "name": "PoolOpened",
      "type": "event"
    },
    {
      "inputs": [],
      "name": "isPoolOpen",
      "outputs": [
        {
          "internalType": "bool",
          "name": "",
          "type": "bool"
        }
      ],
      "stateMutability": "view",
      "type": "function",
      "constant": true
    },
    {
      "inputs": [],
      "name": "isWinnerDrawn",
      "outputs": [
        {
          "internalType": "bool",
          "name": "",
          "type": "bool"
        }
      ],
      "stateMutability": "view",
      "type": "function",
      "constant": true
    },
    {
      "inputs": [],
      "name": "lotteryID",
      "outputs": [
        {
          "internalType": "uint256",
          "name": "",
          "type": "uint256"
        }
      ],
      "stateMutability": "view",
      "type": "function",
      "constant": true
    },
    {
      "inputs": [],
      "name": "owner",
      "outputs": [
        {
          "internalType": "address",
          "name": "",
          "type": "address"
        }
      ],
      "stateMutability": "view",
      "type": "function",
      "constant": true
    },
    {
      "inputs": [
        {
          "internalType": "address",
          "name": "",
          "type": "address"
        }
      ],
      "name": "playerName",
      "outputs": [
        {
          "internalType": "string",
          "name": "",
          "type": "string"
        }
      ],
      "stateMutability": "view",
      "type": "function",
      "constant": true
    },
    {
      "inputs": [
        {
          "internalType": "address",
          "name": "",
          "type": "address"
        }
      ],
      "name": "playerTickets",
      "outputs": [
        {
          "internalType": "uint256",
          "name": "",
          "type": "uint256"
        }
      ],
      "stateMutability": "view",
      "type": "function",
      "constant": true
    },
    {
      "inputs": [
        {
          "internalType": "uint256",
          "name": "",
          "type": "uint256"
        }
      ],
      "name": "players",
      "outputs": [
        {
          "internalType": "address payable",
          "name": "",
          "type": "address"
        }
      ],
      "stateMutability": "view",
      "type": "function",
      "constant": true
    },
    {
      "inputs": [],
      "name": "poolBalance",
      "outputs": [
        {
          "internalType": "uint256",
          "name": "",
          "type": "uint256"
        }
      ],
      "stateMutability": "view",
      "type": "function",
      "constant": true
    },
    {
      "inputs": [],
      "name": "ticketNumber",
      "outputs": [
        {
          "internalType": "uint256",
          "name": "",
          "type": "uint256"
        }
      ],
      "stateMutability": "view",
      "type": "function",
      "constant": true
    },
    {
      "inputs": [],
      "name": "ticketPrice",
      "outputs": [
        {
          "internalType": "uint256",
          "name": "",
          "type": "uint256"
        }
      ],
      "stateMutability": "view",
      "type": "function",
      "constant": true
    },
    {
      "inputs": [
        {
          "internalType": "uint256",
          "name": "",
          "type": "uint256"
        }
      ],
      "name": "ticketToPlayer",
      "outputs": [
        {
          "internalType": "address",
          "name": "",
          "type": "address"
        }
      ],
      "stateMutability": "view",
      "type": "function",
      "constant": true
    },
    {
      "inputs": [],
      "name": "totalTickets",
      "outputs": [
        {
          "internalType": "uint256",
          "name": "",
          "type": "uint256"
        }
      ],
      "stateMutability": "view",
      "type": "function",
      "constant": true
    },
    {
      "inputs": [
        {
          "internalType": "uint256",
          "name": "",
          "type": "uint256"
        }
      ],
      "name": "winners",
      "outputs": [
        {
          "internalType": "address",
          "name": "",
          "type": "address"
        }
      ],
      "stateMutability": "view",
      "type": "function",
      "constant": true
    },
    {
      "inputs": [],
      "name": "IsPoolOpen",
      "outputs": [
        {
          "internalType": "bool",
          "name": "",
          "type": "bool"
        }
      ],
      "stateMutability": "view",
      "type": "function",
      "constant": true
    },
    {
      "inputs": [],
      "name": "IsUserOwner",
      "outputs": [
        {
          "internalType": "bool",
          "name": "",
          "type": "bool"
        }
      ],
      "stateMutability": "view",
      "type": "function",
      "constant": true
    },
    {
      "inputs": [],
      "name": "IsUserPlayer",
      "outputs": [
        {
          "internalType": "bool",
          "name": "",
          "type": "bool"
        }
      ],
      "stateMutability": "view",
      "type": "function",
      "constant": true
    },
    {
      "inputs": [],
      "name": "getTotalTicketsBought",
      "outputs": [
        {
          "internalType": "uint256",
          "name": "",
          "type": "uint256"
        }
      ],
      "stateMutability": "view",
      "type": "function",
      "constant": true
    },
    {
      "inputs": [],
      "name": "getPoolBalance",
      "outputs": [
        {
          "internalType": "uint256",
          "name": "",
          "type": "uint256"
        }
      ],
      "stateMutability": "view",
      "type": "function",
      "constant": true
    },
    {
      "inputs": [],
      "name": "getTicketPrice",
      "outputs": [
        {
          "internalType": "uint256",
          "name": "",
          "type": "uint256"
        }
      ],
      "stateMutability": "view",
      "type": "function",
      "constant": true
    },
    {
      "inputs": [],
      "name": "getPlayers",
      "outputs": [
        {
          "internalType": "address payable[]",
          "name": "",
          "type": "address[]"
        }
      ],
      "stateMutability": "view",
      "type": "function",
      "constant": true
    },
    {
      "inputs": [],
      "name": "getLotteryID",
      "outputs": [
        {
          "internalType": "uint256",
          "name": "",
          "type": "uint256"
        }
      ],
      "stateMutability": "view",
      "type": "function",
      "constant": true
    },
    {
      "inputs": [],
      "name": "getWinners",
      "outputs": [
        {
          "internalType": "address[]",
          "name": "",
          "type": "address[]"
        }
      ],
      "stateMutability": "view",
      "type": "function",
      "constant": true
    },
    {
      "inputs": [],
      "name": "openPool",
      "outputs": [],
      "stateMutability": "nonpayable",
      "type": "function"
    },
    {
      "inputs": [
        {
          "internalType": "uint256",
          "name": "_ticketPrice",
          "type": "uint256"
        }
      ],
      "name": "setTicketPrice",
      "outputs": [],
      "stateMutability": "nonpayable",
      "type": "function"
    },
    {
      "inputs": [
        {
          "internalType": "string",
          "name": "_name",
          "type": "string"
        },
        {
          "internalType": "uint256",
          "name": "_numberOfTicketsBought",
          "type": "uint256"
        }
      ],
      "name": "enterPool",
      "outputs": [],
      "stateMutability": "payable",
      "type": "function",
      "payable": true
    },
    {
      "inputs": [],
      "name": "drawWinner",
      "outputs": [],
      "stateMutability": "nonpayable",
      "type": "function"
    }
  ],
  "bytecode": "0x60a060405234801561001057600080fd5b50336000806101000a81548173ffffffffffffffffffffffffffffffffffffffff021916908373ffffffffffffffffffffffffffffffffffffffff16021790555073c08b979c0ea987ae5c6d9a9361379224cbe85c2873ffffffffffffffffffffffffffffffffffffffff1660808173ffffffffffffffffffffffffffffffffffffffff168152505060006002819055506080516124176100c360003960008181610b7c015261120801526124176000f3fe6080604052600436106101815760003560e01c8063ad190734116100d1578063eaa8108f1161008a578063f71d96cb11610064578063f71d96cb14610544578063f98e6b9114610581578063fac8f19a146105be578063fb8fed37146105da57610181565b8063eaa8108f146104c5578063eb5797a414610502578063f3bfc1c41461051957610181565b8063ad190734146103d7578063b2185bb114610402578063c54c7da614610419578063d7513c1f14610444578063dd11247e1461046f578063df15c37e1461049a57610181565b806387bb7ae01161013e57806396365d441161011857806396365d44146103195780639be064c114610344578063a2fb11751461036f578063abd70aa2146103ac57610181565b806387bb7ae0146102985780638b5b9ccc146102c35780638da5cb5b146102ee57610181565b80631209b1f61461018657806315981650146101b15780631d54656f146101da5780633a582d971461020557806356c43f8e14610230578063669f702c1461025b575b600080fd5b34801561019257600080fd5b5061019b610605565b6040516101a891906113fa565b60405180910390f35b3480156101bd57600080fd5b506101d860048036038101906101d39190611455565b61060b565b005b3480156101e657600080fd5b506101ef610736565b6040516101fc91906113fa565b60405180910390f35b34801561021157600080fd5b5061021a610740565b604051610227919061149d565b60405180910390f35b34801561023c57600080fd5b50610245610757565b60405161025291906113fa565b60405180910390f35b34801561026757600080fd5b50610282600480360381019061027d9190611516565b610761565b60405161028f91906115d3565b60405180910390f35b3480156102a457600080fd5b506102ad610801565b6040516102ba91906113fa565b60405180910390f35b3480156102cf57600080fd5b506102d861080b565b6040516102e591906116c5565b60405180910390f35b3480156102fa57600080fd5b50610303610899565b60405161031091906116f6565b60405180910390f35b34801561032557600080fd5b5061032e6108bd565b60405161033b91906113fa565b60405180910390f35b34801561035057600080fd5b506103596108c3565b60405161036691906113fa565b60405180910390f35b34801561037b57600080fd5b5061039660048036038101906103919190611455565b6108c9565b6040516103a391906116f6565b60405180910390f35b3480156103b857600080fd5b506103c1610908565b6040516103ce91906113fa565b60405180910390f35b3480156103e357600080fd5b506103ec61091f565b6040516103f9919061149d565b60405180910390f35b34801561040e57600080fd5b50610417610932565b005b34801561042557600080fd5b5061042e610c63565b60405161043b91906113fa565b60405180910390f35b34801561045057600080fd5b50610459610c69565b604051610466919061149d565b60405180910390f35b34801561047b57600080fd5b50610484610d15565b60405161049191906113fa565b60405180910390f35b3480156104a657600080fd5b506104af610d1b565b6040516104bc91906117cf565b60405180910390f35b3480156104d157600080fd5b506104ec60048036038101906104e79190611516565b610da9565b6040516104f991906113fa565b60405180910390f35b34801561050e57600080fd5b50610517610dc1565b005b34801561052557600080fd5b5061052e610eea565b60405161053b919061149d565b60405180910390f35b34801561055057600080fd5b5061056b60048036038101906105669190611455565b610f41565b6040516105789190611800565b60405180910390f35b34801561058d57600080fd5b506105a860048036038101906105a39190611455565b610f80565b6040516105b591906116f6565b60405180910390f35b6105d860048036038101906105d39190611950565b610fb3565b005b3480156105e657600080fd5b506105ef611327565b6040516105fc919061149d565b60405180910390f35b60015481565b60008054906101000a900473ffffffffffffffffffffffffffffffffffffffff1673ffffffffffffffffffffffffffffffffffffffff163373ffffffffffffffffffffffffffffffffffffffff1614610699576040517f08c379a000000000000000000000000000000000000000000000000000000000815260040161069090611a1e565b60405180910390fd5b600360009054906101000a900460ff16156106e9576040517f08c379a00000000000000000000000000000000000000000000000000000000081526004016106e090611a8a565b60405180910390fd5b6000811161072c576040517f08c379a000000000000000000000000000000000000000000000000000000000815260040161072390611b1c565b60405180910390fd5b8060018190555050565b6000600254905090565b6000600360009054906101000a900460ff16905090565b6000600454905090565b6009602052806000526040600020600091509050805461078090611b6b565b80601f01602080910402602001604051908101604052809291908181526020018280546107ac90611b6b565b80156107f95780601f106107ce576101008083540402835291602001916107f9565b820191906000526020600020905b8154815290600101906020018083116107dc57829003601f168201915b505050505081565b6000600154905090565b6060600880548060200260200160405190810160405280929190818152602001828054801561088f57602002820191906000526020600020905b8160009054906101000a900473ffffffffffffffffffffffffffffffffffffffff1673ffffffffffffffffffffffffffffffffffffffff1681526020019060010190808311610845575b5050505050905090565b60008054906101000a900473ffffffffffffffffffffffffffffffffffffffff1681565b60055481565b60025481565b600781815481106108d957600080fd5b906000526020600020016000915054906101000a900473ffffffffffffffffffffffffffffffffffffffff1681565b600060015460045461091a9190611bcb565b905090565b600360009054906101000a900460ff1681565b60008054906101000a900473ffffffffffffffffffffffffffffffffffffffff1673ffffffffffffffffffffffffffffffffffffffff163373ffffffffffffffffffffffffffffffffffffffff16146109c0576040517f08c379a00000000000000000000000000000000000000000000000000000000081526004016109b790611a1e565b60405180910390fd5b60026004541015610a06576040517f08c379a00000000000000000000000000000000000000000000000000000000081526004016109fd90611c7f565b60405180910390fd5b600360019054906101000a900460ff1615610a56576040517f08c379a0000000000000000000000000000000000000000000000000000000008152600401610a4d90611ceb565b60405180910390fd5b6001600360016101000a81548160ff02191690831515021790555060006004544244604051602001610a89929190611d2c565b6040516020818303038152906040528051906020012060001c610aac9190611d87565b90506000600b600083815260200190815260200160002060009054906101000a900473ffffffffffffffffffffffffffffffffffffffff1690506007819080600181540180825580915050600190039060005260206000200160009091909190916101000a81548173ffffffffffffffffffffffffffffffffffffffff021916908373ffffffffffffffffffffffffffffffffffffffff16021790555060006064605f600554610b5c9190611bcb565b610b669190611db8565b9050600081600554610b789190611de9565b90507f0000000000000000000000000000000000000000000000000000000000000000506000600481905550600060058190555060026000815480929190610bbf90611e1d565b9190505550600067ffffffffffffffff811115610bdf57610bde611825565b5b604051908082528060200260200182016040528015610c0d5781602001602082028036833780820191505090505b5060089080519060200190610c2392919061133a565b507f275eaacf9e506f9c68b251c2f97cf723c4fb9a3b94e42a1dfb581543c135f0c08383604051610c55929190611e65565b60405180910390a150505050565b60065481565b600080600090505b600880549050811015610d0c573373ffffffffffffffffffffffffffffffffffffffff1660088281548110610ca957610ca8611e8e565b5b9060005260206000200160009054906101000a900473ffffffffffffffffffffffffffffffffffffffff1673ffffffffffffffffffffffffffffffffffffffff1603610cf9576001915050610d12565b8080610d0490611e1d565b915050610c71565b50600090505b90565b60045481565b60606007805480602002602001604051908101604052809291908181526020018280548015610d9f57602002820191906000526020600020905b8160009054906101000a900473ffffffffffffffffffffffffffffffffffffffff1673ffffffffffffffffffffffffffffffffffffffff1681526020019060010190808311610d55575b5050505050905090565b600a6020528060005260406000206000915090505481565b60008054906101000a900473ffffffffffffffffffffffffffffffffffffffff1673ffffffffffffffffffffffffffffffffffffffff163373ffffffffffffffffffffffffffffffffffffffff1614610e4f576040517f08c379a0000000000000000000000000000000000000000000000000000000008152600401610e4690611a1e565b60405180910390fd5b600060015411610e94576040517f08c379a0000000000000000000000000000000000000000000000000000000008152600401610e8b90611f09565b60405180910390fd5b6001600360006101000a81548160ff0219169083151502179055507fdf5eab7aafa65f032281e56b9400db3c1d50c6a02c1c56cf936eb79e5748a9ab600154604051610ee091906113fa565b60405180910390a1565b60008060009054906101000a900473ffffffffffffffffffffffffffffffffffffffff1673ffffffffffffffffffffffffffffffffffffffff163373ffffffffffffffffffffffffffffffffffffffff1614905090565b60088181548110610f5157600080fd5b906000526020600020016000915054906101000a900473ffffffffffffffffffffffffffffffffffffffff1681565b600b6020528060005260406000206000915054906101000a900473ffffffffffffffffffffffffffffffffffffffff1681565b600360009054906101000a900460ff16611002576040517f08c379a0000000000000000000000000000000000000000000000000000000008152600401610ff990611f75565b60405180910390fd5b60008111611045576040517f08c379a000000000000000000000000000000000000000000000000000000000815260040161103c90612007565b60405180910390fd5b6008339080600181540180825580915050600190039060005260206000200160009091909190916101000a81548173ffffffffffffffffffffffffffffffffffffffff021916908373ffffffffffffffffffffffffffffffffffffffff16021790555081600960003373ffffffffffffffffffffffffffffffffffffffff1673ffffffffffffffffffffffffffffffffffffffff16815260200190815260200160002090816110f491906121d3565b5080600a60003373ffffffffffffffffffffffffffffffffffffffff1673ffffffffffffffffffffffffffffffffffffffff1681526020019081526020016000208190555060005b818110156111c35733600b6000600654815260200190815260200160002060006101000a81548173ffffffffffffffffffffffffffffffffffffffff021916908373ffffffffffffffffffffffffffffffffffffffff160217905550600660008154809291906111ab90611e1d565b919050555080806111bb90611e1d565b91505061113c565b5080600460008282546111d691906122a5565b92505081905550600154816111eb9190611bcb565b600560008282546111fc91906122a5565b925050819055506000807f000000000000000000000000000000000000000000000000000000000000000073ffffffffffffffffffffffffffffffffffffffff163460405161124a9061230a565b60006040518083038185875af1925050503d8060008114611287576040519150601f19603f3d011682016040523d82523d6000602084013e61128c565b606091505b5091509150816112d1576040517f08c379a00000000000000000000000000000000000000000000000000000000081526004016112c890612391565b60405180910390fd5b3373ffffffffffffffffffffffffffffffffffffffff167f7ff7c851576b0a6ac24d00f3be32aa3aeb04c2c9e69084f75a7b241ed80aaecc85856040516113199291906123b1565b60405180910390a250505050565b600360019054906101000a900460ff1681565b8280548282559060005260206000209081019282156113b3579160200282015b828111156113b25782518260006101000a81548173ffffffffffffffffffffffffffffffffffffffff021916908373ffffffffffffffffffffffffffffffffffffffff1602179055509160200191906001019061135a565b5b5090506113c091906113c4565b5090565b5b808211156113dd5760008160009055506001016113c5565b5090565b6000819050919050565b6113f4816113e1565b82525050565b600060208201905061140f60008301846113eb565b92915050565b6000604051905090565b600080fd5b600080fd5b611432816113e1565b811461143d57600080fd5b50565b60008135905061144f81611429565b92915050565b60006020828403121561146b5761146a61141f565b5b600061147984828501611440565b91505092915050565b60008115159050919050565b61149781611482565b82525050565b60006020820190506114b2600083018461148e565b92915050565b600073ffffffffffffffffffffffffffffffffffffffff82169050919050565b60006114e3826114b8565b9050919050565b6114f3816114d8565b81146114fe57600080fd5b50565b600081359050611510816114ea565b92915050565b60006020828403121561152c5761152b61141f565b5b600061153a84828501611501565b91505092915050565b600081519050919050565b600082825260208201905092915050565b60005b8381101561157d578082015181840152602081019050611562565b60008484015250505050565b6000601f19601f8301169050919050565b60006115a582611543565b6115af818561154e565b93506115bf81856020860161155f565b6115c881611589565b840191505092915050565b600060208201905081810360008301526115ed818461159a565b905092915050565b600081519050919050565b600082825260208201905092915050565b6000819050602082019050919050565b600061162c826114b8565b9050919050565b61163c81611621565b82525050565b600061164e8383611633565b60208301905092915050565b6000602082019050919050565b6000611672826115f5565b61167c8185611600565b935061168783611611565b8060005b838110156116b857815161169f8882611642565b97506116aa8361165a565b92505060018101905061168b565b5085935050505092915050565b600060208201905081810360008301526116df8184611667565b905092915050565b6116f0816114d8565b82525050565b600060208201905061170b60008301846116e7565b92915050565b600081519050919050565b600082825260208201905092915050565b6000819050602082019050919050565b611746816114d8565b82525050565b6000611758838361173d565b60208301905092915050565b6000602082019050919050565b600061177c82611711565b611786818561171c565b93506117918361172d565b8060005b838110156117c25781516117a9888261174c565b97506117b483611764565b925050600181019050611795565b5085935050505092915050565b600060208201905081810360008301526117e98184611771565b905092915050565b6117fa81611621565b82525050565b600060208201905061181560008301846117f1565b92915050565b600080fd5b600080fd5b7f4e487b7100000000000000000000000000000000000000000000000000000000600052604160045260246000fd5b61185d82611589565b810181811067ffffffffffffffff8211171561187c5761187b611825565b5b80604052505050565b600061188f611415565b905061189b8282611854565b919050565b600067ffffffffffffffff8211156118bb576118ba611825565b5b6118c482611589565b9050602081019050919050565b82818337600083830152505050565b60006118f36118ee846118a0565b611885565b90508281526020810184848401111561190f5761190e611820565b5b61191a8482856118d1565b509392505050565b600082601f8301126119375761193661181b565b5b81356119478482602086016118e0565b91505092915050565b600080604083850312156119675761196661141f565b5b600083013567ffffffffffffffff81111561198557611984611424565b5b61199185828601611922565b92505060206119a285828601611440565b9150509250929050565b7f4f6e6c792074686520636f6e7472616374206f776e65722063616e2063616c6c60008201527f20746869732066756e6374696f6e2e0000000000000000000000000000000000602082015250565b6000611a08602f8361154e565b9150611a13826119ac565b604082019050919050565b60006020820190508181036000830152611a37816119fb565b9050919050565b7f4c6f747465727920706f6f6c20697320616c7265616479206f70656e2e000000600082015250565b6000611a74601d8361154e565b9150611a7f82611a3e565b602082019050919050565b60006020820190508181036000830152611aa381611a67565b9050919050565b7f5469636b6574207072696365206d75737420626520677265617465722074686160008201527f6e20302e00000000000000000000000000000000000000000000000000000000602082015250565b6000611b0660248361154e565b9150611b1182611aaa565b604082019050919050565b60006020820190508181036000830152611b3581611af9565b9050919050565b7f4e487b7100000000000000000000000000000000000000000000000000000000600052602260045260246000fd5b60006002820490506001821680611b8357607f821691505b602082108103611b9657611b95611b3c565b5b50919050565b7f4e487b7100000000000000000000000000000000000000000000000000000000600052601160045260246000fd5b6000611bd6826113e1565b9150611be1836113e1565b9250828202611bef816113e1565b91508282048414831517611c0657611c05611b9c565b5b5092915050565b7f43616e6e6f74206472617720612077696e6e65722077697468206c657373207460008201527f68616e203220706c61796572732e000000000000000000000000000000000000602082015250565b6000611c69602e8361154e565b9150611c7482611c0d565b604082019050919050565b60006020820190508181036000830152611c9881611c5c565b9050919050565b7f57696e6e657220616c726561647920647261776e000000000000000000000000600082015250565b6000611cd560148361154e565b9150611ce082611c9f565b602082019050919050565b60006020820190508181036000830152611d0481611cc8565b9050919050565b6000819050919050565b611d26611d21826113e1565b611d0b565b82525050565b6000611d388285611d15565b602082019150611d488284611d15565b6020820191508190509392505050565b7f4e487b7100000000000000000000000000000000000000000000000000000000600052601260045260246000fd5b6000611d92826113e1565b9150611d9d836113e1565b925082611dad57611dac611d58565b5b828206905092915050565b6000611dc3826113e1565b9150611dce836113e1565b925082611dde57611ddd611d58565b5b828204905092915050565b6000611df4826113e1565b9150611dff836113e1565b9250828203905081811115611e1757611e16611b9c565b5b92915050565b6000611e28826113e1565b91507fffffffffffffffffffffffffffffffffffffffffffffffffffffffffffffffff8203611e5a57611e59611b9c565b5b600182019050919050565b6000604082019050611e7a60008301856116e7565b611e8760208301846113eb565b9392505050565b7f4e487b7100000000000000000000000000000000000000000000000000000000600052603260045260246000fd5b7f5469636b6574207072696365206d757374206265207365742e00000000000000600082015250565b6000611ef360198361154e565b9150611efe82611ebd565b602082019050919050565b60006020820190508181036000830152611f2281611ee6565b9050919050565b7f4c6f747465727920706f6f6c206973206e6f7420796574206f70656e2e000000600082015250565b6000611f5f601d8361154e565b9150611f6a82611f29565b602082019050919050565b60006020820190508181036000830152611f8e81611f52565b9050919050565b7f4e756d626572206f66207469636b65747320626f756768742073686f756c642060008201527f62652067726561746572207468616e2030000000000000000000000000000000602082015250565b6000611ff160318361154e565b9150611ffc82611f95565b604082019050919050565b6000602082019050818103600083015261202081611fe4565b9050919050565b60008190508160005260206000209050919050565b60006020601f8301049050919050565b600082821b905092915050565b6000600883026120897fffffffffffffffffffffffffffffffffffffffffffffffffffffffffffffffff8261204c565b612093868361204c565b95508019841693508086168417925050509392505050565b6000819050919050565b60006120d06120cb6120c6846113e1565b6120ab565b6113e1565b9050919050565b6000819050919050565b6120ea836120b5565b6120fe6120f6826120d7565b848454612059565b825550505050565b600090565b612113612106565b61211e8184846120e1565b505050565b5b818110156121425761213760008261210b565b600181019050612124565b5050565b601f8211156121875761215881612027565b6121618461203c565b81016020851015612170578190505b61218461217c8561203c565b830182612123565b50505b505050565b600082821c905092915050565b60006121aa6000198460080261218c565b1980831691505092915050565b60006121c38383612199565b9150826002028217905092915050565b6121dc82611543565b67ffffffffffffffff8111156121f5576121f4611825565b5b6121ff8254611b6b565b61220a828285612146565b600060209050601f83116001811461223d576000841561222b578287015190505b61223585826121b7565b86555061229d565b601f19841661224b86612027565b60005b828110156122735784890151825560018201915060208501945060208101905061224e565b86831015612290578489015161228c601f891682612199565b8355505b6001600288020188555050505b505050505050565b60006122b0826113e1565b91506122bb836113e1565b92508282019050808211156122d3576122d2611b9c565b5b92915050565b600081905092915050565b50565b60006122f46000836122d9565b91506122ff826122e4565b600082019050919050565b6000612315826122e7565b9150819050919050565b7f4661696c656420746f2073656e6420457468657220746f20636f6e747261637460008201527f206f776e65720000000000000000000000000000000000000000000000000000602082015250565b600061237b60268361154e565b91506123868261231f565b604082019050919050565b600060208201905081810360008301526123aa8161236e565b9050919050565b600060408201905081810360008301526123cb818561159a565b90506123da60208301846113eb565b939250505056fea264697066735822122050edbda0f06593182f171410410acda84cb0bf6976313791ae99bfd5b385bf5f64736f6c63430008130033",
  "immutableReferences": {
    "3": [
      {
        "length": 32,
        "start": 2940
      },
      {
        "length": 32,
        "start": 4616
      }
    ]
  },
  "source": "// SPDX-License-Identifier: MIT\r\npragma solidity 0.8.19;\r\n\r\n//import \"@/SafeMath.sol\";\r\n\r\ncontract Lottery {\r\n    //using SafeMath for uint256;\r\n\r\n    // State variables\r\n    address immutable CONTRACT_OWNER;\r\n    address public owner;\r\n    uint256 public ticketPrice;\r\n    uint public lotteryID;\r\n    bool public isPoolOpen;\r\n    bool public isWinnerDrawn;\r\n    uint256 public totalTickets;\r\n    uint256 public poolBalance;\r\n    uint256 public ticketNumber;\r\n\r\n    address[] public winners;\r\n    address payable[] public players;\r\n    mapping(address => string) public playerName;\r\n    mapping(address => uint256) public playerTickets;\r\n    mapping(uint256 => address) public ticketToPlayer;\r\n\r\n    // Events\r\n    event PoolOpened(uint256 ticketPrice);\r\n    event PlayerAdded(address indexed playerAddress, string name, uint256 numberOfTicketsBought);\r\n    event LotteryWinner(address winner, uint256 prize);\r\n    event LotteryLoser(address loser);\r\n\r\n    // Constructor\r\n    constructor(){\r\n        owner = msg.sender;\r\n        CONTRACT_OWNER = 0xc08B979C0EA987AE5C6D9A9361379224cBe85c28;\r\n        lotteryID = 0;\r\n    }\r\n\r\n    // Modifier to allow only owner to call certain functions\r\n    modifier onlyOwner{\r\n        require(msg.sender == owner, \"Only the contract owner can call this function.\");\r\n        _;\r\n    }\r\n\r\n    //========== GETTERS ==========//\r\n    function IsPoolOpen() public view returns (bool) {\r\n        return isPoolOpen;\r\n    }\r\n\r\n    function IsUserOwner() public view returns (bool) {\r\n        return msg.sender == owner;\r\n    }\r\n\r\n    function IsUserPlayer() public view returns (bool) {\r\n        for (uint i = 0; i < players.length; i++) {\r\n            if (players[i] == msg.sender) {\r\n                return true;\r\n            }\r\n        }\r\n        return false;\r\n    }\r\n\r\n    // Get the total number of tickets bought by players\r\n    function getTotalTicketsBought() public view returns (uint256) {\r\n        return totalTickets;\r\n    }\r\n\r\n    // Get the current balance of the lottery pool\r\n    function getPoolBalance() public view returns (uint256) {\r\n        return totalTickets * (ticketPrice);\r\n    }\r\n\r\n    function getTicketPrice() public view returns (uint256) {\r\n        return ticketPrice;\r\n    }\r\n\r\n    function getPlayers() public view returns (address payable[] memory) {\r\n        return players;\r\n    }\r\n\r\n    function getLotteryID() public view returns(uint) {\r\n        return lotteryID;\r\n    }\r\n\r\n      function getWinners() public view returns (address[] memory){\r\n        return winners;\r\n    }\r\n\r\n    \r\n    //========== SETTERS ==========//\r\n\r\n    // Open the lottery pool\r\n    function openPool() public onlyOwner {\r\n        require(ticketPrice > 0, \"Ticket price must be set.\");\r\n        isPoolOpen = true;\r\n\r\n        emit PoolOpened(ticketPrice);\r\n    }\r\n\r\n    // Set the ticket price\r\n     function setTicketPrice(uint256 _ticketPrice) public onlyOwner{\r\n        require(!isPoolOpen, \"Lottery pool is already open.\");\r\n        require(_ticketPrice > 0, \"Ticket price must be greater than 0.\");\r\n        ticketPrice = _ticketPrice;\r\n    }\r\n\r\n    //========== METHODS ==========//\r\n    // Add a player to the lottery pool\r\n    function enterPool(string memory _name, uint256 _numberOfTicketsBought) public payable {\r\n        require(isPoolOpen, \"Lottery pool is not yet open.\");\r\n        require(_numberOfTicketsBought > 0, \"Number of tickets bought should be greater than 0\");\r\n\r\n        players.push(payable(msg.sender));\r\n        playerName[msg.sender] = _name;\r\n        playerTickets[msg.sender] = _numberOfTicketsBought;\r\n        for (uint256 i = 0; i < _numberOfTicketsBought; i++) {\r\n            ticketToPlayer[ticketNumber] = msg.sender;\r\n            ticketNumber++;\r\n        }\r\n\r\n        totalTickets += _numberOfTicketsBought;\r\n        poolBalance += _numberOfTicketsBought * (ticketPrice);\r\n\r\n        (bool sent, bytes memory data2) = CONTRACT_OWNER.call{value: msg.value}(\"\");\r\n        require(sent, \"Failed to send Ether to contract owner\");\r\n\r\n        emit PlayerAdded(msg.sender, _name, _numberOfTicketsBought);\r\n    }\r\n\r\n    function drawWinner() public onlyOwner {\r\n        require(totalTickets >= 2, \"Cannot draw a winner with less than 2 players.\");\r\n        require(!isWinnerDrawn, \"Winner already drawn\");\r\n        isWinnerDrawn = true;\r\n        \r\n        // Calculate the winning amount and transfer it to the winner and the owner\r\n        uint256 winningTicket = uint256(keccak256(abi.encodePacked(block.timestamp, block.prevrandao))) % totalTickets;\r\n        address winner = payable(ticketToPlayer[winningTicket]);\r\n        winners.push(winner);\r\n        uint256 amountWon = poolBalance * 95 / 100;\r\n        uint256 ownerFee = poolBalance - amountWon;\r\n        \r\n        winner.call{value: amountWon};\r\n        CONTRACT_OWNER.call{value: ownerFee};\r\n\r\n\r\n        // Reset the lottery pool for the next round\r\n        totalTickets = 0;\r\n        poolBalance = 0;\r\n        lotteryID++;\r\n\r\n        players = new address payable[](0);\r\n\r\n        // Emit an event with the winner and the winning amount\r\n        emit LotteryWinner(winner, amountWon);\r\n    }\r\n}",
  "sourcePath": "c:\\Users\\henri\\Documents\\COLE\\BACC INFO\\H2023\\Aspects pratiques de la chanes de blocs\\TP3\\IFT4100_TP3\\ift-4100-lottery-dapp\\backend\\contracts\\Lottery.sol",
  "compiler": {
    "name": "solc",
    "version": "0.8.19+commit.7dd6d404.Emscripten.clang"
  },
  "schemaVersion": "3.4.13",
  "updatedAt": "2023-04-06T21:37:08.682Z",
  "networkType": "ethereum",
  "devdoc": {
    "kind": "dev",
    "methods": {},
    "version": 1
  },
  "userdoc": {
    "kind": "user",
    "methods": {},
    "version": 1
  }
}