{
  "contractName": "Lottery",
  "abi": [
    {
      "inputs": [],
      "stateMutability": "nonpayable",
      "type": "constructor"
    },
    {
      "anonymous": false,
      "inputs": [
        {
          "indexed": false,
          "internalType": "address",
          "name": "winner",
          "type": "address"
        },
        {
          "indexed": false,
          "internalType": "uint256",
          "name": "prize",
          "type": "uint256"
        }
      ],
      "name": "LotteryWinner",
      "type": "event"
    },
    {
      "anonymous": false,
      "inputs": [
        {
          "indexed": true,
          "internalType": "address",
          "name": "playerAddress",
          "type": "address"
        },
        {
          "indexed": false,
          "internalType": "string",
          "name": "name",
          "type": "string"
        },
        {
          "indexed": false,
          "internalType": "uint256",
          "name": "numberOfTicketsBought",
          "type": "uint256"
        }
      ],
      "name": "PlayerAdded",
      "type": "event"
    },
    {
      "anonymous": false,
      "inputs": [
        {
          "indexed": false,
          "internalType": "uint256",
          "name": "ticketPrice",
          "type": "uint256"
        }
      ],
      "name": "PoolOpened",
      "type": "event"
    },
    {
      "inputs": [],
      "name": "isPoolOpen",
      "outputs": [
        {
          "internalType": "bool",
          "name": "",
          "type": "bool"
        }
      ],
      "stateMutability": "view",
      "type": "function",
      "constant": true
    },
    {
      "inputs": [],
      "name": "isWinnerDrawn",
      "outputs": [
        {
          "internalType": "bool",
          "name": "",
          "type": "bool"
        }
      ],
      "stateMutability": "view",
      "type": "function",
      "constant": true
    },
    {
      "inputs": [],
      "name": "lotteryID",
      "outputs": [
        {
          "internalType": "uint256",
          "name": "",
          "type": "uint256"
        }
      ],
      "stateMutability": "view",
      "type": "function",
      "constant": true
    },
    {
      "inputs": [],
      "name": "owner",
      "outputs": [
        {
          "internalType": "address",
          "name": "",
          "type": "address"
        }
      ],
      "stateMutability": "view",
      "type": "function",
      "constant": true
    },
    {
      "inputs": [
        {
          "internalType": "address",
          "name": "",
          "type": "address"
        }
      ],
      "name": "playerTickets",
      "outputs": [
        {
          "internalType": "uint256",
          "name": "",
          "type": "uint256"
        }
      ],
      "stateMutability": "view",
      "type": "function",
      "constant": true
    },
    {
      "inputs": [
        {
          "internalType": "uint256",
          "name": "",
          "type": "uint256"
        }
      ],
      "name": "players",
      "outputs": [
        {
          "internalType": "string",
          "name": "name",
          "type": "string"
        },
        {
          "internalType": "address payable",
          "name": "addr",
          "type": "address"
        },
        {
          "internalType": "uint256",
          "name": "numOfTickets",
          "type": "uint256"
        }
      ],
      "stateMutability": "view",
      "type": "function",
      "constant": true
    },
    {
      "inputs": [],
      "name": "poolBalance",
      "outputs": [
        {
          "internalType": "uint256",
          "name": "",
          "type": "uint256"
        }
      ],
      "stateMutability": "view",
      "type": "function",
      "constant": true
    },
    {
      "inputs": [],
      "name": "ticketNumber",
      "outputs": [
        {
          "internalType": "uint256",
          "name": "",
          "type": "uint256"
        }
      ],
      "stateMutability": "view",
      "type": "function",
      "constant": true
    },
    {
      "inputs": [],
      "name": "ticketPrice",
      "outputs": [
        {
          "internalType": "uint256",
          "name": "",
          "type": "uint256"
        }
      ],
      "stateMutability": "view",
      "type": "function",
      "constant": true
    },
    {
      "inputs": [
        {
          "internalType": "uint256",
          "name": "",
          "type": "uint256"
        }
      ],
      "name": "ticketToPlayer",
      "outputs": [
        {
          "internalType": "address",
          "name": "",
          "type": "address"
        }
      ],
      "stateMutability": "view",
      "type": "function",
      "constant": true
    },
    {
      "inputs": [],
      "name": "totalTickets",
      "outputs": [
        {
          "internalType": "uint256",
          "name": "",
          "type": "uint256"
        }
      ],
      "stateMutability": "view",
      "type": "function",
      "constant": true
    },
    {
      "inputs": [
        {
          "internalType": "uint256",
          "name": "",
          "type": "uint256"
        }
      ],
      "name": "winners",
      "outputs": [
        {
          "internalType": "address",
          "name": "",
          "type": "address"
        }
      ],
      "stateMutability": "view",
      "type": "function",
      "constant": true
    },
    {
      "inputs": [],
      "name": "IsPoolOpen",
      "outputs": [
        {
          "internalType": "bool",
          "name": "",
          "type": "bool"
        }
      ],
      "stateMutability": "view",
      "type": "function",
      "constant": true
    },
    {
      "inputs": [],
      "name": "IsUserOwner",
      "outputs": [
        {
          "internalType": "bool",
          "name": "",
          "type": "bool"
        }
      ],
      "stateMutability": "view",
      "type": "function",
      "constant": true
    },
    {
      "inputs": [],
      "name": "IsUserPlayer",
      "outputs": [
        {
          "internalType": "bool",
          "name": "",
          "type": "bool"
        }
      ],
      "stateMutability": "view",
      "type": "function",
      "constant": true
    },
    {
      "inputs": [],
      "name": "getTotalTicketsBought",
      "outputs": [
        {
          "internalType": "uint256",
          "name": "",
          "type": "uint256"
        }
      ],
      "stateMutability": "view",
      "type": "function",
      "constant": true
    },
    {
      "inputs": [],
      "name": "getPoolBalance",
      "outputs": [
        {
          "internalType": "uint256",
          "name": "",
          "type": "uint256"
        }
      ],
      "stateMutability": "view",
      "type": "function",
      "constant": true
    },
    {
      "inputs": [],
      "name": "getTicketPrice",
      "outputs": [
        {
          "internalType": "uint256",
          "name": "",
          "type": "uint256"
        }
      ],
      "stateMutability": "view",
      "type": "function",
      "constant": true
    },
    {
      "inputs": [],
      "name": "getPlayers",
      "outputs": [
        {
          "components": [
            {
              "internalType": "string",
              "name": "name",
              "type": "string"
            },
            {
              "internalType": "address payable",
              "name": "addr",
              "type": "address"
            },
            {
              "internalType": "uint256",
              "name": "numOfTickets",
              "type": "uint256"
            }
          ],
          "internalType": "struct Lottery.Player[]",
          "name": "",
          "type": "tuple[]"
        }
      ],
      "stateMutability": "view",
      "type": "function",
      "constant": true
    },
    {
      "inputs": [],
      "name": "getLotteryID",
      "outputs": [
        {
          "internalType": "uint256",
          "name": "",
          "type": "uint256"
        }
      ],
      "stateMutability": "view",
      "type": "function",
      "constant": true
    },
    {
      "inputs": [],
      "name": "getWinners",
      "outputs": [
        {
          "internalType": "address[]",
          "name": "",
          "type": "address[]"
        }
      ],
      "stateMutability": "view",
      "type": "function",
      "constant": true
    },
    {
      "inputs": [
        {
          "internalType": "uint256",
          "name": "_ticketPrice",
          "type": "uint256"
        }
      ],
      "name": "openPool",
      "outputs": [],
      "stateMutability": "nonpayable",
      "type": "function"
    },
    {
      "inputs": [
        {
          "internalType": "string",
          "name": "_name",
          "type": "string"
        },
        {
          "internalType": "uint256",
          "name": "_numberOfTicketsBought",
          "type": "uint256"
        }
      ],
      "name": "enterPool",
      "outputs": [],
      "stateMutability": "payable",
      "type": "function",
      "payable": true
    },
    {
      "inputs": [],
      "name": "drawWinner",
      "outputs": [],
      "stateMutability": "nonpayable",
      "type": "function"
    }
  ],
  "bytecode": "0x60a060405234801561001057600080fd5b50730aa92c26c95bc8971ba0de285862d9bc7fcd5ec96000806101000a81548173ffffffffffffffffffffffffffffffffffffffff021916908373ffffffffffffffffffffffffffffffffffffffff160217905550730aa92c26c95bc8971ba0de285862d9bc7fcd5ec973ffffffffffffffffffffffffffffffffffffffff1660808173ffffffffffffffffffffffffffffffffffffffff1681525050600160028190555060006004819055506000600181905550600060058190555060805161250d6100ef600039600081816109df015261127c015261250d6000f3fe60806040526004361061014b5760003560e01c8063b2185bb1116100b6578063eaa8108f1161006f578063eaa8108f14610452578063f3bfc1c41461048f578063f71d96cb146104ba578063f98e6b91146104f9578063fac8f19a14610536578063fb8fed37146105525761014b565b8063b2185bb114610366578063c54c7da61461037d578063d7513c1f146103a8578063dd11247e146103d3578063ddac4d01146103fe578063df15c37e146104275761014b565b80638da5cb5b116101085780638da5cb5b1461025257806396365d441461027d5780639be064c1146102a8578063a2fb1175146102d3578063abd70aa214610310578063ad1907341461033b5761014b565b80631209b1f6146101505780631d54656f1461017b5780633a582d97146101a657806356c43f8e146101d157806387bb7ae0146101fc5780638b5b9ccc14610227575b600080fd5b34801561015c57600080fd5b5061016561057d565b604051610172919061149f565b60405180910390f35b34801561018757600080fd5b50610190610583565b60405161019d919061149f565b60405180910390f35b3480156101b257600080fd5b506101bb61058d565b6040516101c891906114d5565b60405180910390f35b3480156101dd57600080fd5b506101e66105a4565b6040516101f3919061149f565b60405180910390f35b34801561020857600080fd5b506102116105ae565b60405161021e919061149f565b60405180910390f35b34801561023357600080fd5b5061023c6105b8565b60405161024991906116e2565b60405180910390f35b34801561025e57600080fd5b50610267610709565b6040516102749190611725565b60405180910390f35b34801561028957600080fd5b5061029261072d565b60405161029f919061149f565b60405180910390f35b3480156102b457600080fd5b506102bd610733565b6040516102ca919061149f565b60405180910390f35b3480156102df57600080fd5b506102fa60048036038101906102f59190611780565b610739565b6040516103079190611725565b60405180910390f35b34801561031c57600080fd5b50610325610778565b604051610332919061149f565b60405180910390f35b34801561034757600080fd5b50610350610782565b60405161035d91906114d5565b60405180910390f35b34801561037257600080fd5b5061037b610795565b005b34801561038957600080fd5b50610392610ba2565b60405161039f919061149f565b60405180910390f35b3480156103b457600080fd5b506103bd610ba8565b6040516103ca91906114d5565b60405180910390f35b3480156103df57600080fd5b506103e8610c5b565b6040516103f5919061149f565b60405180910390f35b34801561040a57600080fd5b5061042560048036038101906104209190611780565b610c61565b005b34801561043357600080fd5b5061043c610dfb565b604051610449919061186b565b60405180910390f35b34801561045e57600080fd5b50610479600480360381019061047491906118b9565b610e89565b604051610486919061149f565b60405180910390f35b34801561049b57600080fd5b506104a4610ea1565b6040516104b191906114d5565b60405180910390f35b3480156104c657600080fd5b506104e160048036038101906104dc9190611780565b610ef8565b6040516104f09392919061193f565b60405180910390f35b34801561050557600080fd5b50610520600480360381019061051b9190611780565b610fda565b60405161052d9190611725565b60405180910390f35b610550600480360381019061054b9190611ab2565b61100d565b005b34801561055e57600080fd5b5061056761139c565b60405161057491906114d5565b60405180910390f35b60015481565b6000600254905090565b6000600360009054906101000a900460ff16905090565b6000600454905090565b6000600154905090565b60606008805480602002602001604051908101604052809291908181526020016000905b82821015610700578382906000526020600020906003020160405180606001604052908160008201805461060f90611b3d565b80601f016020809104026020016040519081016040528092919081815260200182805461063b90611b3d565b80156106885780601f1061065d57610100808354040283529160200191610688565b820191906000526020600020905b81548152906001019060200180831161066b57829003601f168201915b505050505081526020016001820160009054906101000a900473ffffffffffffffffffffffffffffffffffffffff1673ffffffffffffffffffffffffffffffffffffffff1673ffffffffffffffffffffffffffffffffffffffff168152602001600282015481525050815260200190600101906105dc565b50505050905090565b60008054906101000a900473ffffffffffffffffffffffffffffffffffffffff1681565b60055481565b60025481565b6007818154811061074957600080fd5b906000526020600020016000915054906101000a900473ffffffffffffffffffffffffffffffffffffffff1681565b6000600554905090565b600360009054906101000a900460ff1681565b60008054906101000a900473ffffffffffffffffffffffffffffffffffffffff1673ffffffffffffffffffffffffffffffffffffffff163373ffffffffffffffffffffffffffffffffffffffff1614610823576040517f08c379a000000000000000000000000000000000000000000000000000000000815260040161081a90611be0565b60405180910390fd5b60026004541015610869576040517f08c379a000000000000000000000000000000000000000000000000000000000815260040161086090611c72565b60405180910390fd5b600360019054906101000a900460ff16156108b9576040517f08c379a00000000000000000000000000000000000000000000000000000000081526004016108b090611cde565b60405180910390fd5b6001600360016101000a81548160ff021916908315150217905550600060045442446040516020016108ec929190611d1f565b6040516020818303038152906040528051906020012060001c61090f9190611d7a565b90506000600a600083815260200190815260200160002060009054906101000a900473ffffffffffffffffffffffffffffffffffffffff1690506007819080600181540180825580915050600190039060005260206000200160009091909190916101000a81548173ffffffffffffffffffffffffffffffffffffffff021916908373ffffffffffffffffffffffffffffffffffffffff16021790555060006064605f6005546109bf9190611dda565b6109c99190611e1c565b90506000816005546109db9190611e4d565b90507f0000000000000000000000000000000000000000000000000000000000000000506000600360006101000a81548160ff02191690831515021790555060006004819055506000600581905550600060018190555060026000815480929190610a4590611e81565b919050555060005b600654811015610aa057600a600082815260200190815260200160002060006101000a81549073ffffffffffffffffffffffffffffffffffffffff02191690558080610a9890611e81565b915050610a4d565b50600060068190555060005b600880549050811015610b54576009600060088381548110610ad157610ad0611ec9565b5b906000526020600020906003020160010160009054906101000a900473ffffffffffffffffffffffffffffffffffffffff1673ffffffffffffffffffffffffffffffffffffffff1673ffffffffffffffffffffffffffffffffffffffff168152602001908152602001600020600090558080610b4c90611e81565b915050610aac565b5060086000610b6391906113af565b7f275eaacf9e506f9c68b251c2f97cf723c4fb9a3b94e42a1dfb581543c135f0c08383604051610b94929190611ef8565b60405180910390a150505050565b60065481565b600080600090505b600880549050811015610c52573373ffffffffffffffffffffffffffffffffffffffff1660088281548110610be857610be7611ec9565b5b906000526020600020906003020160010160009054906101000a900473ffffffffffffffffffffffffffffffffffffffff1673ffffffffffffffffffffffffffffffffffffffff1603610c3f576001915050610c58565b8080610c4a90611e81565b915050610bb0565b50600090505b90565b60045481565b60008054906101000a900473ffffffffffffffffffffffffffffffffffffffff1673ffffffffffffffffffffffffffffffffffffffff163373ffffffffffffffffffffffffffffffffffffffff1614610cef576040517f08c379a0000000000000000000000000000000000000000000000000000000008152600401610ce690611be0565b60405180910390fd5b600360009054906101000a900460ff1615610d3f576040517f08c379a0000000000000000000000000000000000000000000000000000000008152600401610d3690611f6d565b60405180910390fd5b60008111610d82576040517f08c379a0000000000000000000000000000000000000000000000000000000008152600401610d7990611fff565b60405180910390fd5b6000600360016101000a81548160ff0219169083151502179055506001600360006101000a81548160ff021916908315150217905550806001819055507fdf5eab7aafa65f032281e56b9400db3c1d50c6a02c1c56cf936eb79e5748a9ab600154604051610df0919061149f565b60405180910390a150565b60606007805480602002602001604051908101604052809291908181526020018280548015610e7f57602002820191906000526020600020905b8160009054906101000a900473ffffffffffffffffffffffffffffffffffffffff1673ffffffffffffffffffffffffffffffffffffffff1681526020019060010190808311610e35575b5050505050905090565b60096020528060005260406000206000915090505481565b60008060009054906101000a900473ffffffffffffffffffffffffffffffffffffffff1673ffffffffffffffffffffffffffffffffffffffff163373ffffffffffffffffffffffffffffffffffffffff1614905090565b60088181548110610f0857600080fd5b9060005260206000209060030201600091509050806000018054610f2b90611b3d565b80601f0160208091040260200160405190810160405280929190818152602001828054610f5790611b3d565b8015610fa45780601f10610f7957610100808354040283529160200191610fa4565b820191906000526020600020905b815481529060010190602001808311610f8757829003601f168201915b5050505050908060010160009054906101000a900473ffffffffffffffffffffffffffffffffffffffff16908060020154905083565b600a6020528060005260406000206000915054906101000a900473ffffffffffffffffffffffffffffffffffffffff1681565b600360009054906101000a900460ff1661105c576040517f08c379a00000000000000000000000000000000000000000000000000000000081526004016110539061206b565b60405180910390fd5b6000811161109f576040517f08c379a0000000000000000000000000000000000000000000000000000000008152600401611096906120fd565b60405180910390fd5b600060405180606001604052808481526020013373ffffffffffffffffffffffffffffffffffffffff1681526020018381525090506008819080600181540180825580915050600190039060005260206000209060030201600090919091909150600082015181600001908161111591906122c9565b5060208201518160010160006101000a81548173ffffffffffffffffffffffffffffffffffffffff021916908373ffffffffffffffffffffffffffffffffffffffff16021790555060408201518160020155505081600960003373ffffffffffffffffffffffffffffffffffffffff1673ffffffffffffffffffffffffffffffffffffffff1681526020019081526020016000208190555060005b828110156112375733600a6000600654815260200190815260200160002060006101000a81548173ffffffffffffffffffffffffffffffffffffffff021916908373ffffffffffffffffffffffffffffffffffffffff1602179055506006600081548092919061121f90611e81565b9190505550808061122f90611e81565b9150506111b0565b50816004600082825461124a919061239b565b925050819055506001548261125f9190611dda565b60056000828254611270919061239b565b925050819055506000807f000000000000000000000000000000000000000000000000000000000000000073ffffffffffffffffffffffffffffffffffffffff16346040516112be90612400565b60006040518083038185875af1925050503d80600081146112fb576040519150601f19603f3d011682016040523d82523d6000602084013e611300565b606091505b509150915081611345576040517f08c379a000000000000000000000000000000000000000000000000000000000815260040161133c90612487565b60405180910390fd5b3373ffffffffffffffffffffffffffffffffffffffff167f7ff7c851576b0a6ac24d00f3be32aa3aeb04c2c9e69084f75a7b241ed80aaecc868660405161138d9291906124a7565b60405180910390a25050505050565b600360019054906101000a900460ff1681565b50805460008255600302906000526020600020908101906113d091906113d3565b50565b5b8082111561142557600080820160006113ed9190611429565b6001820160006101000a81549073ffffffffffffffffffffffffffffffffffffffff02191690556002820160009055506003016113d4565b5090565b50805461143590611b3d565b6000825580601f106114475750611466565b601f0160209004906000526020600020908101906114659190611469565b5b50565b5b8082111561148257600081600090555060010161146a565b5090565b6000819050919050565b61149981611486565b82525050565b60006020820190506114b46000830184611490565b92915050565b60008115159050919050565b6114cf816114ba565b82525050565b60006020820190506114ea60008301846114c6565b92915050565b600081519050919050565b600082825260208201905092915050565b6000819050602082019050919050565b600081519050919050565b600082825260208201905092915050565b60005b8381101561155657808201518184015260208101905061153b565b60008484015250505050565b6000601f19601f8301169050919050565b600061157e8261151c565b6115888185611527565b9350611598818560208601611538565b6115a181611562565b840191505092915050565b600073ffffffffffffffffffffffffffffffffffffffff82169050919050565b60006115d7826115ac565b9050919050565b6115e7816115cc565b82525050565b6115f681611486565b82525050565b600060608301600083015184820360008601526116198282611573565b915050602083015161162e60208601826115de565b50604083015161164160408601826115ed565b508091505092915050565b600061165883836115fc565b905092915050565b6000602082019050919050565b6000611678826114f0565b61168281856114fb565b9350836020820285016116948561150c565b8060005b858110156116d057848403895281516116b1858261164c565b94506116bc83611660565b925060208a01995050600181019050611698565b50829750879550505050505092915050565b600060208201905081810360008301526116fc818461166d565b905092915050565b600061170f826115ac565b9050919050565b61171f81611704565b82525050565b600060208201905061173a6000830184611716565b92915050565b6000604051905090565b600080fd5b600080fd5b61175d81611486565b811461176857600080fd5b50565b60008135905061177a81611754565b92915050565b6000602082840312156117965761179561174a565b5b60006117a48482850161176b565b91505092915050565b600081519050919050565b600082825260208201905092915050565b6000819050602082019050919050565b6117e281611704565b82525050565b60006117f483836117d9565b60208301905092915050565b6000602082019050919050565b6000611818826117ad565b61182281856117b8565b935061182d836117c9565b8060005b8381101561185e57815161184588826117e8565b975061185083611800565b925050600181019050611831565b5085935050505092915050565b60006020820190508181036000830152611885818461180d565b905092915050565b61189681611704565b81146118a157600080fd5b50565b6000813590506118b38161188d565b92915050565b6000602082840312156118cf576118ce61174a565b5b60006118dd848285016118a4565b91505092915050565b600082825260208201905092915050565b60006119028261151c565b61190c81856118e6565b935061191c818560208601611538565b61192581611562565b840191505092915050565b611939816115cc565b82525050565b6000606082019050818103600083015261195981866118f7565b90506119686020830185611930565b6119756040830184611490565b949350505050565b600080fd5b600080fd5b7f4e487b7100000000000000000000000000000000000000000000000000000000600052604160045260246000fd5b6119bf82611562565b810181811067ffffffffffffffff821117156119de576119dd611987565b5b80604052505050565b60006119f1611740565b90506119fd82826119b6565b919050565b600067ffffffffffffffff821115611a1d57611a1c611987565b5b611a2682611562565b9050602081019050919050565b82818337600083830152505050565b6000611a55611a5084611a02565b6119e7565b905082815260208101848484011115611a7157611a70611982565b5b611a7c848285611a33565b509392505050565b600082601f830112611a9957611a9861197d565b5b8135611aa9848260208601611a42565b91505092915050565b60008060408385031215611ac957611ac861174a565b5b600083013567ffffffffffffffff811115611ae757611ae661174f565b5b611af385828601611a84565b9250506020611b048582860161176b565b9150509250929050565b7f4e487b7100000000000000000000000000000000000000000000000000000000600052602260045260246000fd5b60006002820490506001821680611b5557607f821691505b602082108103611b6857611b67611b0e565b5b50919050565b7f4f6e6c792074686520636f6e7472616374206f776e65722063616e2063616c6c60008201527f20746869732066756e6374696f6e2e0000000000000000000000000000000000602082015250565b6000611bca602f836118e6565b9150611bd582611b6e565b604082019050919050565b60006020820190508181036000830152611bf981611bbd565b9050919050565b7f43616e6e6f74206472617720612077696e6e65722077697468206c657373207460008201527f68616e203220706c61796572732e000000000000000000000000000000000000602082015250565b6000611c5c602e836118e6565b9150611c6782611c00565b604082019050919050565b60006020820190508181036000830152611c8b81611c4f565b9050919050565b7f57696e6e657220616c726561647920647261776e000000000000000000000000600082015250565b6000611cc86014836118e6565b9150611cd382611c92565b602082019050919050565b60006020820190508181036000830152611cf781611cbb565b9050919050565b6000819050919050565b611d19611d1482611486565b611cfe565b82525050565b6000611d2b8285611d08565b602082019150611d3b8284611d08565b6020820191508190509392505050565b7f4e487b7100000000000000000000000000000000000000000000000000000000600052601260045260246000fd5b6000611d8582611486565b9150611d9083611486565b925082611da057611d9f611d4b565b5b828206905092915050565b7f4e487b7100000000000000000000000000000000000000000000000000000000600052601160045260246000fd5b6000611de582611486565b9150611df083611486565b9250828202611dfe81611486565b91508282048414831517611e1557611e14611dab565b5b5092915050565b6000611e2782611486565b9150611e3283611486565b925082611e4257611e41611d4b565b5b828204905092915050565b6000611e5882611486565b9150611e6383611486565b9250828203905081811115611e7b57611e7a611dab565b5b92915050565b6000611e8c82611486565b91507fffffffffffffffffffffffffffffffffffffffffffffffffffffffffffffffff8203611ebe57611ebd611dab565b5b600182019050919050565b7f4e487b7100000000000000000000000000000000000000000000000000000000600052603260045260246000fd5b6000604082019050611f0d6000830185611716565b611f1a6020830184611490565b9392505050565b7f4c6f747465727920706f6f6c20697320616c7265616479206f70656e2e000000600082015250565b6000611f57601d836118e6565b9150611f6282611f21565b602082019050919050565b60006020820190508181036000830152611f8681611f4a565b9050919050565b7f5469636b6574207072696365206d75737420626520677265617465722074686160008201527f6e20302e00000000000000000000000000000000000000000000000000000000602082015250565b6000611fe96024836118e6565b9150611ff482611f8d565b604082019050919050565b6000602082019050818103600083015261201881611fdc565b9050919050565b7f4c6f747465727920706f6f6c206973206e6f7420796574206f70656e2e000000600082015250565b6000612055601d836118e6565b91506120608261201f565b602082019050919050565b6000602082019050818103600083015261208481612048565b9050919050565b7f4e756d626572206f66207469636b65747320626f756768742073686f756c642060008201527f62652067726561746572207468616e2030000000000000000000000000000000602082015250565b60006120e76031836118e6565b91506120f28261208b565b604082019050919050565b60006020820190508181036000830152612116816120da565b9050919050565b60008190508160005260206000209050919050565b60006020601f8301049050919050565b600082821b905092915050565b60006008830261217f7fffffffffffffffffffffffffffffffffffffffffffffffffffffffffffffffff82612142565b6121898683612142565b95508019841693508086168417925050509392505050565b6000819050919050565b60006121c66121c16121bc84611486565b6121a1565b611486565b9050919050565b6000819050919050565b6121e0836121ab565b6121f46121ec826121cd565b84845461214f565b825550505050565b600090565b6122096121fc565b6122148184846121d7565b505050565b5b818110156122385761222d600082612201565b60018101905061221a565b5050565b601f82111561227d5761224e8161211d565b61225784612132565b81016020851015612266578190505b61227a61227285612132565b830182612219565b50505b505050565b600082821c905092915050565b60006122a060001984600802612282565b1980831691505092915050565b60006122b9838361228f565b9150826002028217905092915050565b6122d28261151c565b67ffffffffffffffff8111156122eb576122ea611987565b5b6122f58254611b3d565b61230082828561223c565b600060209050601f8311600181146123335760008415612321578287015190505b61232b85826122ad565b865550612393565b601f1984166123418661211d565b60005b8281101561236957848901518255600182019150602085019450602081019050612344565b868310156123865784890151612382601f89168261228f565b8355505b6001600288020188555050505b505050505050565b60006123a682611486565b91506123b183611486565b92508282019050808211156123c9576123c8611dab565b5b92915050565b600081905092915050565b50565b60006123ea6000836123cf565b91506123f5826123da565b600082019050919050565b600061240b826123dd565b9150819050919050565b7f4661696c656420746f2073656e6420457468657220746f20636f6e747261637460008201527f206f776e65720000000000000000000000000000000000000000000000000000602082015250565b60006124716026836118e6565b915061247c82612415565b604082019050919050565b600060208201905081810360008301526124a081612464565b9050919050565b600060408201905081810360008301526124c181856118f7565b90506124d06020830184611490565b939250505056fea2646970667358221220dc8f8f619d78fac86dd34b4820a69f46f44f76913441b15e547d2bc2829e922464736f6c63430008130033",
  "immutableReferences": {
    "3": [
      {
        "length": 32,
        "start": 2527
      },
      {
        "length": 32,
        "start": 4732
      }
    ]
  },
  "source": "// SPDX-License-Identifier: MIT\r\npragma solidity ^0.8.18;\r\n\r\n//import \"@/SafeMath.sol\";\r\n\r\ncontract Lottery {\r\n    //using SafeMath for uint256;\r\n\r\n    // State variables\r\n    address immutable CONTRACT_OWNER;\r\n    address public owner;\r\n    uint256 public ticketPrice;\r\n    uint public lotteryID;\r\n    bool public isPoolOpen;\r\n    bool public isWinnerDrawn;\r\n    uint256 public totalTickets;\r\n    uint256 public poolBalance;\r\n    uint256 public ticketNumber;\r\n\r\n    address[] public winners;\r\n    Player[] public players;\r\n    mapping(address => uint256) public playerTickets;\r\n    mapping(uint256 => address) public ticketToPlayer;\r\n\r\n    struct Player {\r\n        string name;\r\n        address payable addr;\r\n        uint256 numOfTickets;\r\n    }\r\n\r\n    // Events\r\n    event PoolOpened(uint256 ticketPrice);\r\n    event PlayerAdded(address indexed playerAddress, string name, uint256 numberOfTicketsBought);\r\n    event LotteryWinner(address winner, uint256 prize);\r\n\r\n    // Constructor\r\n    constructor(){\r\n        owner = 0x0Aa92C26C95Bc8971ba0dE285862D9Bc7FCd5EC9;\r\n        CONTRACT_OWNER = 0x0Aa92C26C95Bc8971ba0dE285862D9Bc7FCd5EC9;\r\n        lotteryID = 1;\r\n        totalTickets = 0;\r\n        ticketPrice = 0;\r\n        poolBalance = 0;\r\n    }\r\n\r\n    // Modifier to allow only owner to call certain functions\r\n    modifier onlyOwner{\r\n        require(msg.sender == owner, \"Only the contract owner can call this function.\");\r\n        _;\r\n    }\r\n\r\n    //========== GETTERS ==========//\r\n    function IsPoolOpen() public view returns (bool) {\r\n        return isPoolOpen;\r\n    }\r\n\r\n    function IsUserOwner() public view returns (bool) {\r\n        return msg.sender == owner;\r\n    }\r\n\r\n    function IsUserPlayer() public view returns (bool) {\r\n        for (uint i = 0; i < players.length; i++) {\r\n            if (players[i].addr == msg.sender) {\r\n                return true;\r\n            }\r\n        }\r\n        return false;\r\n    }\r\n\r\n    // Get the total number of tickets bought by players\r\n    function getTotalTicketsBought() public view returns (uint256) {\r\n        return totalTickets;\r\n    }\r\n\r\n    // Get the current balance of the lottery pool\r\n    function getPoolBalance() public view returns (uint256) {\r\n        return poolBalance;\r\n    }\r\n\r\n    function getTicketPrice() public view returns (uint256) {\r\n        return ticketPrice;\r\n    }\r\n\r\n    function getPlayers() public view returns (Player[] memory) {\r\n        return players;\r\n    }\r\n\r\n    function getLotteryID() public view returns(uint) {\r\n        return lotteryID;\r\n    }\r\n\r\n      function getWinners() public view returns (address[] memory){\r\n        return winners;\r\n    }\r\n\r\n    //========== METHODS ==========//\r\n\r\n    // Open the lottery pool\r\n    function openPool(uint256 _ticketPrice) public onlyOwner {\r\n        require(!isPoolOpen, \"Lottery pool is already open.\");\r\n        require(_ticketPrice > 0, \"Ticket price must be greater than 0.\");\r\n        isWinnerDrawn = false;\r\n        isPoolOpen = true;\r\n        ticketPrice = _ticketPrice;\r\n        emit PoolOpened(ticketPrice);\r\n    }\r\n\r\n    // Add a player to the lottery pool\r\n    function enterPool(string memory _name, uint256 _numberOfTicketsBought) public payable {\r\n        require(isPoolOpen, \"Lottery pool is not yet open.\");\r\n        require(_numberOfTicketsBought > 0, \"Number of tickets bought should be greater than 0\");\r\n\r\n        // Create new Player instance\r\n        Player memory newPlayer = Player(_name, payable(msg.sender), _numberOfTicketsBought);\r\n\r\n        // Add new player to players array\r\n        players.push(newPlayer);\r\n\r\n        playerTickets[msg.sender] = _numberOfTicketsBought;\r\n        for (uint256 i = 0; i < _numberOfTicketsBought; i++) {\r\n            ticketToPlayer[ticketNumber] = msg.sender;\r\n            ticketNumber++;\r\n        }\r\n\r\n        totalTickets += _numberOfTicketsBought;\r\n        poolBalance += _numberOfTicketsBought * (ticketPrice);\r\n\r\n        (bool sent, bytes memory data2) = CONTRACT_OWNER.call{value: msg.value}(\"\");\r\n        require(sent, \"Failed to send Ether to contract owner\");\r\n\r\n        emit PlayerAdded(msg.sender, _name, _numberOfTicketsBought);\r\n    }\r\n\r\n    function drawWinner() public onlyOwner {\r\n        require(totalTickets >= 2, \"Cannot draw a winner with less than 2 players.\");\r\n        require(!isWinnerDrawn, \"Winner already drawn\");\r\n        isWinnerDrawn = true;\r\n        \r\n        // Calculate the winning amount and transfer it to the winner and the owner\r\n        uint256 winningTicket = uint256(keccak256(abi.encodePacked(block.timestamp, block.prevrandao))) % totalTickets;\r\n        address winner = payable(ticketToPlayer[winningTicket]);\r\n        winners.push(winner);\r\n        uint256 amountWon = poolBalance * 95 / 100;\r\n        uint256 ownerFee = poolBalance - amountWon;\r\n        \r\n        winner.call{value: amountWon};\r\n        CONTRACT_OWNER.call{value: ownerFee};\r\n\r\n\r\n        // Reset the lottery pool for the next round\r\n        isPoolOpen = false;\r\n        totalTickets = 0;\r\n        poolBalance = 0;\r\n        ticketPrice = 0;\r\n        lotteryID++;\r\n\r\n        // Reset mappings for player's tickets and ticket numbers\r\n        for (uint256 i = 0; i < ticketNumber; i++) {\r\n            delete ticketToPlayer[i];\r\n        }\r\n        ticketNumber = 0;\r\n\r\n        for (uint256 i = 0; i < players.length; i++) {\r\n            delete playerTickets[players[i].addr];\r\n        }\r\n\r\n        // Reset players array\r\n        delete players;\r\n\r\n        // Emit an event with the winner and the winning amount\r\n        emit LotteryWinner(winner, amountWon);\r\n    }\r\n}",
  "sourcePath": "c:\\Users\\henri\\Documents\\COLE\\BACC INFO\\H2023\\Aspects pratiques de la chanes de blocs\\TP3\\IFT4100_TP3\\ift-4100-lottery-dapp\\backend\\contracts\\Lottery.sol",
  "compiler": {
    "name": "solc",
    "version": "0.8.19+commit.7dd6d404.Emscripten.clang"
  },
  "schemaVersion": "3.4.13",
  "updatedAt": "2023-04-07T19:57:21.169Z",
  "networkType": "ethereum",
  "devdoc": {
    "kind": "dev",
    "methods": {},
    "version": 1
  },
  "userdoc": {
    "kind": "user",
    "methods": {},
    "version": 1
  }
}